:020000040800F2
:10000000800C03205D02000801CD000829CC000807
:10001000FDCC0008C526000819F800080000000003
:10002000000000000000000000000000EDD2000809
:1000300055320008000000004DCF00088F02000874
:100040009102000891020008910200089102000844
:100050009102000891020008910200089102000834
:100060009102000891020008910200089102000824
:100070009102000891020008910200089102000814
:1000800091020008910200089102000837F600086A
:10009000EDF70008910200089102000891020008A3
:1000A00091020008910200089102000891020008E4
:1000B000910200083DDE000891020008910200084C
:1000C00091020008910200089102000891020008C4
:1000D00091020008910200089102000891020008B4
:1000E00091020008910200082BF600089102000816
:1000F0009102000891020008910200089102000894
:10010000910200089102000829EF000891020008FE
:100110009102000891020008910200089102000873
:100120009102000891020008910200089102000863
:100130009102000891020008910200089102000853
:1001400000000000000000000000000000000000AF
:100150009102000891020008910200089102000833
:10016000F5030008910200089102000891020008BE
:1001700091020008910200089102000800F002F8C4
:1001800000F05CF80AA090E8000C82448344AAF1D5
:100190000107DA4501D100F051F8AFF2090EBAE8D3
:1001A0000F0013F0010F18BFFB1A43F001031847AB
:1001B000206C0100406C01000A444FF0000C10F864
:1001C000013B13F0070408BF10F8014B1D1108BFD5
:1001D00010F8015B641E05D010F8016B641E01F875
:1001E000016BF9D113F0080F1EBF10F8014BAD1CC5
:1001F0000C1B09D16D1E58BF01F801CBFAD505E0E3
:1002000014F8016B01F8016B6D1EF9D59142D6D33C
:10021000704700000023002400250026103A28BF64
:1002200078C1FBD8520728BF30C148BF0B60704768
:100230001FB514F0E4FA1FBD10B510BD00F07CF836
:100240001146FFF7F5FF12F0A7FE00F09AF803B48D
:10025000FFF7F2FF03BC00F09DF8000041F2000040
:10026000C2F2000085460E48804740F20000C0F60A
:100270000000D0F800D00B4880470B480047FEE74D
:10028000FEE7FEE7FEE7FEE7FEE7FEE7FEE7FEE746
:10029000FEE7000005480649064A074B7047000084
:1002A000F1330008B9DD00087D010008800003205B
:1002B000800C032080040320800403204FF0000200
:1002C00000B5134694469646203922BFA0E80C504C
:1002D000A0E80C50B1F12001BFF4F7AF090728BF27
:1002E000A0E80C5048BF0CC05DF804EB890028BFA3
:1002F00040F8042B08BF704748BF20F8022B11F0CC
:10030000804F18BF00F8012B704770477047704747
:1003100010B500F009F8006810BD10B5044600F0F3
:1003200003F8046010BD0000004870471C00032063
:10033000004870471C0003207546FFF7F9FFAE46E2
:1003400005006946534620F00700854618B020B5E1
:10035000FFF7A0FFBDE820404FF000064FF0000778
:100360004FF000084FF0000B21F00701AC46ACE85D
:10037000C009ACE8C009ACE8C009ACE8C0098D46CA
:10038000704710B50446AFF300802046BDE810402A
:10039000FFF75DBF01491820ABBEFEE72600020053
:1003A00070470000012805D10749096821F00101C3
:1003B000054A1160022805D10349096821F00201AC
:1003C000014A11607047000000580140024A12685B
:1003D0000243014B1A607047045801400146002057
:1003E000034A12680A400AB1012000E00020704769
:1003F0000058014010B50120FFF7F0FF012801D19E
:10040000FFF7D0FF0220FFF7E9FF012802D1022009
:10041000FFF7C8FF10BD000029B1074A1268024368
:10042000054B1A6006E0044A1268C3439BB21A40A7
:10043000014B1A60704700000458014001490860F0
:10044000704700000C5801400149086070470000E7
:1004500010580140014908607047000014580140DD
:100460002DE9F80F02F1A003BF4A4FF0010C4FF045
:100470000508C2F808C0D2F808C0D2F800C0CDF80C
:1004800000C01CF1010C7CD04268D3F804C0806825
:1004900082EA0C049A68A44680EA02076246B348DE
:1004A0004FEA1C6507F0FF0950F82560C4F30745C3
:1004B00050F8299050F82550203B86EA3525C2F3A4
:1004C000072602F0FF0A50F8266050F82AA04FEAEB
:1004D000364686EA39666E401D69CCF307496E40A0
:1004E0003D0E50F8299050F8255004F0FF0B85EA96
:1004F0003925C4F30729240E50F8299050F82440D8
:100500004FEA394989EA3A6985EA09095D69C7F319
:10051000074A89EA05054FEA126950F82AA050F8FF
:100520002990C2F3074289EA3A29CCF3072A50F806
:1005300022200CF0FF0C84EA3222C7F3072450F883
:100540002AA050F8244050F82BB050F82CC04FEAA5
:100550003A4A4FEA34448AEA3B6A84EA3C6C89EAC4
:100560000A0982EA0C0CD3F818A0DA69A8F101088C
:1005700089EA0A098CEA0204B8F1000F7ADD320E2A
:1005800000E064E0C4F3074C50F8222050F82CC07F
:1005900009F0FF0A82EA3C22C9F3072C50F82AA08E
:1005A00050F82CC004F0FF0B4FEA3C4705F0FF0C5D
:1005B00050F82BB050F82CC087EA3C6C82EA0C0C47
:1005C0001A68C6F307478CEA020C2A0E50F8277007
:1005D00050F8222082EA3722C4F30727240E50F86D
:1005E000277050F824404FEA374787EA3A677A4045
:1005F0005F68C5F3074A57404FEA196250F82AA0CE
:1006000050F82220C5F3072582EA3A22C6F3072ACA
:10061000C9F30749F6B250F82AA050F8255050F80F
:10062000299050F826604FEA3A4A4FEA35458AEA5F
:100630003B6A84EA392485EA366582EA0A026C401C
:10064000D3F808A0DD6882EA0A026C4028E7DDF8EA
:1006500000C0C2F800C01268009262B14268D3F8CC
:1006600004C080689C6882EA0C02944680EA040711
:10067000644614E70FE00268D3F800C05C6882EAC1
:100680000C0C426882EA040782689C68C068624079
:10069000DC68444003E73648EAB200EB166C825C43
:1006A0009CF800C0C9F3072742EA0C62C4F3074C68
:1006B000C75D10F80CC04FEA0C4C4CEA072C42EA1C
:1006C0000C02D3F800C0C4F3072782EA0C020A60C8
:1006D00009F0FF0200EB156C825C9CF800C0C75D5E
:1006E00042EA0C62C6F3074C10F80CC04FEA0C4CFF
:1006F0004CEA072C42EA0C02D3F804C0C6F30727E1
:1007000082EA0C024A60E2B200EB196C825C9CF84F
:1007100000C0C75D42EA0C6CC5F30742825C12045C
:1007200042EA07224CEA0202D3F808C082EA0C022D
:100730008A60F2B200EB146C825C9CF800C0C5F3D6
:10074000072442EA0C62C9F3074C10F80CC0005DA4
:100750004FEA0C4C4CEA00201043DA685040C86065
:10076000BDE8F80F7047000000300240D05B010880
:10077000A85601082DE9F80FBF4B4FF0010C4FF0C0
:100780000508C3F808C0D3F808C0D3F800C0CDF8F6
:1007900000C01CF1010C09D04368D2F804C0006805
:1007A00083EA0C07136843409C4610E0DDF800C064
:1007B000C3F800C01B6800935BB14368D2F804C063
:1007C000006883EA0C07136880EA030C63466446FA
:1007D0000FE00368D2F800C0946883EA0C0743680E
:1007E000D2F804C083EA0C0C8368C0686340D46804
:1007F0004440A2483D0ECCF3074650F8255050F82F
:10080000266004F0FF0985EA3625C3F3072650F871
:10081000299050F8266007F0FF0A4FEA364686EA2C
:1008200039666E401569C3F307496E404FEA1C658F
:1008300050F8299050F8255050F82AA085EA39251B
:10084000C4F307290CF0FF0B50F82990CCF3072CC8
:100850004FEA394989EA3A6985EA0905D2F81490DC
:10086000C4F3074A85EA09054FEA136950F82AA03C
:1008700050F82990240E89EA3A29C7F3072AC7F3CA
:100880000747DBB250F82AA050F82CC050F82BB024
:1008900050F8244050F8277050F823304FEA3A4A75
:1008A0004FEA3C4C8AEA3B6A84EA37248CEA336399
:1008B00089EA0A0984EA030CD2F818A0D369203225
:1008C000A8F1010889EA0A098CEA0304B8F1000FCB
:1008D00069DD330EC5F3074C50F8233050F82CC0B7
:1008E000E7B283EA3C23C9F3072C50F8277050F88D
:1008F0002CC006F0FF0A4FEA3C4C8CEA376C83EAC6
:100900000C03D2F800C050F82AA083EA0C072B0E83
:10091000C9F3074C50F8233050F82CC005F0FF0BFA
:1009200083EA3C23C4F3072CC5F3072550F82CC0F9
:1009300050F825504FEA3C4C8CEA3A6C83EA0C03A1
:10094000D2F804C0C4F3074A83EA0C0C4FEA1963D7
:1009500050F82AA050F82330240E83EA3A23C6F335
:10096000072AC6F3074650F8244050F8266050F88E
:100970002AA084EA36244FEA354609F0FF0550F8EC
:100980002BB050F825504FEA3A4A8AEA3B6A86EA89
:10099000356583EA0A036C40D2F808A0D56883EA7B
:1009A0000A036C4026E73648E3B200EB166CC35CE2
:1009B0009CF800C0C9F3072743EA0C63C5F3074C52
:1009C000C75D10F80CC04FEA0C4C4CEA072C43EA08
:1009D0000C03D2F800C0C4F3072783EA0C030B60B2
:1009E000F3B200EB156CC35C9CF800C0C75D43EA32
:1009F0000C63C9F3074C10F80CC04FEA0C4C4CEADE
:100A0000072C43EA0C03D2F804C0C6F3072783EA95
:100A10000C034B60EBB200EB196CC35C9CF800C09C
:100A2000C75D43EA0C6CC4F30743C35C1B0443EA91
:100A300007234CEA0303D2F808C083EA0C038B6057
:100A400009F0FF0300EB146CC35C9CF800C0C5F315
:100A5000072443EA0C63C6F3074CD26810F80CC0B5
:100A6000005D4FEA0C4C4CEA002018435040C8602F
:100A7000BDE8F80F7047000000300240D057010871
:100A8000A85501082DE9F04105460C4600F092F802
:100A90002868206068686060A868A060E868E06016
:100AA0004348012600F5C5611034761CD4E900C323
:100AB00000EB1C67CCF307483F7810F80880D4E9B6
:100AC000022551F8277051F8288087EA3827CCF39F
:100AD00007280CF0FF0C10F8088010F80CC051F833
:100AE000288051F82CC04FEA384888EA3C6C87EAE5
:100AF0000C0CC4F800C000EB136CC3F307479CF860
:100B000000C0C75D51F82CC051F827708CEA372C13
:100B1000C3F30727DBB2C75DC35C51F8277051F8F8
:100B200023304FEA374787EA33638CEA0303636075
:100B300000EB1263C2F3074C1B7810F80CC051F89D
:100B4000233051F82CC083EA3C23C2F3072CD2B2E5
:100B500010F80CC0825C51F82CC051F822204FEAEA
:100B60003C4C8CEA32625A40A26000EB1562C5F33D
:100B700007431278C35C05F0FF0C51F8222051F8AE
:100B8000233010F80CC082EA3322C5F3072351F852
:100B90002CC0C35C51F823304FEA334383EA3C63F3
:100BA0005A40E2600A2EFFF67FAFBDE8F0810000F8
:100BB000A85501082DE9F003D0E900C38268C06898
:100BC000184CC1E90220E1E804C30A26A4F5007527
:100BD00005EB1067C0F307483F7815F8088000F070
:100BE000FF0947EA0867C0F3072815F8099015F8C8
:100BF00008804FEA084848EA092847EA080787EAD0
:100C00000C0C54F8047B8CEA070C83EA0C035A4062
:100C10005040C1E90220E1E804C3761ED8D1BDE806
:100C2000F0037047A85701082DE9F80F02F1C0033F
:100C3000BE4A4FF0010C4FF00608C2F808C0D2F8C7
:100C400008C0D2F800C0CDF800C01CF1010C7CD067
:100C50004268D3F804C0806882EA0C049A68A4460B
:100C600080EA02076246B2484FEA1C6507F0FF09B6
:100C700050F82560C4F3074550F8299050F82550E6
:100C8000203B86EA3525C2F3072602F0FF0A50F81A
:100C9000266050F82AA04FEA364686EA39666E404A
:100CA0001D69CCF307496E403D0E50F8299050F86D
:100CB000255004F0FF0B85EA3925C4F30729240EDB
:100CC00050F8299050F824404FEA394989EA3A69A6
:100CD00085EA09095D69C7F3074A89EA05054FEA0C
:100CE000126950F82AA050F82990C2F3074289EA05
:100CF0003A29CCF3072A50F822200CF0FF0C84EAA2
:100D00003222C7F3072450F82AA050F8244050F8A4
:100D10002BB050F82CC04FEA3A4A4FEA34448AEAE2
:100D20003B6A84EA3C6C89EA0A0982EA0C0CD3F833
:100D300018A0DA6989EA0A098CEA0204B8F1010804
:100D40007AD0320E50F8222000E062E0C4F3074C63
:100D500009F0FF0A50F82CC050F82AA082EA3C2281
:100D6000C9F3072C04F0FF0B50F82CC050F82BB03F
:100D70004FEA3C4705F0FF0C50F82CC087EA3C6C6A
:100D800082EA0C0C1A68C6F307478CEA020C2A0E9A
:100D900050F8277050F8222082EA3722C4F3072740
:100DA000240E50F8277050F824404FEA374787EA5E
:100DB0003A677A405F68C5F3074A57404FEA1962BD
:100DC00050F82AA050F82220C5F3072582EA3A22DB
:100DD000C6F3072AC9F30749F6B250F82AA050F81B
:100DE000255050F8299050F826604FEA3A4A4FEAC9
:100DF00035458AEA3B6A84EA392485EA366582EA1F
:100E00000A026C40D3F808A0DD6882EA0A026C404E
:100E10002AE7DDF800C0C2F800C01268009262B193
:100E20004268D3F804C080689C6882EA0C02944649
:100E300080EA0407644616E70FE00268D3F800C0B2
:100E40005C6882EA0C0C426882EA040782689C684B
:100E5000C0686240DC68444005E73648EAB200EB0F
:100E6000166C825C9CF800C0C9F3072742EA0C624A
:100E7000C4F3074CC75D10F80CC04FEA0C4C4CEAA9
:100E8000072C42EA0C02D3F800C0C4F3072782EA19
:100E90000C020A6009F0FF0200EB156C825C9CF802
:100EA00000C0C75D42EA0C62C6F3074C10F80CC0E4
:100EB0004FEA0C4C4CEA072C42EA0C02D3F804C06F
:100EC000C6F3072782EA0C024A60E2B200EB196C13
:100ED000825C9CF800C0C75D42EA0C6CC5F3074217
:100EE000825C120442EA07224CEA0202D3F808C0EC
:100EF00082EA0C028A60F2B200EB146C825C9CF80D
:100F000000C0C5F3072442EA0C62C9F3074C10F88D
:100F10000CC0005D4FEA0C4C4CEA00201043DA682C
:100F20005040C860BDE8F80F704700000030024034
:100F3000D05B0108A85601082DE9F0410C4600F0ED
:100F400087F84248012600F5C5621034761CD4E9C2
:100F5000005C00EB1567C5F307483F7810F8088080
:100F6000D4E9023152F8277052F8288087EA3827EE
:100F7000C5F30728EDB210F80880455D52F82880C7
:100F800052F825504FEA384888EA35657D4025609B
:100F900000EB1C65CCF307472D78C75D52F8255050
:100FA00052F8277085EA3725CCF307270CF0FF0CA1
:100FB000C75D10F80CC052F8277052F82CC04FEAE9
:100FC000374787EA3C6C85EA0C0CC4F804C000EB98
:100FD000136CC3F307459CF800C0455D52F82CC064
:100FE00052F825508CEA352CC3F30725DBB2455D5A
:100FF000C35C52F8255052F823304FEA354585EA54
:1010000033638CEA0303A36000EB1163C1F3074C65
:101010001B7810F80CC052F8233052F82CC083EA29
:101020003C23C1F3072CC9B210F80CC0415C52F844
:101030002CC052F821104FEA3C4C8CEA31615940E7
:10104000E1600C2E81DBBDE8F0810000A8550108AD
:101050002DE9F00F02680A60D0E900C24A60D0E9C9
:1010600001328A60D0E90225CD60D0E903560E61D5
:10107000D0E904674F611B4F4069002407F50079F0
:1010800007EB1068C0F3074A98F8008017F80AA029
:1010900000F0FF0B48EA0A68C0F3072A17F80BB004
:1010A00017F80AA04FEA0A4A4AEA0B2A48EA0A084D
:1010B00088EA0C0C59F82480641C8CEA080C83EA3A
:1010C0000C035A40554041F818CF082CCD60C1E9B7
:1010D0000132A4BFBDE8F00F70476E407040C1E917
:1010E0000460CDE7A85501082DE9F0410C4600F059
:1010F0001FFD4248012600F5C5621034761CD4E974
:10110000005C00EB1567C5F307483F7810F80880CE
:10111000D4E9023152F8277052F8288087EA38273C
:10112000C5F30728EDB210F80880455D52F8288015
:1011300052F825504FEA384888EA35657D402560E9
:1011400000EB1C65CCF307472D78C75D52F825509E
:1011500052F8277085EA3725CCF307270CF0FF0CEF
:10116000C75D10F80CC052F8277052F82CC04FEA37
:10117000374787EA3C6C85EA0C0CC4F804C000EBE6
:10118000136CC3F307459CF800C0455D52F82CC0B2
:1011900052F825508CEA352CC3F30725DBB2455DA8
:1011A000C35C52F8255052F823304FEA354585EAA2
:1011B00033638CEA0303A36000EB1163C1F3074CB4
:1011C0001B7810F80CC052F8233052F82CC083EA78
:1011D0003C23C1F3072CC9B210F80CC0415C52F893
:1011E0002CC052F821104FEA3C4C8CEA3161594036
:1011F000E1600E2E81DBBDE8F0810000A8550108FA
:101200003221133248516187299200002DE9F80FED
:10121000BF4B4FF0010C4FF00608C3F808C0D3F8DD
:1012200008C0D3F800C0CDF800C01CF1010C09D0F3
:101230004368D2F804C0006883EA0C07136843408F
:101240009C4610E0DDF800C0C3F800C01B680093A6
:101250005BB14368D2F804C0006883EA0C071368E6
:1012600080EA030C634664460FE00368D2F800C0CE
:10127000946883EA0C074368D2F804C083EA0C0C34
:101280008368C0686340D4684440A2483D0ECCF3F4
:10129000074650F8255050F8266004F0FF0985EA0B
:1012A0003625C3F3072650F8299050F8266007F03A
:1012B000FF0A4FEA364686EA39666E401569C3F37F
:1012C00007496E404FEA1C6550F8299050F82550A8
:1012D00050F82AA085EA3925C4F307290CF0FF0B42
:1012E00050F82990CCF3072C4FEA394989EA3A693A
:1012F00085EA0905D2F81490C4F3074A85EA09057E
:101300004FEA136950F82AA050F82990240E89EA70
:101310003A29C7F3072AC7F30747DBB250F82AA0D8
:1013200050F82CC050F82BB050F8244050F82770DB
:1013300050F823304FEA3A4A4FEA3C4C8AEA3B6A7B
:1013400084EA37248CEA336389EA0A0984EA030CC5
:10135000D2F818A0D3692032A8F1010889EA0A0955
:101360008CEA0304B8F1000F69DD330EC5F3074CB6
:1013700050F8233050F82CC0E7B283EA3C23C9F37D
:10138000072C50F8277050F82CC006F0FF0A4FEADF
:101390003C4C8CEA376C83EA0C03D2F800C050F85E
:1013A0002AA083EA0C072B0EC9F3074C50F8233010
:1013B00050F82CC005F0FF0B83EA3C23C4F3072C44
:1013C000C5F3072550F82CC050F825504FEA3C4C87
:1013D0008CEA3A6C83EA0C03D2F804C0C4F3074ADF
:1013E00083EA0C0C4FEA196350F82AA050F8233016
:1013F000240E83EA3A23C6F3072AC6F3074650F8B9
:10140000244050F8266050F82AA084EA36244FEA97
:10141000354609F0FF0550F82BB050F825504FEA3B
:101420003A4A8AEA3B6A86EA356583EA0A036C40EF
:10143000D2F808A0D56883EA0A036C4026E736484C
:10144000E3B200EB166CC35C9CF800C0C9F307273D
:1014500043EA0C63C5F3074CC75D10F80CC04FEAB4
:101460000C4C4CEA072C43EA0C03D2F800C0C4F33E
:10147000072783EA0C030B60F3B200EB156CC35C27
:101480009CF800C0C75D43EA0C63C9F3074C10F831
:101490000CC04FEA0C4C4CEA072C43EA0C03D2F880
:1014A00004C0C6F3072783EA0C034B60EBB200EBE2
:1014B000196CC35C9CF800C0C75D43EA0C6CC4F3B4
:1014C0000743C35C1B0443EA07234CEA0303D2F837
:1014D00008C083EA0C038B6009F0FF0300EB146C77
:1014E000C35C9CF800C0C5F3072443EA0C63C6F351
:1014F000074CD26810F80CC0005D4FEA0C4C4CEA67
:10150000002018435040C860BDE8F80F7047000045
:1015100000300240D0570108A85501082DE9F80F06
:1015200002F1E003BF4A4FF0010C4FF00708C2F888
:1015300008C0D2F808C0D2F800C0CDF800C01CF135
:10154000010C7CD04268D3F804C0806882EA0C04A5
:101550009A68A44680EA02076246B3484FEA1C65CF
:1015600007F0FF0950F82560C4F3074550F82990AB
:1015700050F82550203B86EA3525C2F3072602F0B5
:10158000FF0A50F8266050F82AA04FEA364686EA4D
:1015900039666E401D69CCF307496E403D0E50F828
:1015A000299050F8255004F0FF0B85EA3925C4F343
:1015B0000729240E50F8299050F824404FEA394961
:1015C00089EA3A6985EA09095D69C7F3074A89EA40
:1015D00005054FEA126950F82AA050F82990C2F385
:1015E000074289EA3A29CCF3072A50F822200CF066
:1015F000FF0C84EA3222C7F3072450F82AA050F8DF
:10160000244050F82BB050F82CC04FEA3A4A4FEA29
:1016100034448AEA3B6A84EA3C6C89EA0A0982EA31
:101620000C0CD3F818A0DA69A8F1010889EA0A09B4
:101630008CEA0204B8F1000F7ADD320E00E064E0BB
:10164000C4F3074C50F8222050F82CC009F0FF0AD0
:1016500082EA3C22C9F3072C50F82AA050F82CC08B
:1016600004F0FF0B4FEA3C4705F0FF0C50F82BB09D
:1016700050F82CC087EA3C6C82EA0C0C1A68C6F35E
:1016800007478CEA020C2A0E50F8277050F82220E7
:1016900082EA3722C4F30727240E50F8277050F847
:1016A00024404FEA374787EA3A677A405F68C5F3D4
:1016B000074A57404FEA196250F82AA050F82220F2
:1016C000C5F3072582EA3A22C6F3072AC9F3074978
:1016D000F6B250F82AA050F8255050F8299050F84A
:1016E00026604FEA3A4A4FEA35458AEA3B6A84EA7D
:1016F000392485EA366582EA0A026C40D3F808A0EC
:10170000DD6882EA0A026C4028E7DDF800C0C2F812
:1017100000C01268009262B14268D3F804C08068C9
:101720009C6882EA0C02944680EA0407644614E747
:101730000FE00268D3F800C05C6882EA0C0C4268D3
:1017400082EA040782689C68C0686240DC684440A2
:1017500003E73648EAB200EB166C825C9CF800C0E6
:10176000C9F3072742EA0C62C4F3074CC75D10F8BF
:101770000CC04FEA0C4C4CEA072C42EA0C02D3F89E
:1017800000C0C4F3072782EA0C020A6009F0FF02D6
:1017900000EB156C825C9CF800C0C75D42EA0C62ED
:1017A000C6F3074C10F80CC04FEA0C4C4CEA072C5F
:1017B00042EA0C02D3F804C0C6F3072782EA0C02FF
:1017C0004A60E2B200EB196C825C9CF800C0C75D15
:1017D00042EA0C6CC5F30742825C120442EA07221B
:1017E0004CEA0202D3F808C082EA0C028A60F2B224
:1017F00000EB146C825C9CF800C0C5F3072442EA3D
:101800000C62C9F3074C10F80CC0005D4FEA0C4C99
:101810004CEA00201043DA685040C860BDE8F80F79
:101820007047000000300240D05B0108A856010854
:101830002DE9F80FBB4B4FF0010C4FF00708C3F830
:1018400008C0D3F808C0D3F800C0CDF800C01CF120
:10185000010C07D1DDF800C0C3F800C01B6800937D
:10186000002B7DD04368D2F804C08068946883EA76
:101870000C0C80EA040763466446AB484FEA1C65DB
:1018800004F0FF0950F82560C7F3074550F8299088
:1018900050F825500CF0FF0A86EA3525C3F30726D9
:1018A00050F82AA050F8266007F0FF0B4FEA3646A2
:1018B00086EA396675401669C3F307496E403D0EE6
:1018C00050F8299050F8255050F82BB085EA39256A
:1018D000C4F30729A8F1010850F829904FEA3949C3
:1018E00089EA3A6985EA0905D2F81490C4F3074AEF
:1018F00085EA09054FEA136950F82AA050F82990A3
:10190000240E89EA3A29CCF3072ACCF3074C50F885
:10191000244050F82CC0DBB284EA3C2CC7F30724E7
:1019200050F82AA050F8244050F823304FEA3A4AA1
:101930004FEA34448AEA3B6A84EA336389EA0A0953
:101940008CEA0303D2F818A0D2F81CC0203289EA2E
:101950000A0983EA0C04B8F1000F79DD330E00E0C8
:1019600065E0C5F3074C50F8233050F82CC0E7B2BF
:1019700083EA3C23C9F3072C50F8277050F82CC099
:1019800006F0FF0A4FEA3C4C8CEA376C83EA0C0302
:10199000D2F800C0C9F3074783EA0C0C2B0E50F8AD
:1019A000277050F8233050F82AA083EA3723C4F375
:1019B000072705F0FF0B50F82770C5F307254FEAFE
:1019C000374787EA3A677B405768C4F3074A5F4066
:1019D0004FEA196350F82AA050F82330240E83EA06
:1019E0003A23C6F3072AC6F3074650F8244050F8B6
:1019F000266050F82AA084EA362409F0FF0650F841
:101A0000255050F82BB050F826604FEA3A4A4FEA7A
:101A100035458AEA3B6A85EA366583EA0A036C4003
:101A2000D2F808A0D56883EA0A036C4026E7036869
:101A3000D2F800C0546883EA0C0C436883EA0407B8
:101A400083689468C0686340D468444015E7FFE742
:101A50003648E3B200EB166CC35C9CF800C0C9F3D7
:101A6000072743EA0C63C5F3074CC75D10F80CC0A9
:101A70004FEA0C4C4CEA072C43EA0C03D2F800C0A6
:101A8000C4F3072783EA0C030B60F3B200EB156C79
:101A9000C35C9CF800C0C75D43EA0C63C9F3074C04
:101AA00010F80CC04FEA0C4C4CEA072C43EA0C032C
:101AB000D2F804C0C6F3072783EA0C034B60EBB2ED
:101AC00000EB196CC35C9CF800C0C75D43EA0C6373
:101AD000C4F3074C10F80CC04FEA0C4C4CEA072C2E
:101AE00043EA0C03D2F808C083EA0C038B6009F0C8
:101AF000FF0300EB146CC35C9CF800C0C5F3072423
:101B000043EA0C63C6F3074CD26810F80CC0005DC2
:101B10004FEA0C4C4CEA002018435040C860BDE826
:101B2000F80F704700300240D0570108A85501084F
:101B30002DE9F04FD0E902C2D0E90054C1E902C258
:101B4000C1E90054D0E90487C1E90487D0E90663FC
:101B5000C1E906632B484FF0000900BF00EB136A90
:101B6000C3F3074B9AF800A010F80BB003F0FF0E78
:101B70004AEA0B6AC3F3072B10F80EE010F80BB01B
:101B800020314FEA0B4B4BEA0E2B4AEA0B0A8AEA4A
:101B9000050A1D4D55F8295009F101098AEA050584
:101BA0006C408CEA040C82EA0C02C1E902C2C1E971
:101BB0000054B9F1070FA8BFBDE8F08F02F0FF0A8B
:101BC00000EB126B10F80AA09BF800B0C2F3072ECE
:101BD0004AEA0B6AC2F3074B10F80EE010F80BB09C
:101BE0004FEA0B4B4BEA0E2B4AEA0B0A8AEA08082B
:101BF00087EA08077E407340C1E90663C1E90487AC
:101C0000ACE70000A8550108A85701082DE9F047E6
:101C100084B01F46DDF830A091468846060018BF04
:101C2000B8F1000F0FD0002F18BFBAF1000F0AD083
:101C3000B9F1000F02DD19F00F0F09D004B040F622
:101C40001D40BDE8F08704B04FF44260BDE8F08766
:101C5000307910F0020F13BF40F61E4000246D468D
:101C600004B018BFBDE8F0875FF0000004EB80010E
:101C700058F8011009BA45F82010401C0428F5DB7B
:101C8000736A6846014606F12802182B04D0202BFF
:101C900005D0FEF7E5FB04E0FEF7C6FF01E0FFF725
:101CA0003DFC4FF0000C00BF55F82C0004EB8C01FC
:101CB00000BA0CF1010C7850BCF1040FF4DB1034C5
:101CC0004C45D1DBCAF8004004B00020BDE8F087E5
:101CD000032300F067B800002DE9F04784B01F46E9
:101CE000DDF830A091468846060018BFB8F1000F15
:101CF0000FD0002F18BFBAF1000F0AD0B9F1000FB2
:101D000002DD19F00F0F09D004B040F61D40BDE808
:101D1000F08704B04FF44260BDE8F087307910F0EE
:101D2000020F13BF40F61E4000246D4604B018BFDA
:101D3000BDE8F0875FF0000004EB800158F8011067
:101D400009BA45F82010401C0428F5DB736A684680
:101D5000014606F12802182B04D0202B05D0FEF7EF
:101D600009FD04E0FFF752FA01E0FFF761FD4FF0D3
:101D7000000C00BF55F82C0004EB8C0100BA0CF1EC
:101D8000010C7850BCF1040FF4DB10344C45D1DB6E
:101D9000CAF8004004B00020BDE8F087022300F03C
:101DA00001B80000002818BF002905D003F0060C78
:101DB0002AB9BCF1020F02D04FF4426070472DE9FE
:101DC000F043446A89B0102C1CBF182C202C06D17B
:101DD000BCF1020F08D00469641E102C04D309B0B2
:101DE00040F61F40BDE8F083C2600479BCF1020FE9
:101DF00024F00604047149D0002444618461C46164
:101E000004620569002DD8BF4FF0000C06DD15F007
:101E1000010C03D0167844EA066444616545C8BFE6
:101E2000182433DD4FEAEC750CEB957525F00306AD
:101E30003718ACEB060607F1140512F80C80764251
:101E40007F6904EBC60608FA06F63E432E600CF1E5
:101E50000107FE1707EB967525F0030606EB000851
:101E600002EB0C09BE1B08F1140599F801907642AB
:101E7000D8F8148004EBC60609FA06F648EA060606
:101E80002E6005690CF1020C6545CBDC027912F07D
:101E9000010F55D1816013F0010F0DD006229A4336
:101EA0000AD0426A0B4600F128014FEAE27C00208A
:101EB0006C4602EB9C7C2FE000F1280C426A00206B
:101EC000D3176C4602EB937306E000BF51F8205025
:101ED0002DBA44F82050401CB0EBA30FF6DB102ABB
:101EE00004D0182A07D0202A2AD109E061462046CA
:101EF000FEF760FE24E061462046FFF7A9F81FE0E8
:101F000061462046FFF714FE1AE000BF53F8205048
:101F10002DBA44F82050401CB0EBAC0FF6DB102A71
:101F200007D0182A09D0202A04BF2046FFF7DCF882
:101F300006E02046FEF7A6FD02E02046FEF7FCFF85
:101F400009B00020BDE8F08310B590B0FD48FE490F
:101F50000860FE48FE49086001211C200BF0EEF8E5
:101F60000FA801F0E9FD0024AEE004EB840000EBD3
:101F7000C400F84901EB80008089ADF83C001020D6
:101F80008DF83F0001208DF83E0004EB840101EB49
:101F9000C401F04A02EB810188680FA901F034FD09
:101FA00004EB840000EBC400EA4901EB8000808868
:101FB000ADF83C0004EB840101EBC401E54A52F8A2
:101FC00021000FA901F020FD04EB840000EBC40008
:101FD000E04901EB8000808AADF83C0018208DF8C4
:101FE0003F0004EB840101EBC401DA4A02EB8101FA
:101FF00008690FA901F008FD04EB840000EBC400A0
:10200000D44901EB8000806950B304EB840000EBFD
:10201000C40001EB8000808BADF83C0000208DF8FF
:102020003F0001208DF83E0004EB840101EBC40168
:10203000C84A02EB810188690FA901F0E5FC04EBB5
:10204000840202EBC402C34B03EB8202918B04EBCC
:10205000840202EBC40203EB8202906901F068FD86
:1020600004EB840202EBC402BA4B03EB82029189B7
:1020700004EB840202EBC40203EB8202906801F0DD
:1020800057FD04EB840202EBC402B24B03EB820265
:10209000918804EB840202EBC40253F8220001F0A1
:1020A00047FD04EB840202EBC402AA4B03EB82025D
:1020B000918A04EB840202EBC40203EB82021069F2
:1020C00001F036FD601CC4B2032CFFF64EAF0024B5
:1020D00012E0A14830F81400ADF83C0028208DF83B
:1020E0003F0001208DF83E009C4951F824000FA9C3
:1020F00001F08AFC601CC4B2032CEADB1D208DF8C1
:10210000140000208DF815008DF8160001208DF8C0
:10211000170005A80AF0F6FD012102200AF0FEFFD3
:102120000BA80DF079FA40F2E7300D90EF20ADF8F2
:102130002C000020ADF838000C900BA988480DF059
:102140003DFA06A80DF030FA7020ADF81800012015
:10215000ADF81A004FF6FF7008900020ADF824008B
:1021600006A97F480DF00BF908217D480DF038F9DC
:1021700006A97B480DF03DF9082179480DF07EF95C
:1021800006A977480DF087F9082175480DF0C6F9C2
:1021900006A973480DF0CBF9082171480DF0F7F945
:1021A00001216F480DF0B6F801216D480DF0C1F81E
:1021B000012211466A480DF0D9F8012104200AF0E5
:1021C000BDFF0120ADF83C0018208DF83F00012034
:1021D0008DF83E000FA9634801F016FC012108208C
:1021E0000AF0ACFF4FF40070ADF83C0018208DF8F9
:1021F0003F0001208DF83E000FA95B4801F004FC70
:10220000012105200AF08AFF4FF47A700D906420B6
:102210008DF83A000020ADF838000C900BA94FF073
:1022200080400DF0CBF97020ADF818000120ADF81A
:102230001A00002008900220ADF8240006A94007EB
:102240000DF09DF80821C8060DF0CAF80121880795
:102250000DF060F8012188070DF06BF84FF47A70EB
:102260000D9004208DF83A000020ADF838000C9055
:102270000BA93E480DF0A2F97020ADF8180001201E
:10228000ADF81A0000200890ADF8240006A93748E0
:102290000DF04DF9082135480DF079F90121334849
:1022A0000DF038F8012131480DF043F801214807BD
:1022B0000AF034FF01A800F0C3FD00200190029055
:1022C00003900220049001A9002000F08DFD002061
:1022D000039001A9102000F087FD0121002000F0EB
:1022E0006FFD0121102000F06BFD4FF41B721146B1
:1022F000002000F093FD1E4890F834001C49C96C82
:1023000001EB810202EBC101124A02EB810181F86B
:102310003100174890F868001549D1F8801001EB9A
:10232000810202EBC1010B4A02EB810181F831000D
:102330000F4890F89C000E49D1F8B41001EB8102CF
:1023400018E00000A4810120A4020020703D0220BA
:10235000AC020020F40100209C020020900200202A
:102360000004004000080140000C0140000800404B
:102370002014002002EBC101504A02EB810181F8D8
:1023800031004F4890F8D8004D49C96C01EB8102EB
:1023900002EBC101494A02EB810181F83200484851
:1023A00090F8DC004649D1F8801001EB810202EB85
:1023B000C101424A02EB810181F83200404890F8A5
:1023C000E0003F49D1F8B41001EB810202EBC101FA
:1023D0003A4A02EB810181F832003A48B0F85C00D9
:1023E00000B23749C96C01EB810202EBC101334AEB
:1023F00002EB810188853348B0F8600000B23049B3
:10240000D1F8801001EB810202EBC1012B4A02EBF3
:10241000810188852B48B0F8640000B22849D1F8C2
:10242000B41001EB810202EBC101244A02EB8101ED
:102430008885234890ED100AB8EEC00A9FED221A55
:10244000C0EE010A90ED0C0AB8EEC00A80EE201A28
:10245000BDEEC10A1D4880ED000A194890ED1D0A25
:10246000B8EEC00A9FED181AC0EE010A90ED190AE5
:10247000B8EEC00A80EE201ABDEEC10A144880ED05
:10248000000A0F4890ED2A0AB8EEC00A9FED0E1A16
:10249000C0EE010A90ED260AB8EEC00A80EE201ABE
:1024A000BDEEC10A0B4880ED000A00200A49087001
:1024B0000A4908700A49087010B010BDF4010020E4
:1024C000201400200815002000247449B8020020C0
:1024D000BC020020C0020020C4020020C50200206F
:1024E000C60200200020014908607047B4020020A5
:1024F0004FF47A700149086070470000B402002070
:1025000000EB800101EBC001144A02EB810191F85C
:10251000321081F0010179B100EB800101EBC001C3
:1025200002EB8101898800EB800202EBC0020B4BB9
:1025300053F8222011610FE000EB800101EBC00194
:10254000064A02EB8101898800EB800202EBC0029F
:10255000024B53F82220516170470000F401002023
:1025600000EB800101EBC001134A02EB810191F8FD
:10257000321079B100EB800101EBC00102EB810167
:10258000898800EB800202EBC0020B4B53F822203B
:1025900011610FE000EB800101EBC001064A02EB84
:1025A0008101898800EB800202EBC002024B53F8E4
:1025B0002220516170470000F40100202DE9F04114
:1025C00004460D4640F61F406043642190FBF1F63F
:1025D00040F61F40684390FBF1F7B2B2B9B2002059
:1025E00000F01CFCBDE8F08108B5012104200AF0D0
:1025F000A5FD684601F0A0FA4FF4C050ADF8000008
:1026000010208DF8030002208DF80200694604486E
:1026100001F0FAF94FF48051014801F089FA08BD40
:10262000000801401FB50124019A91B2009801F001
:1026300081FA052010F086FC019A91B2009801F011
:1026400077FA04E0012010F07DFC601CC4B2039A0C
:1026500091B2029801F063FA08B1642CF2DB052014
:1026600010F070FC019A91B2009801F061FA1FBD60
:102670002DE9FC41044604226946204601F048F950
:10268000BDF80000BDF8021000EB0145BDF80400E4
:10269000BDF8061000EB0148B4F1006F02D94FF00D
:1026A000006001E04FF000500646A71B3946304657
:1026B0000AF06AFB00BF85F3088800BF72B6C04706
:1026C000BDE8FC8100BFFEE70146CAB20B1243EA37
:1026D0000220704770B502460C4600200021144DC0
:1026E000B5F836582BB2124DB5F83C58032D1EDD07
:1026F0000F4DB5F83458A5B100BF04E00C4D6D5C2A
:1027000055544D1C29B20A4DB5F834588D42F5DCAC
:10271000074DB5F8345828B20025054EA6F83458B0
:1027200001E04FF0FF300025014EA6F83C5870BD87
:10273000520B002030B5034600221D48B0F8340883
:1027400040F63404A04203DB0020194CA4F83408FE
:10275000002219E0985C164CB4F83448144D285502
:102760002846B0F83408401C2C46A4F8340820460B
:10277000B0F8340840F63404A04203DB00202C46B5
:10278000A4F83408501C82B20948B0F8340840F666
:102790003404A04201DA8A42DCDB0120054C2070BF
:1027A00000BF044800780028FBD1084630BD000077
:1027B000140300200400002008B50020009022E14E
:1027C0009748008800F00F00964908700846007886
:1027D00000287CD194480068944908800846008805
:1027E00000F03000924908809048008800F4405082
:1027F0008E4908808C4909684BF6BF7201EA0200D5
:1028000080F4005080F0200040F4004141F080014D
:10281000854A11608248008800F0100090BB104685
:10282000006848F60F710840114608600AF0FEF98A
:102830007D4909684BF6BF7201EA02007B490988AD
:1028400001F4805109B180F480507849098801F47D
:10285000005109B180F400507549098801F0100158
:1028600009B180F010007249098801F0200109B116
:1028700080F0200081B241F4004141F080016A4AB9
:10288000116008BDFFE76848006880B20090BDF89D
:10289000000000F40060B0B363480068C0F30E00AD
:1028A00048F68F710840604908600AF083FF5E496E
:1028B00009684BF6BF7201EA02005C49098801F41D
:1028C000805109B180F480505849098800E056E0F1
:1028D00001F4005109B180F400505549098801F014
:1028E000100109B180F010005149098801F0200160
:1028F00009B180F0200081B241F4004141F0800133
:10290000494A1160BDE7FFE7BDF8000000F4004050
:10291000002878D044480068C0F30E0048F68F7154
:102920000840414908600AF0D5FA3F4909684BF66A
:10293000BF7201EA02003D49098801F4805109B1E2
:1029400080F480503949098801F4005109B180F4BC
:1029500000503749098801F0100109B180F01000DA
:102960003349098801F0200109B180F0200081B2CB
:1029700041F4004141F080012B4A116081E7294870
:1029800000782C4901EB8000D0F8000C80B2009058
:10299000BDF8000000F40040C0B12248007801EB0F
:1029A0008000D0F8000CC0F30E0048F68F7108408C
:1029B0001C4909781F4A02EB8101C1F8000C194932
:1029C0000978491E1C4A52F821008047BDF80000D2
:1029D00000F08000B8B113480078164901EB800080
:1029E000D0F8000C48F60F7108400E490978114ADA
:1029F00002EB8101C1F8000C0A490978491E0F4A0F
:102A000052F82100804708484430006880B20449E9
:102A1000088000F4004000287FF4D2AE00BF30E709
:102A200034000020D0010020005C0040E4010020C0
:102A3000E601002000500040540000203800002033
:102A40000B4A02EB8001D1F8001C01F4804171B106
:102A500002EB8001D1F8001C48F68F7211404CF255
:102A600080021143024B03EB8002C2F8001C704746
:102A7000005000400B4A02EB8001D1F8001C01F02D
:102A8000400171B102EB8001D1F8001C48F68F7251
:102A9000114048F2C0021143024B03EB8002C2F81E
:102AA000001C704700500040084A02EB8001D1F83A
:102AB000001C48F68F62114048F280021143034B1C
:102AC00003EB8002C2F8001C704700000050004079
:102AD0002DE9F041CEB006460F46142102A8FDF7BD
:102AE000EDFBA84805682D02FF3561208DF8080030
:102AF00062208DF8090063208DF80A0031208DF8DE
:102B00000B0032208DF80C0033208DF80D0034209E
:102B10008DF80E0035208DF80F0036208DF810004E
:102B200037208DF8110038208DF812006A208DF8BA
:102B3000130061208DF8140074208DF815006C20AE
:102B40008DF8160072208DF8170000208DF81800FF
:102B500000F032F900208DF8200010200B9010902A
:102B6000002202A907A8FFF719F92D02864800687C
:102B700005442D02854800680544A846D6E90001B1
:102B80000844B1684518002419E00F2000EA2570B8
:102B90007F4908550846005D092804DC0846005DA9
:102BA0003030085508E07A48005D0A387849085501
:102BB0000846005D413008552D01601CC4B2082C48
:102BC000E3DBD6E900014840B16880EA010519E07D
:102BD0000F2000EA25706E4908550846005D092857
:102BE00004DC0846005D3030085508E06848005DA8
:102BF0000A38674908550846005D413008552D01DF
:102C0000601CC4B2102CE3DB4DA8624B102260495B
:102C1000009007A8FFF760F85E4805782D0240781D
:102C200005442D025B48807805442D025948C07840
:102C3000054459480560574805792D0240790544F7
:102C40002D025448807905442D025248C07905442C
:102C5000514845604F48057A2D02407A05442D02BF
:102C60004C48807A05442D024A48C07A05444A48B7
:102C7000856000683968884209D1474840687968AA
:102C8000884204D1444840687968884204D0434867
:102C90000088401C41490880002405E018F8040021
:102CA00002A90855601CC4B20C2CF7DB00F044FEEE
:102CB000002406E03A4911F8240036490855601C02
:102CC000C4B2102CF6DB00F077F800208DF820005D
:102CD00010200B901090002202A907A8FEF7F8FF21
:102CE0004DA82B4B10222B49009007A8FEF78EFF12
:102CF000002401E0601CC4B20A2C05DA2448005DFF
:102D00002849095D8842F5D00A2C36DA2448056C3A
:102D1000254885422CD03AF073FD214800F0B4FBE1
:102D2000002408E01B4A115D1D4A02EB840000F0FC
:102D30007DFD601CC4B2102CF4DB1C4800683860B8
:102D40001A484068786019488068B8601649144885
:102D5000803000F06BFD002407E0154901EB840092
:102D6000002100F063FD601CC4B2102CF5DB04E010
:102D700010480088401C0F49088000F0ADFC4EB0A0
:102D8000BDE8F081040300201003002000030020B0
:102D9000E4FF0220F4FF0220040003200A030020C5
:102DA00000E00308001200081294463210000320CD
:102DB00000D8030808030020012140200AF09EB932
:102DC00039B1084A1268012383401A43054B1A603F
:102DD00006E0044A1268012383409A43014B1A60BB
:102DE000704700000074004030B5002200230A4CF8
:102DF000226840F6FE748440A243D1E900452C438A
:102E00008D682C43CD6844EA050303FA00F422439D
:102E1000014C226030BD00000074004030B5002439
:102E20000023082802D142EA012401E042EA0144D9
:102E3000024B00F120052B441C6030BD00740040A3
:102E40000021016041608160C16070472DE9F04759
:102E50002848006800F110052E8826480068077A87
:102E6000DEB9042F19D124480078012810D100219F
:102E70002248006880B2801C214A126842F8101073
:102E800030202049088000BF00201B49087003E063
:102E9000072710201B49088027E0AC88A64201D8EC
:102EA000042000E002200746B44200D93446A0B214
:102EB000A96888478046002009F080FE8146A2B2BA
:102EC000494640460CF0AAFCA1B200200AF022FBC1
:102ED0002888001B288068882044688030200949A1
:102EE000088000020849088000BF024909680F7283
:102EF000BDE8F087D4010020CC010020505C0040E8
:102F0000E8010020E6010020E40100202DE9F04165
:102F10002548006800F110042688A068C0B1BEB141
:102F2000A588B54200D93546A8B2A16888470746AA
:102F30002088401B2080608828446080002009F0A1
:102F400019FE8046AAB24146384609F0EBFF00BFA1
:102F5000208818B14FF44050144908802088A18877
:102F6000884204DB032010490968087219E02088B0
:102F7000002804DD05200C490968087211E020884A
:102F800078B90620084909680872002108480068D5
:102F900080B2801C074A126842F81010302006499F
:102FA0000880BDE8F0810000D4010020E401002089
:102FB000505C0040E8010020E60100202DE9F84FB8
:102FC0009B48006845780027BA46062D1BD19848D3
:102FD0000068007800F07F00002813D19449096848
:102FE0008878012803D193490968CF690AE002284B
:102FF00003D1904909680F6A04E0032802D18D4982
:1030000009684F6A94E0002D64D1894800684088BF
:1030100000285FD186480068C08802285AD18448B9
:1030200000680079002855D181480068007800F0D8
:103030007F0028B97E480068808808B97E4F77E015
:103040007B480068007800F07F00012810D17849A3
:1030500009684879774909688A69002190470028FA
:1030600066D173480068807A002861D0724F5FE0B3
:103070006F480068007800F07F00022858D16C4843
:103080000068407900F00F0669480068407900F058
:10309000700967480068407900F0800038B16749DE
:1030A00001EB8600D0F8000C00F0300806E0634920
:1030B00001EB8600D0F8000C00F44058604800781E
:1030C000B04235D9B9F1000F32D1B8F1000F2FD08D
:1030D000594F2DE0082D07D155480068007800F0C1
:1030E0007F0028BB574F23E00A2D21D150480068AC
:1030F000007800F07F0001281AD14D480068807ADE
:10310000B0B14B480068408890B9494800680079E0
:1031100070B947480068C088012809D14449096846
:103120004879444909688A690021904700B9464FA7
:1031300057B13F480068A0F812A03D480068876179
:103140000020B84700240FE0394A12685078394A05
:103150001268116988470446032C05D109203449B7
:1031600009680872BDE8F88F31480068008A4FF698
:10317000FF71884204D109202D4909680872F1E7DE
:10318000022C03D02A480068008A20B90820284968
:1031900009680872E6E726480068007800F08000B9
:1031A000E0B323480068C088009021480068008A86
:1031B0000099884204D91E4900980968088223E0D2
:1031C0001B480068008A1A490968C98888421BDAC6
:1031D00017480068008A1749096891F82C1088423E
:1031E00003DA0020194908700EE011480068008ACF
:1031F0001049096891F82C1090FBF1F201FB1200C4
:1032000010B90120114908700A48006890F82C1084
:10321000074800688182FFF719FE07E0FFE70320F7
:1032200003490968087200030949088000BF99E74B
:10323000D4010020D801002059DA000800500040D5
:103240007C000020DDD900082DDA0008CC01002028
:10325000E40100207047000070B5002400252448D8
:10326000B0F834082249B1F83618884200D170BD50
:103270001F48B0F834081E49B1F83618884208DDF6
:103280001B48B0F834081A49B1F83618401A84B20D
:1032900006E01748B0F8360840F63401081A84B240
:1032A0001348B0F83658402C00DD40241048B0F8E0
:1032B000360820440E49A1F836080846B0F836080A
:1032C00040F63401884203DB00200949A1F83608A2
:1032D000074948192246C0210CF0A0FA21460120D6
:1032E0000AF018F901200AF045F900BFBFE7000015
:1032F0001403002010B50024032009F04DFC0F49F1
:1033000008800F49B1F834180D4A88180B490A880B
:103310004FF4887109F006FE0948B0F834080749EF
:10332000098808440649A1F8340803200AF0C6F8C1
:1033300000200349A1F83C0810BD00000600002051
:10334000520B00200149086070470000140401403E
:10335000002123498279002A3AD00A46126803687C
:103360009A430B461A600A1D126803689A430B1DA4
:103370001A60027911440A6803681A430A60184AFD
:103380000832126803689A43154B08331A601A1DF5
:10339000126803689A43124B0C331A604279102A60
:1033A0000ED11A1F126803681A430D4B08331A60B6
:1033B0001A1D126803681A43094B0C331A600DE09A
:1033C0000749427911440A6803681A430A6005E014
:1033D000027911440A6803689A430A607047000042
:1033E00000040140032001490860704704010020E7
:1033F00010B516480088C0B2FE2825D000F09CFA0F
:1034000000F0C0F8FE21114800F0E4F900BF00BF51
:1034100000BF00BF00BFBFF34F8F00BF00BF00BFA2
:103420000B48006800F4E0600A490843001D0849A1
:10343000086000BF00BF00BFBFF34F8F00BF00BFD9
:1034400000BF00BF00BFFDE710BD000010F8FF1F68
:103450000CED00E00000FA0570B504460D460426A8
:1034600000F06AFA08E0204600F00EF80646042E46
:1034700000D003E004F50064AC42F4D900BF00F0D2
:103480002BF9304670BD000030B504460425B4F178
:10349000046F24D3681F00F085FA0546042D1CD163
:1034A0003648006840F0020034499039C1F8900075
:1034B0000846C0F89440D0F8900040F040002F49F2
:1034C0000860681F00F06EFA05462C489038D0F866
:1034D000900020F0020029490860284630BD2848A5
:1034E000844221D84FF0805000F036FA0546042D72
:1034F00041D122489038006940F002001F499039BC
:10350000086108464461006940F040000861C80352
:1035100000F022FA054619489038006920F00200B0
:1035200016499039086126E01548844223D9B4F140
:10353000016F20D24FF0805000F021FA0546042D93
:1035400019D10E489038006D40F002000B499039B7
:10355000086508464465006D40F040000865C803F2
:1035600000F00DFA054605489038006D20F0020085
:103570000249903908652846B0E7000090200240D3
:10358000FFFF070830B5A525042400F099F800B125
:1035900000254FF0805000F018FA0446042C37D173
:1035A0001C481D4988601D4888600846006940F035
:1035B000200008610846006940F040000861C80327
:1035C00000F003FA0446042C1AD11348006920F0D5
:1035D0002000114908610846006940F010000861A8
:1035E0000F4805804FF4704000F0EFF90446052CB9
:1035F0000ED00948006920F010000749086107E073
:10360000052C05D00448006920F01000024908612B
:10361000204630BD2301674500200240AB89EFCD35
:1036200000F8FF1F04200B49C96801F0010109B12E
:1036300001200EE00749C96801F0040109B1022028
:1036400007E00449C96801F0100109B1032000E056
:10365000042070470020024004200B49C96C01F08F
:10366000010109B101200EE00749C96C01F0040114
:1036700009B1022007E00449C96C01F0100109B149
:10368000032000E0042070470020024004200B4982
:10369000096801F0010109B101200EE0074909683C
:1036A00001F0040109B1022007E00449096801F0B2
:1036B000100109B1032000E0042070478C20024073
:1036C00000200449C96901F0020109B1012000E0AC
:1036D00000207047002002400548006940F080004B
:1036E000034908610846006D40F080000865704796
:1036F0000020024070B504460D460426B4F1046F64
:103700001ED34FF4704000F04DF90646042E15D13B
:103710002E48006840F001002C49086025804FF4D5
:10372000704000F03FF9064628489038D0F89000E5
:1037300020F0010025499039C1F89000304670BD55
:10374000234884421DD84FF4704000F005F9064626
:10375000042E39D11D489038006940F001001B4902
:103760009039086125804FF4704000F0F5F8064666
:1037700016489038006920F001001449903908611A
:1037800022E0134884421FD9B4F1016F1CD24FF4D8
:10379000704000F0F4F80646042E15D10B4890381E
:1037A000006D40F0010009499039086525804FF40B
:1037B000704000F0E4F8064604489038006D20F0B0
:1037C00001000249903908653046B8E79020024070
:1037D000FFFF070870B505460E4604244FF47040FD
:1037E00000F0F3F80446042C17D10D480D49886009
:1037F0000D4888600846006940F0100008612E807E
:103800004FF4704000F0E1F80446052C05D005485F
:10381000006920F0100003490861204670BD0000D7
:103820002301674500200240AB89EFCD78B50446FF
:103830000D46042600200090B4F1046F1ED34FF40F
:10384000704000F0AFF80646042E15D12E480068EF
:1038500040F001002C49086025604FF4704000F0F2
:10386000A1F8064628489038D0F8900020F00100D2
:1038700025499039C1F89000304678BD23488442EC
:103880001DD84FF4704000F067F80646042E39D179
:103890001D489038006940F001001B4990390861CB
:1038A00025604FF4704000F090F8064616489038B6
:1038B000006920F0010014499039086122E01348A2
:1038C00084421FD9B4F1016F1CD24FF4704000F054
:1038D00056F80646042E15D10B489038006D40F07E
:1038E000010009499039086525604FF4704000F0E7
:1038F00046F8064604489038006D20F00100024961
:10390000903908653046B8E790200240FFFF07086D
:1039100030B503460C461546002207E003EB420093
:1039200000F007F824F81200501C82B2AA42F5DB1E
:1039300030BD01460888704704480549486005487D
:10394000486002484864034848647047230167455B
:1039500000200240AB89EFCD00B502460423FFF7FB
:1039600061FE034603E0FFF75DFE0346521E012B96
:1039700001D1002AF7D102B90523184600BD00B5D0
:1039800002460423FFF768FE034603E0FFF764FEE8
:103990000346521E012B01D1002AF7D102B905239B
:1039A000184600BD00B502460423FFF76FFE03462C
:1039B00003E0FFF76BFE0346521E012B01D1002AE4
:1039C000F7D102B90523184600BD00B5024604230D
:1039D000FFF728FE034603E0FFF724FE0346521ECE
:1039E000012B01D1002AF7D102B90523184600BDE9
:1039F00070B504460D46FFF79FFF29462046FFF7A6
:103A000079FEFFF769FE70BD2DE9F0410246002501
:103A10000026002000230024002791F803C00CF0AA
:103A20000F0591F803C00CF0100CBCF1000F03D08F
:103A300091F802C04CEA050591F800C0BCF1000FF6
:103A400031D0146800202BE04FF0010C0CFA00F389
:103A5000B1F800C00CEA03069E4220D183004FF06B
:103A60000F0C0CFA03F7BC4305FA03FC4CEA040400
:103A700091F803C0BCF1280F06D14FF0010C0CFAED
:103A800000FCC2F814C00AE091F803C0BCF1480F72
:103A900005D14FF0010C0CFA00FCC2F810C0401C1C
:103AA0000828D1D31460B1F800C0BCF1FF0F34DD99
:103AB000546800202EE000F1080C4FF0010808FACD
:103AC0000CF3B1F800C00CEA03069E4221D183003A
:103AD0004FF00F0C0CFA03F7BC4305FA03FC4CEA59
:103AE000040491F803C0BCF1280F05D100F1080CC3
:103AF00008FA0CF8C2F8148091F803C0BCF1480F22
:103B000007D100F1080C4FF0010808FA0CF8C2F8D0
:103B10001080401C0828CED35460BDE8F0810246D6
:103B2000002093680B400BB1012000E0002070479B
:103B300041617047016170474FF6FF7101800221BA
:103B400081700421C1707047002003490880012062
:103B50000249088070470000A2010020A001002057
:103B60000148008870470000A00100201020014992
:103B700008807047A001002000B5A1B000201C9073
:103B8000FC480088022808F00D8704DC50B10128A9
:103B900048F0C98708E0032808F005871028F7D106
:103BA00008F039BF08F0BFBFF348C06C10B101285E
:103BB0000CD105E0F048B0F8500080B21F9005E04D
:103BC000ED48B0F8500080B21E9000BF00BFEA4838
:103BD000D0F8800010B101280CD105E0E648B0F81B
:103BE000840080B21F9005E0E348B0F8840080B202
:103BF0001E9000BF00BFE048D0F8B40010B101280B
:103C00000CD105E0DC48B0F8B80080B21F9005E0A8
:103C1000D948B0F8B80081B21E9100BF00BF1E980D
:103C2000C1B20D911F98C1B20C91DDE90C01FEF7F4
:103C3000C5FCD24840680628C8F2B386D048008840
:103C40000F2888F2AE8600201A9003E01A98401CD4
:103C500081B21A91C94841881A98084480B2C9496A
:103C6000085C0D2806D0C54881881A98081A80B2C9
:103C70000028EBD1C14841881A98084480B2C14954
:103C8000085C0D2848F08B86BC484088085CA0384A
:103C9000082888F08386DFE810F00800A8087B1069
:103CA0008F1F21372944584659460120B6490880BC
:103CB000B248406806287CDBB4481D90AF48408875
:103CC000401C80B2AF49085CB149AD4A128851F836
:103CD0002210C864AE48AA49098850F82100C06C77
:103CE0000002AB49A64A128851F82210C864A849BC
:103CF000A348008851F82000C16CA0484088801C6F
:103D000080B2A04A105C0144A1489D4A128850F834
:103D10002200C1649E489A49098850F82100C06C6D
:103D200001029B48964A128850F82200C1649848C4
:103D30009349098850F82100C16C90484088C01C04
:103D400080B2904A105C084491498D4A128851F81B
:103D50002210C8648E498A48008851F82000C06C3F
:103D600001028B48864A128850F82200C1648849B3
:103D70008348008851F82000C16C80484088001DAD
:103D800080B2804A105C014481487D4A128850F814
:103D90002200C1649FED7F0A7D497948008851F86F
:103DA000200080ED000A9FED7B0A084674490988CF
:103DB00000E0FDE350F8210080ED010A9FED750A57
:103DC00073486F49098850F8210080ED020A6B485A
:103DD0004088801D81B2694841804068801F6749E2
:103DE00048606D48806CA8B36348806C90B36248AB
:103DF000006B059010F0DBF89FED680B53EC102B77
:103E0000CDE906019DED060B51EC100B0FF048FFBC
:103E1000CDE908019DED080B51EC100B0FF046FEAB
:103E20009FED600B53EC102BCDE90A019DED0A0BC1
:103E300051EC100B10F022F9CDE90C019DED0C0BAB
:103E400051EC100B0FF03EFE51494D4A128851F8CB
:103E5000221008605048C06CA8B34748C06F90B3A8
:103E60004548406E059010F0A2F89FED4C0B53ECC6
:103E7000102BCDE906019DED060B51EC100B0FF058
:103E80000FFFCDE908019DED080B51EC100B0FF071
:103E90000DFE9FED440B53EC102BCDE90A019DED77
:103EA0000A0B51EC100B10F0E9F8CDE90C019DED77
:103EB0000C0B51EC100B0FF005FE3549304A1288FF
:103EC00051F8221048603448006DB8B32A48D0F841
:103ED000B00098B32848D0F89800059010F067F823
:103EE0009FED2E0B53EC102BCDE906019DED060B3B
:103EF00051EC100B0FF0D4FECDE908019DED080B3D
:103F000051EC100B0FF0D2FD9FED260B53EC102B54
:103F1000CDE90A019DED0A0B51EC100B10F0AEF843
:103F2000CDE90C019DED0C0B51EC100B0FF0CAFD0F
:103F30001749134A128851F8221088600E48D0F8A9
:103F4000E40030B1012805D002282FD003285FD12A
:103F50004DE05DE00E490A48008851F8200090EDE0
:103F6000010AB1EE400A0648008851F8200080EDB1
:103F7000010A4DE0A001002020140020C0230120F0
:103F8000F6020020C0230020F8020020B201002029
:103F900094FF02200000000008150020000000002F
:103FA00000408F40000000000000F83FFA48FB4945
:103FB000098850F8210090ED000AB1EE400AF64859
:103FC000F649098850F8210080ED000AF249F348CB
:103FD000008851F8200090ED010AB1EE400A084631
:103FE000EE49098850F8210080ED010A10E0EA4806
:103FF000EA49098850F8210090ED000AB1EE400A24
:10400000E548E649098850F8210080ED000A00BF24
:1040100000BFE34890ED100AB8EEC00A8DED100A1B
:104020009DED100ADFEDDF0A80EE201A8DED101AEB
:10403000D948DA49098850F8210090ED000ADFEDEF
:10404000DA0A20EE201A9DED100AC1EE000ACDED2D
:10405000090A099810F062FBCDE90A019DED0A0BEF
:104060000CF0CEFB8DED0C0B9DED0C0B51EC100B01
:104070000FF06EFFC849C94A128851F8221008642F
:10408000C74890ED1D0AB8EEC00A8DED100A9DEDEF
:10409000100ADFEDC40A80EE201A8DED101ABE481A
:1040A000BE49098850F8210090ED010ADFEDBE0AF3
:1040B00020EE201A9DED100AC1EE000ACDED090A8E
:1040C000099810F02BFBCDE90A019DED0A0B0CF0CD
:1040D00097FB8DED0C0B9DED0C0B51EC100B0FF0C5
:1040E00037FFAD49AD4A128851F822104864AC48F8
:1040F00090ED2A0AB8EEC00A8DED100A9DED100A67
:10410000DFEDA80A80EE201A8DED101AA248A3490F
:10411000098850F8210090ED020ADFEDA30A20EE95
:10412000201A9DED100AC1EE000ACDED090A09988A
:1041300010F0F4FACDE90A019DED0A0B0CF060FBDA
:104140008DED0C0B9DED0C0B51EC100B0FF000FFE7
:104150009149924A128851F8221088648E498F48FA
:10416000008851F8200090ED000A20EE000A084671
:104170008A49098850F82100D0ED010A864987480C
:10418000008851F8200090ED011A00EE810A0846DF
:104190008249098850F82100D0ED020A7E487F4903
:1041A000098850F8210090ED021A00EE810A8DED89
:1041B000090A099810F0B2FACDE90A019DED0A0B3F
:1041C0000CF08EFB8DED0C0B9DED0C0B51EC100BE0
:1041D0000FF078FC7049714A128851F82210C860BB
:1041E000B1EE040A6C486D49098850F8210080ED51
:1041F000060A6E48406D4FF47A7190FBF1F000EEC4
:10420000100AB8EEC00A64486449098850F82100D1
:1042100080ED070AB1EE040A5F496048008851F852
:10422000200080ED080A9FED620A5C48008851F882
:10423000200080ED040A9FED5E0A5848008851F87E
:10424000200080ED050A00215348544A128850F896
:10425000220081625049514A128851F822101D985B
:10426000486300204C494D4A128851F82210488773
:1042700064204949494A128851F822100887474862
:104280000088401C81B2454801801FEDBE0A4248AB
:104290004249098850F8210080ED000A1FEDC30A49
:1042A0003D493E48008851F8200080ED010A1FED8D
:1042B000C70A08463949098850F8210080ED020AEA
:1042C0003A48806C58B13648806C40B1B2EE040A6E
:1042D00031493248008851F8200080ED000A334807
:1042E000C06C58B12E48C06F40B1B2EE040A2A49E2
:1042F0002A48008851F8200080ED010A2B48006D03
:1043000060B12748D0F8B00040B1B2EE040A2248AC
:104310002249098850F8210080ED020A2048D0F88F
:10432000E40030B1012805D0022814D0032851D16F
:1043300040E04FE018491948008851F8200090EDFE
:10434000010AB1EE400A08461449098850F82100D4
:1043500080ED010A3EE010481049098850F821001C
:1043600090ED000AB1EE400A0B480C49098850F85C
:10437000210080ED000A08480849098850F821000A
:1043800090ED010AB1EE400A03490448008851F853
:10439000200080ED010A1DE094FF0220F6020020BB
:1043A000201400200024744900007A4408150020DD
:1043B00000009644FD49FE48008851F8200090ED29
:1043C000000AB1EE400AFA48008851F8200080ED5A
:1043D000000A00BF00BFF74890ED100AB8EEC00A0F
:1043E0008DED100A9DED100A5FED120A80EE201A85
:1043F0008DED101AED48EE49098850F8210090ED36
:10440000000A5FED170A20EE201A9DED100AC1EE9A
:10441000000ACDED090A099810F080F9CDE90A01EA
:104420009DED0A0B0CF0ECF98DED0C0B9DED0C0BDA
:1044300051EC100B0FF08CFDDC49DD4A128851F86D
:1044400022100864DB4890ED1D0AB8EEC00A8DED1D
:10445000100A9DED100A5FED2D0A80EE201A8DEDF9
:10446000101AD249D248008851F8200090ED010A74
:104470005FED330A20EE201A9DED100AC1EE000A0E
:10448000CDED090A099810F049F9CDE90A019DED31
:104490000A0B0CF0B5F98DED0C0B9DED0C0B51ECEE
:1044A000100B0FF055FDC149C14A128851F8221076
:1044B0004864C04890ED2A0AB8EEC00A8DED100A93
:1044C0009DED100A5FED490A80EE201A8DED101A5D
:1044D000B648B749098850F8210090ED020A5FED0F
:1044E0004E0A20EE201A9DED100AC1EE000ACDED15
:1044F000090A099810F012F9CDE90A019DED0A0B9D
:104500000CF07EF98DED0C0B9DED0C0B51EC100BAE
:104510000FF01EFDA549A64A128851F822108864A2
:10452000A248A349098850F8210090ED000A20EE26
:10453000000A9E489E49098850F82100D0ED010AE2
:104540009A489B49098850F8210090ED011A00EE25
:10455000810A96489649098850F82100D0ED020A50
:1045600092489349098850F8210090ED021A00EE14
:10457000810A8DED090A099810F0D0F8CDE90A01F9
:104580009DED0A0B0CF0ACF98DED0C0B9DED0C0BB9
:1045900051EC100B0FF096FA8449854A128851F8B5
:1045A0002210C860B1EE040A80488149098800E001
:1045B000FEE350F8210080ED060A7F48416D4FF47C
:1045C0007A7091FBF0F000EE100AB8EEC00A77495D
:1045D0007748008851F8200080ED070AB1EE040A00
:1045E00008467349098850F8210080ED080A1FED3C
:1045F000900A6E486E49098850F8210080ED040A3F
:104600001FED950A69486A49098850F8210080ED34
:10461000050A00206549664A128851F8221088620E
:104620006249634A128851F822101D98486300209D
:104630005E495F4A128851F82210488764215B481E
:104640005B4A128850F82200018759480088401CB4
:10465000574908809FED590A5448098850F82100AD
:1046600080ED000A9FED550A50495148008851F8E5
:10467000200080ED010A9FED510A08464C49098847
:1046800050F8210080ED020A4B48806C58B149482F
:10469000806C40B19FED4A0A44484549098850F86A
:1046A000210080ED000A4448C06C58B14148C06FF9
:1046B00040B19FED430A3D493D48008851F8200034
:1046C00080ED010A3C48006D60B13A48D0F8B00076
:1046D00040B19FED3B0A35483549098850F8210023
:1046E00080ED020A3348D0F8E40030B1012805D04B
:1046F000022813D0032843D131E041E02B492C4854
:10470000008851F8200090ED010AB1EE400A2848D7
:10471000008851F8200080ED010A31E02348244947
:10472000098850F8210090ED000AB1EE400A1F48B8
:104730001F49098850F8210080ED000A1B481C49D8
:10474000098850F8210090ED010AB1EE400A17499E
:104750001748008851F8200080ED010A10E0134846
:104760001349098850F8210090ED000AB1EE400A83
:104770000E480F49098850F8210080ED000A00BF5B
:1047800000BF0C4890ED100AB8EEC00A8DED100A7B
:104790009DED100A5FEDFD0A80EE201A8DED101AD6
:1047A00002480349098850F821000BE094FF0220D9
:1047B000F602002020140020081500200000000050
:1047C000000048C390ED000ADFEDFE0A20EE201A3B
:1047D0009DED100AC1EE000ACDED090A09980FF00F
:1047E0009DFFCDE90A019DED0A0B0CF009F88DED56
:1047F0000C0B9DED0C0B51EC100B0FF0A9FBF249CB
:10480000F24A128851F822100864F14890ED1D0A0E
:10481000B8EEC00A8DED100A9DED100ADFEDED0A2D
:1048200080EE201A8DED101AE749E848008851F80B
:10483000200090ED010ADFEDE30A20EE201A9DED45
:10484000100AC1EE000ACDED090A09980FF066FFC3
:10485000CDE90A019DED0A0B0BF0D2FF8DED0C0B9B
:104860009DED0C0B51EC100B0FF072FBD649D74AA3
:10487000128851F822104864D54890ED2A0AB8EE03
:10488000C00A8DED100A9DED100ADFEDD20A80EE10
:10489000201A8DED101ACC48CC49098850F8210017
:1048A00090ED020ADFEDC70A20EE201A9DED100AF6
:1048B000C1EE000ACDED090A09980FF02FFFCDE9EE
:1048C0000A019DED0A0B0BF09BFF8DED0C0B9DED8E
:1048D0000C0B51EC100B0FF03BFBBB49BB4A128891
:1048E00051F822108864B848B849098850F8210066
:1048F00090ED000A20EE000AB348B449098850F848
:104900002100D0ED010AB048B049098850F82100D3
:1049100090ED011A00EE810AAB49AC48008851F8CD
:104920002000D0ED020A0846A849098850F8210065
:1049300090ED021A00EE810A8DED090A09980FF038
:10494000EDFECDE90A019DED0A0B0BF0C9FF8DEDDF
:104950000C0B9DED0C0B51EC100B0FF0B3F89A49BA
:104960009A4A128851F82210C860B1EE040A96489B
:104970009649098850F8210080ED060AB1EE040A34
:1049800091499248008851F8200080ED070AB1EE65
:10499000040A08468D49098850F8210080ED080A6C
:1049A0009FED8D0A88498948008851F8200080EDE4
:1049B000040A9FED890A08468449098850F82100B5
:1049C00080ED050A00208049804A128851F82210A3
:1049D00088627D497D4A128851F822101D984863EB
:1049E00000207949794A128851F8221048876420BA
:1049F0007549764A128851F8221008877348008852
:104A0000401C724908807548806C88B17048806C81
:104A100070B16F4890ED0F0AF8EEC00A9FED690A79
:104A200080EE801A6848098850F8210080ED001A4D
:104A30006A48C06C90B16648C06F78B1644890ED28
:104A40001C0AB8EEC00ADFED5F0A80EE201A5E494C
:104A50005E48008851F8200080ED011A5F48006D23
:104A600098B15B48D0F8B00078B1594890ED290A68
:104A7000F8EEC00A9FED530A80EE801A524853495F
:104A8000098850F8210080ED021A5148D0F8E4005E
:104A900030B1012805D0022814D0032844D132E0D7
:104AA00042E049484949098850F8210090ED010A3F
:104AB000B1EE400A44484549098850F8210080ED8C
:104AC000010A31E040484149098850F8210090ED41
:104AD000000AB1EE400A3C483C49098850F82100E0
:104AE00080ED000A38483949098850F8210090EDD6
:104AF000010AB1EE400A34483449098850F82100CF
:104B000080ED010A10E030483049098850F8210052
:104B100090ED000AB1EE400A2B492C48008851F86C
:104B2000200080ED000A00BF00BF294890ED100A68
:104B3000B8EEC00A8DED100A9DED100ADFED250AD2
:104B400080EE201A8DED101A1F492048008851F878
:104B50002000D0ED000A9FED1B0A20EE801A9DED8B
:104B6000100AC1EE000ACDED090A09980FF0D6FD32
:104B7000CDE90A019DED0A0B0BF042FE8DED0C0B09
:104B80009DED0C0B51EC100B0FF0E2F90E490F4AA2
:104B9000128851F8221008640D4890ED1D0AB8EEF5
:104BA000C00A8DED100A9DED100ADFED0A0A80EEB5
:104BB000201A8DED101A04490448008851F820008D
:104BC0000EE0000000007A4494FF0220F60200206C
:104BD0002014002000247449000096440815002089
:104BE00090ED010A5FED090A20EE201A9DED100AF2
:104BF000C1EE000ACDED090A09980FF08FFDCDE94D
:104C00000A019DED0A0B0BF0FBFD8DED0C0B9DEDEC
:104C10000C0B51EC100B0FF09BF9FE49FE4A128869
:104C200051F822104864FD4890ED2A0AB8EEC00AF7
:104C30008DED100A9DED100A5FED1A0A80EE201A24
:104C40008DED101AF348F449098850F8210090EDD1
:104C5000020A5FED240A20EE201A9DED100AC1EE33
:104C6000000ACDED090A09980FF058FDCDE90A01B7
:104C70009DED0A0B0BF0C4FD8DED0C0B9DED0C0BA7
:104C800051EC100B0FF064F9E249E34A128851F835
:104C900022108864DF48E049098850F8210090ED2F
:104CA000000A20EE000ADB48DB49098850F82100A1
:104CB000D0ED010AD748D849098850F8210090ED75
:104CC000011A00EE810AD349D348008851F8200028
:104CD000D0ED020AD048008851F8200090ED021A69
:104CE00000EE810A8DED090A09980FF017FDCDE954
:104CF0000A019DED0A0B0BF0F3FD8DED0C0B9DED04
:104D00000C0B51EC100B0EF0DDFEC249C24A1288AA
:104D100051F82210C860B1EE040ABE48BE490988A5
:104D200050F8210080ED060ABD48416D4FF47A70BD
:104D300091FBF0F000EE100AB8EEC00AB549B64893
:104D4000008851F8200080ED070AB1EE040AB2484D
:104D5000008851F8200080ED080A1FED610AAE4876
:104D6000008851F8200080ED040A1FED650AAA486A
:104D7000008851F8200080ED050A0020A64A12881C
:104D800051F822108862A349A34A128851F82210D0
:104D90001D98486300209F499F4A128851F82210AD
:104DA000488764219B489C4A128850F8220000E002
:104DB00019E0018798480088401C81B2964801801C
:104DC0000021984801600020974908600021974819
:104DD000016000209649086096490860964908607D
:104DE00003209649088007F0D9BD0121944801802D
:104DF00000200E9093484088401C80B29249085C85
:104E00008449854A128851F82210C8648148824931
:104E1000098850F82100C06C00027E497E4A128841
:104E200051F82210C8647B497B48008851F8200063
:104E3000C16C84484088801C80B2834A105C0A1888
:104E400074497548008851F82000C264724800888F
:104E500051F82000C06C00026F4A128851F82210ED
:104E6000C8646C496C48008851F82000C16C7548D2
:104E70004088C01C80B2744A105C08446549664A88
:104E8000128851F82210C86462496348008851F8BA
:104E90002000C06C0002604A128851F82210C864D9
:104EA0005C485D49098850F82100C16C654840881C
:104EB000001D80B2644A105C08445649564A128864
:104EC00051F82210C8645F484088401D81B25D4897
:104ED00041804068401F5B4948600E98411D0E911B
:104EE0005A491D919FED5A0A4A494B48008851F88A
:104EF000200080ED000A9FED560A084646490988C1
:104F000050F8210080ED010A9FED510A41484249C5
:104F1000098850F8210080ED020A01201B9000BF93
:104F200048484088401C81B24748415C1C911C980D
:104F300001021C9143484088801C80B24249095CB0
:104F40001C9801441C911C9801021C913D4840880A
:104F5000C01C80B23C49095C1C9801441C911C98FF
:104F600001021C9137484088001D81B23648415CDF
:104F70001C9801441C91334840883349085C5728E9
:104F800068D006DC0D2866D055287DD056287CD107
:104F900026E2582804D0592878D05A28F7D12CE195
:104FA00028484068052872DB1C4890ED100AB8EECE
:104FB000C00A8DED100A9DED100A5FEDFA0A80EE31
:104FC000201A8DED101A9DED1C0AB8EEC01A9DED49
:104FD000100AC1EE000ACDED090A09980FF09EFBF8
:104FE000CDE90A019DED0A0B0BF00AFC8DED0C0BCF
:104FF0009DED0C0B51EC100B0EF0AAFF0549064A73
:10500000128851F82210086402480349098850F8B0
:10501000210021E094FF0220F6020020201400204D
:1050200008150020A4010020A8010020AC010020E8
:10503000B4010020B8010020BC010020A001002024
:10504000F8020020C0230120C0230020B20100206C
:10505000000000004CE2BEE2006CFE490968401A04
:10506000FD49FE4A128851F822100864FA48FB49AB
:10507000098850F82100006CF64909680844F54990
:105080000860F548F54903E037E1B9E233E031E083
:10509000098850F8210090ED100AF8EEC00A9DED45
:1050A000100A20EE800AEC48EC49098850F82100EB
:1050B00080ED000AE848E949098850F8210090EDA0
:1050C000000ADFEDE70A80EE201AE349E348008892
:1050D00051F8200080ED001AE2484088401D81B25E
:1050E000E04841804068401FDE4948600E98401DFE
:1050F00081B20E9185E2DB48406805287CDBDA4806
:1051000090ED1D0AB8EEC00A8DED100A9DED100A53
:10511000DFEDD60A80EE201A8DED101A9DED1C0AE7
:10512000B8EEC01A9DED100AC1EE000ACDED090AD5
:1051300009980FF0F3FACDE90A019DED0A0B0BF087
:105140005FFB8DED0C0B9DED0C0B51EC100B0EF07D
:10515000FFFEC149C14A128851F822104864BE4876
:10516000BE49098850F82100416CC1480068091AFD
:10517000B948BA4A128850F822004164B649B74883
:10518000008851F82000406CB94909680844B849C2
:105190000860B148B149098850F8210090ED110A22
:1051A000F8EEC00A9DED100A20EE800AAA48AB492D
:1051B000098850F8210080ED010AA749A748008816
:1051C00051F8200090ED010ADFEDA50A80EE201ACB
:1051D000A248008851F8200080ED011AA1484088BB
:1051E000401D81B29F4841804068401F9D494860F2
:1051F0000E98401D81B20E9103E29A48406805283E
:105200007ADB994890ED2A0AB8EEC00A8DED100AB3
:105210009DED100ADFED950A80EE201A8DED101A33
:105220009DED1C0AB8EEC01A9DED100AC1EE000AF1
:10523000CDED090A09980FF071FACDE90A019DED4B
:105240000A0B0BF0DDFA8DED0C0B9DED0C0B51EC08
:10525000100B0EF07DFE8049804A128851F8221012
:1052600088647D487D49098850F82100806C814917
:105270000968401A7849794A128851F822108864DE
:1052800075497648008851F82000806C7949096892
:1052900001447848016070497048008851F8200046
:1052A00090ED120AF8EEC00A9DED100A20EE800A79
:1052B0006A48008851F8200080ED020A674800889B
:1052C00051F8200090ED020ADFED650A80EE201A09
:1052D0006248008851F8200080ED021A6148408839
:1052E000401D81B25F4841804068401F5D49486071
:1052F0000E98401D81B20E9183E15A4840680528FE
:105300006DDB594890ED100AB8EEC00A8DED100A19
:105310009DED100ADFED550A80EE201A8DED101A72
:105320009DED1C0AB8EEC01A9DED100AC1EE000AF0
:10533000CDED090A09980FF0F1F9CDE90A019DEDCB
:105340000A0B0BF05DFA8DED0C0B9DED0C0B51EC87
:10535000100B0EF0FDFD4049404A128851F8221012
:1053600008643D493D48008851F82000016C3948E7
:10537000006808443749086037483849098850F8B8
:10538000210090ED100AF8EEC00A9DED100A20EE03
:10539000800A31493148008851F8200080ED000A28
:1053A0002E48008851F8200090ED000ADFED2C0A0D
:1053B00080EE201A08462949098850F8210080ED1E
:1053C000001A28484088401D81B226484180406824
:1053D000401F244948600E98401D81B20E9110E193
:1053E0002048406805287DDB1F4890ED1D0AB8EE77
:1053F000C00A8DED100A9DED100ADFED1C0A80EE4B
:10540000201A8DED101A9DED1C0AB8EEC01A9DED04
:10541000100AC1EE000ACDED090A09980FF07EF9D5
:10542000CDE90A019DED0A0B0BF0EAF98DED0C0BAD
:105430009DED0C0B51EC100B0EF08AFD064A07494E
:10544000098852F82110486411460448008851F830
:10545000200011E0A401002094FF0220F6020020A9
:1054600000007A44C0230120201400200024744945
:10547000A8010020AC010020416CFD4800680144F7
:10548000FB4801601146FB48008851F8200090ED70
:10549000110AF8EEC00A9DED100A20EE800AF548C8
:1054A000008851F8200080ED010A0846F14909887A
:1054B00050F8210090ED010A5FED170A80EE201AE6
:1054C0001046EC49098850F8210080ED011AEA489D
:1054D0004088401D81B2E84841804068401FE6494D
:1054E000486000E003E00E98401D81B20E9188E014
:1054F000E148406805286DDBE04890ED2A0AB8EEE7
:10550000C00A8DED100A9DED100A5FED280A80EEAD
:10551000201A8DED101A9DED1C0AB8EEC01A9DEDF3
:10552000100AC1EE000ACDED090A09980FF0F6F84D
:10553000CDE90A019DED0A0B0BF062F98DED0C0B24
:105540009DED0C0B51EC100B0EF002FDCC49C94A3D
:10555000128851F822108864C948C649098850F851
:105560002100806CC74909680144C6480160C448ED
:10557000C049098850F8210090ED120AF8EEC00ADF
:105580009DED100A20EE800ABD48BA49098850F8FE
:10559000210080ED020ABA49B648008851F820007F
:1055A00090ED020A5FED520A80EE201AB1480088A1
:1055B00051F8200080ED021AAF484088401D81B2AA
:1055C000AD4841804068401FAB4948600E98401D7F
:1055D00081B20E9115E0A848406801280FDBA6486B
:1055E0004088401C81B2A44841804068401EA249C6
:1055F00048600E98401C81B20E9100211B9100E082
:1056000000BF00BF1B9838B19F48008820B19E485A
:10561000008810287FF484AC1B98002870D198482B
:105620009449098850F8210090ED000A20EE000A04
:1056300093489049098850F82100D0ED010A90491B
:105640008C48008851F8200090ED011A00EE810A84
:1056500008468849098850F82100D0ED020A884997
:105660008448008851F8200090ED021A00EE810A6B
:105670008DED090A09980FF051F8CDE90A019DED69
:105680000A0B0BF02DF98DED0C0B9DED0C0B51EC75
:10569000100B0EF017FA7A49764A128851F8221048
:1056A000C86077497348008851F8200090ED030ADC
:1056B000F0EE000AB4EEE00AF1EE10FA21DD7348D4
:1056C00000694FF47A7190FBF1F000EE100AB8EE29
:1056D000C00A6B496748008851F8200080ED060A2F
:1056E0006A4890ED020AB8EEC00A5FEDA30A80EEA8
:1056F000201A6048008851F8200080ED071A1EE04B
:1057000044E3624801694FF47A7091FBF0F000EED7
:10571000100AB8EEC00A5A495648008851F82000CD
:1057200080ED060A5348008851F8200090ED060AE3
:1057300008465049098850F8210080ED070A53486F
:1057400090ED030AB8EEC00A5FEDBB0A80EE201AA6
:105750004B484849098850F8210080ED041A4B480D
:1057600090ED030AB8EEC00A5FEDC30A80EE201A7E
:1057700043494048008851F8200080ED051A3D4813
:10578000008851F8200090ED000AB5EEC00AF1EE55
:1057900010FA7DD008463749098850F8210090ED6D
:1057A000000A5FEDD10A20EE200ABDEEC00A8DEDA1
:1057B0000D0A0D98002801DB0D9801E00D9840427C
:1057C00000EE100AB8EEC00A2D482A49098850F8A0
:1057D0002100D0ED030A80EE801A8DED101A2848C2
:1057E0002449098850F82100D0ED060A234890ED9D
:1057F000150AB8EEC01A9DED100A21EE000AF4EE6B
:10580000C00AF1EE10FA07D21D481A49098850F86B
:10581000210090ED060A08E0184890ED150AF8EE10
:10582000C00A9DED100A20EE800A1548114909882A
:1058300050F8210080ED060A11490E48008851F801
:105840002000D0ED070A0D4890ED160AB8EEC01AF8
:105850009DED100A21EE000AF4EEC00AF1EE10FAF6
:1058600017D20448008851F8200090ED070A19E08B
:10587000A8010020F6020020C023012020140020EF
:1058800094FF0220AC010020A00100200815002098
:1058900069E0FD4890ED160AF8EEC00A9DED100A89
:1058A00020EE800AF948FA49098850F8210080ED75
:1058B000070AF648F649098850F82100D0ED040A95
:1058C000F14890ED170AB8EEC01A9DED100A21EECE
:1058D000000AF4EEC00AF1EE10FA07D2EB48EC49E8
:1058E000098850F8210090ED040A08E0E64890EDA0
:1058F000170AF8EEC00A9DED100A20EE800AE34870
:10590000E349098850F8210080ED040ADF48E049A6
:10591000098850F82100D0ED040ADB4890ED170A01
:10592000B8EEC01A9DED100A21EE000AF4EEC00A8E
:10593000F1EE10FA07D2D549D548008851F8200079
:1059400090ED040A08E0D04890ED170AF8EEC00A7E
:105950009DED100A20EE800ACC49CD48008851F810
:10596000200080ED050AC948C949098850F821007E
:1059700090ED010AB5EEC00AF1EE10FA7DD0C348F1
:10598000C349098850F8210090ED010ADFEDC10AF2
:1059900020EE200ABDEEC00A8DED0D0A0D980028FC
:1059A00001DB0D9801E00D98404200EE100AB8EEC0
:1059B000C00AB649B648008851F82000D0ED030A65
:1059C00080EE801A8DED101A0846B149098850F80A
:1059D0002100D0ED060AAC4890ED220AB8EEC01ABC
:1059E0009DED100A21EE000AF4EEC00AF1EE10FA65
:1059F00007D2A649A648008851F8200090ED060A73
:105A000008E0A14890ED220AF8EEC00A9DED100AC8
:105A100020EE800A9D489E49098850F8210080EDBB
:105A2000060A9A489A49098850F82100D0ED070AD9
:105A3000954890ED230AB8EEC01A9DED100A21EEAC
:105A4000000AF4EEC00AF1EE10FA07D28F4890492E
:105A5000098850F8210090ED070A08E08A4890ED87
:105A6000230AF8EEC00A9DED100A20EE800A87484E
:105A70008749098850F8210000E05BE080ED070AC3
:105A800082498348008851F82000D0ED040A7E48FE
:105A900090ED240AB8EEC01A9DED100A21EE000A1E
:105AA000F4EEC00AF1EE10FA07D2084678490988E8
:105AB00050F8210090ED040A08E0734890ED240AA4
:105AC000F8EEC00A9DED100A20EE800A6F4970487A
:105AD000008851F8200080ED040A08466C490988C6
