:020000040803EF
:10C00000300C002015C903088DC203088FC2030835
:10C0100091C2030893C2030895C203080000000000
:10C0200000000000000000000000000097C20308AC
:10C0300099C20308000000009BC203089DC20308C8
:10C040002FC903082FC903082FC903082FC90308E4
:10C050002FC903082FC903082FC903082FC90308D4
:10C060002FC903082FC903082FC903082FC90308C4
:10C070002FC903082FC903082FC903082FC90308B4
:10C080002FC903082FC903082FC903082FC90308A4
:10C090002FC903082FC903082FC903082FC9030894
:10C0A0002FC903082FC903082FC903082FC9030884
:10C0B0002FC903082FC903082FC903082FC9030874
:10C0C0002FC903082FC903082FC903082FC9030864
:10C0D0002FC903082FC903082FC903082FC9030854
:10C0E0002FC903082FC903082FC903082FC9030844
:10C0F0002FC903082FC903082FC903082FC9030834
:10C100002FC903082FC903082FC903082FC9030823
:10C110002FC903082FC903082FC903082FC9030813
:10C120002FC903082FC903082FC903082FC9030803
:10C130002FC903082FC903082FC903082FC90308F3
:10C1400000000000000000000000000000000000EF
:10C150002FC903082FC903082FC903082FC90308D3
:10C160002FC903082FC903082FC903082FC90308C3
:10C170002FC903082FC903082FC90308DFF80CD003
:10C1800001F082FD00480047B1C10308300C0020D7
:10C19000012080F31388BFF34F8F34480168344A7D
:10C1A00001F4E06111430160BFF34F8F00BFFDE771
:10C1B0001CB572B601211C2000F00EFDF02000F02D
:10C1C0005BFA2D4D2B4A0423C5E900230820C5E95D
:10C1D0000220CDE90020032128A000F0DFF94FF074
:10C1E00000662749304600F081FA0024B146DFF8A6
:10C1F00090A07714234E0AF1010A4FF03C0B4FF048
:10C200000A0800BF0AEBC4203A461F4900F0AAFA08
:10C2100009EBC4203A461C4900F08AFA64206043C6
:10C2200090FBFBF0642190FBF1F13031317041461D
:10C2300090FBF1F292FBF1F308FB132230327270A3
:10C2400090FBF8F208FB12003030B070D5E9020123
:10C25000CDE90001D5E9002303210A4800F09EF949
:10C26000641C3C2CCEDBFFF793FF00000CED00E0DC
:10C270000400FA050008014020080020462D2D008A
:10C28000FFDF010800000020200000207047FEE7CB
:10C29000FEE7FEE7FEE77047704770477047000013
:10C2A0002DE9F8438FB20546ADF8007010208DF8E7
:10C2B00003004FF0010814461E468DF80280284600
:10C2C000694600F093FDB6B2ADF8006014208DF819
:10C2D00003008DF802802046694600F087FD28465D
:10C2E000394600F0F0FD2046314600F0ECFD052017
:10C2F00000F0E7F92046314600F0E7FDBDE8F8839D
:10C300002DE9F0410E46174698460446012589B2AC
:10C3100000F0D9FD052000F0D4F9B1B2204600F0BC
:10C32000D4FD04E0012000F0CCF96D1CEDB21FFA41
:10C3300088F1384600F0B3FD08B1642DF2D3052032
:10C3400000F0BFF9B1B22046BDE8F04100F0BDBD3C
:10C3500070B514461D4689B200F0B5FDA9B220465D
:10C3600000F0B3FD052000F0ACF9A9B22046BDE80D
:10C37000704000F0A8BD2DE9F0470C460746164670
:10C38000984691B22046DDF8209000F09EFD0120F5
:10C3900000F097F9002538061FFA89F1404602D5CA
:10C3A00000F091FD01E000F090FD7806070EB1B2BB
:10C3B000204600F08AFD052000F083F9B1B2204646
:10C3C00000F081FD052000F07CF9B1B2204600F0BC
:10C3D0007CFD6D1CEDB2082DDDD3BDE8F0872DE9A5
:10C3E000F84305460F4691469846FFF759FF4B46DE
:10C3F0003A4629464920CDF80080FFF7BCFF434666
:10C400004A4639462846FFF77BFF0026012000F008
:10C4100058F9B9B2284600F056FD012000F051F954
:10C420006006040E1FFA88F1484600F038FD08B196
:10C43000641CE4B2012000F044F9B9B2284600F0CF
:10C4400044FD761CF6B2082EE0D343464A463946F0
:10C450002846FFF755FF43464A4639462846FFF728
:10C4600077FF20464AE72DE9F8431746DDE90854EF
:10C4700098468946064623462A4641463846FFF7EF
:10C480000FFF2B464246394630460094FFF773FFB4
:10C4900023462A4641463846FFF732FF2B4642469E
:10C4A000394648460094FFF766FF23462A46414630
:10C4B0003846FFF725FF01B023462A464146384655
:10C4C000BDE8F04344E72DE9FC411746DDE9085695
:10C4D00098460022664C2FE0A3F1300C401CBCF1C2
:10C4E000090F05D8DFF88CC1634413F8303C18E01D
:10C4F000462B0FD006DC2D2B10D02E2B13D0452B26
:10C5000004D105E0502B07D05F2B09D0002308E0B1
:10C51000792306E0712304E0732302E0402300E066
:10C520000823A35406E02AB1521ED2B2A35C43F002
:10C530008003F6E7521CD2B203780BB1032ACBD3A7
:10C54000E370012000EB0110CDE90056C1B2434673
:10C550003A464820FFF787FFCDE90056E178434689
:10C560003A466820FFF77FFFCDE90056A1784346A1
:10C570003A466A20FFF777FFCDE9005661784346D7
:10C580003A466C20FFF76FFFCDE90056217843460D
:10C590003A466E20FFF767FFBDE8FC812DE9FC41BC
:10C5A0001746DDE9085698460022314C30E000BFBE
:10C5B000A3F1300C401CBCF1090F05D8DFF8B4C062
:10C5C000634413F8303C18E0462B0FD006DC2D2BCB
:10C5D00012D02E2B13D0452B04D105E0502B07D0C1
:10C5E000532B07D0002308E0792306E0712304E0F1
:10C5F000732302E06D2300E04023A35406E02AB138
:10C60000521ED2B2A35C43F08003F6E7521CD2B2B2
:10C6100003780BB1032ACBD3012000EB0110CDE945
:10C620000056C1B243463A464820FFF71CFFCDE909
:10C630000056E17843463A466820FFF714FFCDE9FB
:10C640000056A17843463A466A20FFF70CFFCDE931
:10C650000056617843463A466C20FFF704FFCDE967
:10C660000056217843463A466E20FFF7FCFE93E7DA
:10C6700004000020CADC03084FF0E0210A6922F020
:10C6800004020A611849C00800EB40020870C2EBBE
:10C69000C0104FF6FF7202EAC0004880704712498E
:10C6A000498848434FF0E021486100208861012219
:10C6B0000A610A69D30701D0D203FAD508618861FB
:10C6C00070470949097848434FF0E021486100204C
:10C6D000886101220A610A69D30701D0D203FAD521
:10C6E00008618861704700000800002070B50E46A0
:10C6F0000446042500F046FE07E0204600F0E4FE74
:10C700000546042803D104F50064B442F5D900F0CD
:10C7100054FE284670BD70B50C46054600F032FE4A
:10C720002146284601F04DF8BDE8704000F045BEB6
:10C730002DE9F04116460D46074600F023FE002481
:10C7400008E000BF35F8021B07EB440001F039F8A0
:10C75000641CA4B2B442F5D3BDE8F04100F02DBE94
:10C760000088704710B5002306E000BF30F8134082
:10C7700021F813405B1C9BB29342F7D310BD00001D
:10C780001CB50020584C01900090216841F4803184
:10C7900021604FF44052216801F400310091019969
:10C7A000491C0191009911B901999142F3D1216875
:10C7B000890337D50120009060686060606820F4CC
:10C7C00060506060606840F400506060606820F411
:10C7D000E0606060606840F4806060606068434969
:10C7E000084060606068424908436060206840F02B
:10C7F0008070206020688001FCD5012000F059FA8B
:10C80000606820F003006060606840F002006060D3
:10C810006068C0F381000228FAD1BDE81C40002006
:10C8200000F047BA00901CBD324810B5016841F4D1
:10C83000700101602C48016841F00101016041680C
:10C840002D4A1140416001682C4A11400160016885
:10C8500021F4802101604168294A11404160016B47
:10C86000284A114001634FF41F018160FFF788FFE0
:10C8700020494FF000608039086010BD30B51A4A79
:10C880005068214910F00C03204803D0042B01D03C
:10C89000082B0AD0016051681C4AC1F30311121D14
:10C8A000515C0268CA40026030BD516801F48033B7
:10C8B000516811F0C04F05D1C1F383440F2C01D052
:10C8C000022500E00125302404EA5164C1F38341CC
:10C8D0000C43291913B153689B0301D50C4B00E09D
:10C8E000094B5943D6E7000000100240FFFFC01F6C
:10C8F000000035A088ED00E00C00FFE8FFFFF6FE29
:10C90000FFFF001700FFFEFE00127A000C0000205F
:10C9100000093D000648804706480047FEE7FEE75D
:10C92000FEE7FEE7FEE7FEE7FEE7FEE7FEE7FEE7DF
:10C9300029C803087DC10308F748016841F00101D7
:10C9400001604168F54A114041600168F44A1140B4
:10C950000160016821F4802101604168EF4AD243FF
:10C96000114041604FF41F018160016BED4A11409D
:10C9700001637047E8490A6822F480320A600A6855
:10C9800022F480220A60B0F5803F07D0B0F5802FF6
:10C9900003D1086840F4A02008607047086840F49C
:10C9A0008030F9E7024600205309DB49012B0BD008
:10C9B000022B0BD0D1F8241002F01F020123934068
:10C9C0000B4200D0012070470968F5E7096AF3E7D8
:10C9D00018B500204FF4405400903120FFF7E2FFDB
:10C9E0000099491C0091A14201D00028F5D041F2E4
:10C9F00088310120401C8842FCD33120FFF7D2FF50
:10CA0000002800D0012018BDC3490A6822F0FE02A8
:10CA100042EA800008607047BF495A2281F83020FE
:10CA20000A6822F47F4242EA00200860002081F870
:10CA300030007047BC490860704730B5B64C636839
:10CA4000BA4D08432B4010431843606030BDB649CF
:10CA500008667047B04A516821F0030101435160F4
:10CA60007047AD48406800F00C007047AA4A516812
:10CA700021F0F001014351607047A74A516821F449
:10CA8000E061014351607047A3494A6822F4605253
:10CA900042EAC000486070479F4A0029517A01D09D
:10CAA000014300E08143517270479B4A516821F075
:10CAB0000C61014351607047974A51689C4B194083
:10CAC0000143516070479449002281F8202081F889
:10CAD0002020012802D0042802D1052081F820005E
:10CAE00070479449086070478B490A6A02430A629A
:10CAF0007047904944390860704730B586494A68A4
:10CB000012F00C038C4A2AD0042B28D0082B26D1F3
:10CB10004A6802F480334A68884C224012F0C04FC1
:10CB200005D1C2F383440F2C01D0022500E001257A
:10CB3000302404EA5264C2F3834214432A1913B125
:10CB40004B689B0301D57E4B00E07B4B5A43026050
:10CB50004A68002A04DB7B4A0368934200D90260DA
:10CB60004A684B68C2F302121C06774B01D59C5CE5
:10CB700000E000240268E24042604C684D68C4F363
:10CB800001246D0501D51C5D00E0002422FA04F4A7
:10CB900084604C684D68C4F3C124AD0401D51B5DAD
:10CBA00000E00023DA40C2604B684968C3F3813378
:10CBB000C90001D543F0040363490831C95CB2FBE5
:10CBC000F1F1016130BD544A0029516901D001439E
:10CBD00000E08143516170474F4A0029916901D0BB
:10CBE000014300E08143916170474B4A0029D169BC
:10CBF00001D0014300E08143D1617047464A0029DA
:10CC0000916A01D0014300E0814391627047424A3A
:10CC10000029D16801D0014300E08143D160704711
:10CC20003D4A0029116901D0014300E081431161AF
:10CC3000704740494039086070473B49C8647047B5
:10CC4000354A136B23F070431363136B0B43136369
:10CC5000010F13D00121B1EB107F0ED1116B21F424
:10CC600080311163116B41F480311163516820F000
:10CC7000704021F0E061084350607047116B21F46F
:10CC800080311163516821F0E061014351607047C8
:10CC90002148416A41F08071416270471E4A014655
:10CCA000002092680A4200D0012070471A49887219
:10CCB000704719490128486D03D020F030004865BD
:10CCC000704740F03000FAE713490128086B07D09D
:10CCD00020F000700863486D20F48070486570474C
:10CCE00040F000700863486D40F48070F6E70A4930
:10CCF0004A6D22F440524A654A6D02434A657047C4
:10CD000005490128C86D03D020F00100C8657047AF
:10CD100040F00100FAE70000001002400000FFE8C8
:10CD2000FFFFF6FE00FFFEFE00004242FFFFC01FB5
:10CD3000FF3FFFEF8004424200127A0000003C6097
:10CD400000093D0000A24A04EBDC03080549012864
:10CD5000086D03D020F480300865704740F48030BF
:10CD6000FAE7000000100240FB4910B5884206D1E6
:10CD700001210420FFF74BFF0021042026E0F749A2
:10CD8000884206D101210820FFF741FF0021082039
:10CD90001CE0F349884206D101211020FFF737FF3C
:10CDA0000021102012E0EF49884206D10121202005
:10CDB000FFF72DFF0021202008E0EB49884209D130
:10CDC00001214020FFF723FF00214020BDE8104053
:10CDD000FFF71DBF10BD10B501210846FFF717FF73
:10CDE0000021BDE810400120FFF711BFF0B5CA785F
:10CDF000002502F00F03D20601D58A7813430A7882
:10CE00004FF00F0E12F0FF0F4FF001021CD004681C
:10CE10000F8802FA05F63740B74211D14FEA850C68
:10CE20000EFA0CF724EA070703FA0CF43C43CF7818
:10CE3000282F02D0482F02D002E0466100E00661B0
:10CE40006D1C082DE4D304600C88FF2C1ED94468A7
:10CE50005FF0000606F1080702FA07F50F882F4079
:10CE6000AF420FD14FEA860C0EFA0CF7BC4303FA1F
:10CE70000CF73C43CF78282F00D14561CF78482F5D
:10CE800000D10561761C082EE4D34460F0BD4FF656
:10CE9000FF710180022181700421C1707047024638
:10CEA000002092680A4200D001207047806880B25A
:10CEB000704702460020D2680A4200D00120704725
:10CEC000C06880B2704701617047416170470AB124
:10CED0000161704741617047C160704741F4803221
:10CEE000826181618261816980697047012A026A79
:10CEF00002D08A43026270470A43FBE7012AC26BF1
:10CF000002D08A43C26370470A43FBE7974B10B5D0
:10CF10001A684FF68074224042EA001008431860F5
:10CF200010BD9349C861704770B5B0F1004F64D926
:10CF30006FF07F4303EAD01300F07F04200904F070
:10CF40000F04850004FA05F5062B15D2DFE803F07F
:10CF50000306090C0F12854A20320DE0834A243261
:10CF60000AE0824A283207E0804A2C3204E07F4AF5
:10CF7000303201E07D4A343270B1012810D00228ED
:10CF80001DD003281FD0042821D0052823D006282F
:10CF900025D0072827D02AE0106820F00F0025E0D0
:10CFA000012B03D0106820F0F0001FE01068042C63
:10CFB00002D920F0C00019E020F0300016E010681F
:10CFC00020F4706012E0106820F470400EE01068E9
:10CFD00020F470200AE0106820F4700006E0106869
:10CFE00020F0706002E0106820F0704010600129AD
:10CFF00002D110682843106070BD4FF480255B4A51
:10D00000A8420FD040DCB0F5007F71D01EDC1028A4
:10D010006FD008DC01286DD0022803D0042801D08D
:10D020000828E9D1AEE0302878D0402877D0C02851
:10D0300076D0B0F5807FDFD1506820F4407050602A
:10D040000129D9D1506840F480705EE1B0F5804F7D
:10D0500067D00CDCB0F5407F7AD0B0F5006F78D0A7
:10D06000B0F5406F76D0B0F5805FC5D18AE0B0F5FD
:10D07000C04F70D0B0F5004F05D0B0F5803F02D062
:10D08000B0F5003FB8D17DE0B0F1005F76D032DC82
:10D09000B0F5000F73D015DCB0F5002F72D0B0F5ED
:10D0A000801F6FD0B0F5001F6BD0B0F5800FA3D1FB
:10D0B000506820F48000506001299DD1506840F4F0
:10D0C000800022E1B0F1807F6FD0B0F1007F6DD0A1
:10D0D000B0F1806F6BD0B0F1805F8DD1506820F0DF
:10D0E00080505060012987D1506840F080500CE199
:10D0F00087E05DE04FE01F4C031BA0421DD011DC18
:10D10000B0F1804F72D0A0F18043203B15D0B3F531
:10D11000787F12D0184CE3428DD10EE052E05BE0F4
:10D1200065E099E0AB4276D0B3F5402F74D0B3F50B
:10D13000A01F72D0B3F5E01F97D1D369C0F31500DB
:10D140008343D361012990D1D1690143D16170BD7D
:10D1500064E06DE076E089E000080140000C0140E9
:10D16000001001400014014000180140000001407F
:10D1700000002042000004402000FEFFA8E0B1E0D3
:10D1800000E0B9E05368834353600129DFD151685F
:10D190000143516070BD5068774B184050600129C1
:10D1A000F8D1506840F00100AFE069E072E07BE048
:10D1B000506820F0300050600129EBD1506840F0F9
:10D1C0001000A2E0506820F0300050600129E1D149
:10D1D000506840F0300098E0506820F0C000506087
:10D1E0000129D7D1506840F040008EE066E05068D9
:10D1F00020F0C00050600129CCD1506840F0C00040
:10D2000083E0506820F4407050600129C2D150681A
:10D2100040F4007079E07AE083E08CE0506820F41C
:10D22000407050600129B5D1506840F440706CE006
:10D23000506820F4406050600129ABD1506840F440
:10D24000006062E0506820F4406050600129A1D184
:10D25000506840F4406058E0506820F4C04050608E
:10D26000012997D1506840F480404EE0506820F486
:10D27000C040506001298DD1506840F4C04044E066
:10D28000506820F0E0605060012983D1506840F080
:10D2900080703AE0506820F0E060506001298CD145
:10D2A000506840F0007030E0506820F0E06050605E
:10D2B00001298CD1506840F0806026E0506820F051
:10D2C0008040506001298CD1506840F080401CE0C3
:10D2D000506820F00050506001298DD1506840F016
:10D2E000005012E0506820F40000506001298DD1F8
:10D2F000506840F4000008E0506820F400105060CE
:10D30000012990D1506840F40010506070BDD06980
:10D3100020F4C010D0610129F8D1D06940F4002078
:10D3200012E0D06920F4C010D0610129EED1D0699B
:10D3300040F4801008E0D06920F4C010D0610129C9
:10D34000E4D1D06940F4C010D06170BD10B58A0737
:10D3500021F003040949130F21440F228C689A40DD
:10D3600094438C608A68984002438A6010BD0449E7
:10D37000C1F8DC0070470000FEFFFF7F00000140A5
:10D3800000002042FE48FD494160FE4A426041647F
:10D3900042647047FA48F9494160FA494160704770
:10D3A000F748F6494164F74941647047F448F34946
:10D3B00040F8841FF34901607047F148016941F06A
:10D3C00080010161016D41F0800101657047EC4809
:10D3D000016941F0800101617047E948016D41F048
:10D3E000800101657047E64850F8901F41F08001C8
:10D3F00001607047E2490420CA6CD20701D00120C5
:10D400007047CA6C520701D502207047C96CC90623
:10D41000FBD50320704700B50346FFF7EBFF02E0A2
:10D42000FFF7E8FF5B1E012803D0002B00D1052089
:10D4300000BD002BF4D1FAE7D1490420CA68D20715
:10D4400001D001207047CA68520701D502207047F9
:10D45000C968C906FBD50320704700B50346FFF72E
:10D46000EBFF02E0FFF7E8FF5B1E012803D0002B73
:10D4700000D1052000BD002BF4D1FAE7C0490420FB
:10D48000D1F88C20D20701D001207047D1F88C2030
:10D49000520701D502207047D1F88C10C906FAD581
:10D4A0000320704700B50346FFF7E8FF03E000BF25
:10D4B000FFF7E4FF5B1E012803D0002B00D10520FD
:10D4C00000BD002BF4D1FAE770B505460420AC4C42
:10D4D000B5F1046F17D3461F3046FFF7E3FF04286A
:10D4E00010D154F8900F40F0020020606560206871
:10D4F00040F0400020603046FFF7D4FF216821F063
:10D500000201216070BDA0494FF080568D4215D8B0
:10D510003046FFF7A2FF0428F4D1206940F0020052
:10D5200020616561206940F0400020613046FFF7CE
:10D5300094FF216921F00201216170BD9249C94324
:10D540002944B1F5002FF8D23046FFF764FF0428D4
:10D55000F3D1206D40F0020020656565206D40F03C
:10D56000400020653046FFF756FF216D21F0020193
:10D57000216570BD30B54FF080552846FFF76DFF2F
:10D58000042820D17E4C206940F0040020612069ED
:10D5900040F0400020612846FFF75FFF216921F03D
:10D5A0000401216104280ED1206D40F004002065A3
:10D5B000206D40F0400020652846FFF72CFF216DCC
:10D5C00021F00401216530BD30B54FF0805528466B
:10D5D000FFF743FF04280FD1694C206940F0040095
:10D5E0002061206940F0400020612846FFF735FFA8
:10D5F000216921F00401216130BD30B54FF0805523
:10D600002846FFF708FF04280FD15D4C206D40F03D
:10D6100004002065206D40F0400020652846FFF79B
:10D62000FAFE216D21F00401216530BD5448D0F887
:10D63000CC00000701D5012070470020704730B5AD
:10D64000FFF7F4FF08B1022030BD4FF0FF35284648
:10D65000FFF728FF0428F7D1494C54F8900F40F009
:10D6600004002060206840F0400020602846FFF75A
:10D6700019FF216821F00401216030BD00B5034687
:10D68000FFF7DAFE03E000BFFFF7D6FE5B1E0128BE
:10D6900003D0002B00D1052000BD002BF4D1FAE708
:10D6A00037490020C969890700D50120704770B546
:10D6B000A525FFF7F5FF00B100254FF08056304655
:10D6C000FFF7DCFF042825D12D4C2C48A0602D4805
:10D6D000A060206940F020002061206940F04000F7
:10D6E00020613046FFF7CAFF04280DD1206920F0E1
:10D6F00020002061206940F010002061234805804F
:10D700004FF47040FFF7BAFF052803D0216921F0DC
:10D710001001216170BDF8B50E46054600210420B8
:10D72000174C4FF470470091B5F1046F12D338468F
:10D73000FFF7B8FE04280CD154F8900F40F0010018
:10D7400020602E603846FFF7ADFE216821F0010110
:10D750002160F8BD0C498D421CD83846FFF77DFE8C
:10D760000428F6D1206940F0010020612E6038467F
:10D77000FFF784FF216921F0010109E023016745DA
:10D7800000200240AB89EFCDFFFF070800F8FF1F24
:10D790002161F8BDFE492944B1F5002FF9D2384680
:10D7A000FFF739FE0428F4D1206D40F00100206518
:10D7B0002E603846FFF72FFE216D21F00101216513
:10D7C000F8BDF0B505460420F24C0E464FF4704704
:10D7D000B5F1046F12D33846FFF764FE04280CD16C
:10D7E00054F8900F40F0010020602E803846FFF77B
:10D7F00059FE216821F001012160F0BDE449C943CF
:10D800008D4211D83846FFF728FE0428F5D120694B
:10D8100040F0010020612E803846FFF71EFE21698E
:10D8200021F001012161F0BDD9492944B1F5002F52
:10D83000F9D23846FFF7EFFD0428F4D1206D40F00F
:10D84000010020652E803846FFF7E5FD216D21F0AF
:10D8500001012165F0BDF0B5054604200E46B5F185
:10D86000046F01D30320F0BDC949CA4CC9434FF42A
:10D8700070478D4211D83846FFF7EFFD0428F2D1EA
:10D88000206940F0010020612E703846FFF7E5FD69
:10D89000216921F001012161F0BDBD492944B1F5A3
:10D8A000002FF9D23846FFF7B6FD0428F4D1206DD9
:10D8B00040F0010020652E703846FFF7ACFD216D69
:10D8C00021F001012165F0BDF0B506464FF4704727
:10D8D0000D463846FFF7D2FE042812D1AD4CAE48B3
:10D8E000A060AE48A060206940F010002061358043
:10D8F0003846FFF7C3FE052803D0216921F0100147
:10D900002161F0BD2DE9F041C04300F0FF0CC0F3F0
:10D910000727C0F30746050E4FF470484046FFF74F
:10D92000ADFE042835D19B4C9B49A1609B49A16069
:10D93000216941F010012161BCF1FF0F07D0984827
:10D94000A0F800C04046FFF799FE04281BD1FF2F26
:10D9500007D09348801C07804046FFF78FFE0428BD
:10D9600011D1FF2E07D08E48001D06804046FFF7DC
:10D9700085FE042807D1FF2D07D08948801D05802A
:10D980004046FFF77BFE052803D0216921F01001F6
:10D990002161BDE8F08170B505464FF080563046F4
:10D9A000FFF76CFE042817D17A4C7B48A0607B48B7
:10D9B000A060206940F020002061206940F0400014
:10D9C00020613046FFF75AFE042806D0052803D010
:10D9D000216921F02001216170BD206920F0200023
:10D9E0002061206940F0100020616D4808380DB1B9
:10D9F000002100E0A52101803046FFF73FFE052809
:10DA0000EAD0216921F01001E5E7F0B5614C074645
:10DA1000614816460D46A0606048A0604FF4704C07
:10DA20006046FFF72BFE042813D1206940F0100058
:10DA3000206135435A493D43891F45F0F80008806D
:10DA40006046FFF71BFE052803D0216921F0100175
:10DA50002161F0BD70B54F4C05464F48A0604F485E
:10DA6000A0604FF470463046FFF708FE042813D13B
:10DA7000206940F0100020614948801F018865B18D
:10DA800021F0080101803046FFF7F8FD052803D09A
:10DA9000216921F01001216170BD41F00801F1E719
:10DAA0003C48C069800870473A48006A7047394A64
:10DAB000002809DA0029116D20F0004001D001434F
:10DAC00000E081431165704743000AD5002952F8F0
:10DAD000901F20F0804001D0014300E0814311609D
:10DAE00070470029116901D0014300E081431161B1
:10DAF00070470021274A012804D0430006D5D2F8F8
:10DB00008C2008E0D069C00707D107E0002801DABF
:10DB1000D26C00E0D268024200D001210846704772
:10DB20001C49420002D5C1F88C007047002801DA78
:10DB3000C8647047C860704716490420CA68D20795
:10DB400001D001207047CA68520701D502207047F2
:10DB5000C968C906FBD50320704770B51049183154
:10DB60000D680A1D141D231D6D1C08D115686D1C40
:10DB700005D125686D1C02D11D686D1C29D00E6869
:10DB80004FF0FF25AE4213D11668AE4210D109E026
:10DB90000000F8F70020024023016745AB89EFCD74
:10DBA00008F8FF1F2668AE4202D11E68AE4210D0B0
:10DBB0000D684FF0FF118D4208D112688A4205D1DD
:10DBC00022688A4202D11A688A4202D02C49C1F8DE
:10DBD000980070BDF0B584464FF470471D4614465A
:10DBE0000E463846FFF74AFDA64220D2AC4203D982
:10DBF000A4F5E061FF391AD1AE4218D86FF0F86190
:10DC000001EAC42141EA8554C6F30A010C43042801
:10DC10000DD11B4D1B48C5F8F00045F8DCCF384648
:10DC2000FFF72CFD6C603846BDE8F04026E5F0BDFE
:10DC300010B5134CC4F8D400E003FFF71FFD04280F
:10DC400005D1D4F8D800800701D5012010BD0020EF
:10DC500010BD0B48D0F8D800C0F308407047084802
:10DC6000D0F8D000C0F30A0070470548D0F8D000C3
:10DC7000C0F3CA2070470248D0F8D000800D70472A
:10DC800000200240246D5FA3064C074D06E0E068CB
:10DC900040F0010394E8070098471034AC42F6D3F3
:10DCA000FEF770FAFCDC03081CDD030802E008C87C
:10DCB000121F08C1002AFAD170477047002001E006
:10DCC00001C1121F002AFBD170473F065B4F666DF2
:10DCD0007D077F6F777C395E7971763D74580E3899
:10DCE00054375C736750783E400800010203040615
:10DCF00007080902040608020C0810001CDD0308CE
:10DD00000000002020000000ACDC03083CDD03081C
:10DD100020000020100C0000BCDC03080000000004
:10DD20000000000000000000001C4E0E000000007B
:0CDD3000000000000102030406070809BF
:040000050803C17DAE
:00000001FF
