:020000040800F2
:10000000800C03205D02000839CC000861CB000899
:1000100035CC0008C526000851F700080000000094
:1000200000000000000000000000000025D20008D1
:100030006D3200080000000085CE00088F02000825
:100040009102000891020008910200089102000844
:100050009102000891020008910200089102000834
:100060009102000891020008910200089102000824
:100070009102000891020008910200089102000814
:100080009102000891020008910200086FF5000833
:1000900025F700089102000891020008910200086B
:1000A00091020008910200089102000891020008E4
:1000B0009102000875DD0008910200089102000815
:1000C00091020008910200089102000891020008C4
:1000D00091020008910200089102000891020008B4
:1000E000910200089102000863F5000891020008DF
:1000F0009102000891020008910200089102000894
:10010000910200089102000861EE000891020008C7
:100110009102000891020008910200089102000873
:100120009102000891020008910200089102000863
:100130009102000891020008910200089102000853
:1001400000000000000000000000000000000000AF
:100150009102000891020008910200089102000833
:10016000F5030008910200089102000891020008BE
:1001700091020008910200089102000800F002F8C4
:1001800000F05CF80AA090E8000C82448344AAF1D5
:100190000107DA4501D100F051F8AFF2090EBAE8D3
:1001A0000F0013F0010F18BFFB1A43F001031847AB
:1001B000386B0100586B01000A444FF0000C10F836
:1001C000013B13F0070408BF10F8014B1D1108BFD5
:1001D00010F8015B641E05D010F8016B641E01F875
:1001E000016BF9D113F0080F1EBF10F8014BAD1CC5
:1001F0000C1B09D16D1E58BF01F801CBFAD505E0E3
:1002000014F8016B01F8016B6D1EF9D59142D6D33C
:10021000704700000023002400250026103A28BF64
:1002200078C1FBD8520728BF30C148BF0B60704768
:100230001FB514F070FA1FBD10B510BD00F07CF8AA
:100240001146FFF7F5FF12F033FE00F09AF803B401
:10025000FFF7F2FF03BC00F09DF8000041F2000040
:10026000C2F2000085460E48804740F20000C0F60A
:100270000000D0F800D00B4880470B480047FEE74D
:10028000FEE7FEE7FEE7FEE7FEE7FEE7FEE7FEE746
:10029000FEE7000005480649064A074B7047000084
:1002A00009340008F1DC00087D010008800003200B
:1002B000800C032080040320800403204FF0000200
:1002C00000B5134694469646203922BFA0E80C504C
:1002D000A0E80C50B1F12001BFF4F7AF090728BF27
:1002E000A0E80C5048BF0CC05DF804EB890028BFA3
:1002F00040F8042B08BF704748BF20F8022B11F0CC
:10030000804F18BF00F8012B704770477047704747
:1003100010B500F009F8006810BD10B5044600F0F3
:1003200003F8046010BD0000004870471C00032063
:10033000004870471C0003207546FFF7F9FFAE46E2
:1003400005006946534620F00700854618B020B5E1
:10035000FFF7A0FFBDE820404FF000064FF0000778
:100360004FF000084FF0000B21F00701AC46ACE85D
:10037000C009ACE8C009ACE8C009ACE8C0098D46CA
:10038000704710B50446AFF300802046BDE810402A
:10039000FFF75DBF01491820ABBEFEE72600020053
:1003A00070470000012805D10749096821F00101C3
:1003B000054A1160022805D10349096821F00201AC
:1003C000014A11607047000000580140024A12685B
:1003D0000243014B1A607047045801400146002057
:1003E000034A12680A400AB1012000E00020704769
:1003F0000058014010B50120FFF7F0FF012801D19E
:10040000FFF7D0FF0220FFF7E9FF012802D1022009
:10041000FFF7C8FF10BD000029B1074A1268024368
:10042000054B1A6006E0044A1268C3439BB21A40A7
:10043000014B1A60704700000458014001490860F0
:10044000704700000C5801400149086070470000E7
:1004500010580140014908607047000014580140DD
:100460002DE9F80F02F1A003BF4A4FF0010C4FF045
:100470000508C2F808C0D2F808C0D2F800C0CDF80C
:1004800000C01CF1010C7CD04268D3F804C0806825
:1004900082EA0C049A68A44680EA02076246B348DE
:1004A0004FEA1C6507F0FF0950F82560C4F30745C3
:1004B00050F8299050F82550203B86EA3525C2F3A4
:1004C000072602F0FF0A50F8266050F82AA04FEAEB
:1004D000364686EA39666E401D69CCF307496E40A0
:1004E0003D0E50F8299050F8255004F0FF0B85EA96
:1004F0003925C4F30729240E50F8299050F82440D8
:100500004FEA394989EA3A6985EA09095D69C7F319
:10051000074A89EA05054FEA126950F82AA050F8FF
:100520002990C2F3074289EA3A29CCF3072A50F806
:1005300022200CF0FF0C84EA3222C7F3072450F883
:100540002AA050F8244050F82BB050F82CC04FEAA5
:100550003A4A4FEA34448AEA3B6A84EA3C6C89EAC4
:100560000A0982EA0C0CD3F818A0DA69A8F101088C
:1005700089EA0A098CEA0204B8F1000F7ADD320E2A
:1005800000E064E0C4F3074C50F8222050F82CC07F
:1005900009F0FF0A82EA3C22C9F3072C50F82AA08E
:1005A00050F82CC004F0FF0B4FEA3C4705F0FF0C5D
:1005B00050F82BB050F82CC087EA3C6C82EA0C0C47
:1005C0001A68C6F307478CEA020C2A0E50F8277007
:1005D00050F8222082EA3722C4F30727240E50F86D
:1005E000277050F824404FEA374787EA3A677A4045
:1005F0005F68C5F3074A57404FEA196250F82AA0CE
:1006000050F82220C5F3072582EA3A22C6F3072ACA
:10061000C9F30749F6B250F82AA050F8255050F80F
:10062000299050F826604FEA3A4A4FEA35458AEA5F
:100630003B6A84EA392485EA366582EA0A026C401C
:10064000D3F808A0DD6882EA0A026C4028E7DDF8EA
:1006500000C0C2F800C01268009262B14268D3F8CC
:1006600004C080689C6882EA0C02944680EA040711
:10067000644614E70FE00268D3F800C05C6882EAC1
:100680000C0C426882EA040782689C68C068624079
:10069000DC68444003E73648EAB200EB166C825C43
:1006A0009CF800C0C9F3072742EA0C62C4F3074C68
:1006B000C75D10F80CC04FEA0C4C4CEA072C42EA1C
:1006C0000C02D3F800C0C4F3072782EA0C020A60C8
:1006D00009F0FF0200EB156C825C9CF800C0C75D5E
:1006E00042EA0C62C6F3074C10F80CC04FEA0C4CFF
:1006F0004CEA072C42EA0C02D3F804C0C6F30727E1
:1007000082EA0C024A60E2B200EB196C825C9CF84F
:1007100000C0C75D42EA0C6CC5F30742825C12045C
:1007200042EA07224CEA0202D3F808C082EA0C022D
:100730008A60F2B200EB146C825C9CF800C0C5F3D6
:10074000072442EA0C62C9F3074C10F80CC0005DA4
:100750004FEA0C4C4CEA00201043DA685040C86065
:10076000BDE8F80F7047000000300240E85A010869
:10077000C05501082DE9F80FBF4B4FF0010C4FF0A9
:100780000508C3F808C0D3F808C0D3F800C0CDF8F6
:1007900000C01CF1010C09D04368D2F804C0006805
:1007A00083EA0C07136843409C4610E0DDF800C064
:1007B000C3F800C01B6800935BB14368D2F804C063
:1007C000006883EA0C07136880EA030C63466446FA
:1007D0000FE00368D2F800C0946883EA0C0743680E
:1007E000D2F804C083EA0C0C8368C0686340D46804
:1007F0004440A2483D0ECCF3074650F8255050F82F
:10080000266004F0FF0985EA3625C3F3072650F871
:10081000299050F8266007F0FF0A4FEA364686EA2C
:1008200039666E401569C3F307496E404FEA1C658F
:1008300050F8299050F8255050F82AA085EA39251B
:10084000C4F307290CF0FF0B50F82990CCF3072CC8
:100850004FEA394989EA3A6985EA0905D2F81490DC
:10086000C4F3074A85EA09054FEA136950F82AA03C
:1008700050F82990240E89EA3A29C7F3072AC7F3CA
:100880000747DBB250F82AA050F82CC050F82BB024
:1008900050F8244050F8277050F823304FEA3A4A75
:1008A0004FEA3C4C8AEA3B6A84EA37248CEA336399
:1008B00089EA0A0984EA030CD2F818A0D369203225
:1008C000A8F1010889EA0A098CEA0304B8F1000FCB
:1008D00069DD330EC5F3074C50F8233050F82CC0B7
:1008E000E7B283EA3C23C9F3072C50F8277050F88D
:1008F0002CC006F0FF0A4FEA3C4C8CEA376C83EAC6
:100900000C03D2F800C050F82AA083EA0C072B0E83
:10091000C9F3074C50F8233050F82CC005F0FF0BFA
:1009200083EA3C23C4F3072CC5F3072550F82CC0F9
:1009300050F825504FEA3C4C8CEA3A6C83EA0C03A1
:10094000D2F804C0C4F3074A83EA0C0C4FEA1963D7
:1009500050F82AA050F82330240E83EA3A23C6F335
:10096000072AC6F3074650F8244050F8266050F88E
:100970002AA084EA36244FEA354609F0FF0550F8EC
:100980002BB050F825504FEA3A4A8AEA3B6A86EA89
:10099000356583EA0A036C40D2F808A0D56883EA7B
:1009A0000A036C4026E73648E3B200EB166CC35CE2
:1009B0009CF800C0C9F3072743EA0C63C5F3074C52
:1009C000C75D10F80CC04FEA0C4C4CEA072C43EA08
:1009D0000C03D2F800C0C4F3072783EA0C030B60B2
:1009E000F3B200EB156CC35C9CF800C0C75D43EA32
:1009F0000C63C9F3074C10F80CC04FEA0C4C4CEADE
:100A0000072C43EA0C03D2F804C0C6F3072783EA95
:100A10000C034B60EBB200EB196CC35C9CF800C09C
:100A2000C75D43EA0C6CC4F30743C35C1B0443EA91
:100A300007234CEA0303D2F808C083EA0C038B6057
:100A400009F0FF0300EB146CC35C9CF800C0C5F315
:100A5000072443EA0C63C6F3074CD26810F80CC0B5
:100A6000005D4FEA0C4C4CEA002018435040C8602F
:100A7000BDE8F80F7047000000300240E85601085A
:100A8000C05401082DE9F04105460C4600F092F8EB
:100A90002868206068686060A868A060E868E06016
:100AA0004348012600F5C5611034761CD4E900C323
:100AB00000EB1C67CCF307483F7810F80880D4E9B6
:100AC000022551F8277051F8288087EA3827CCF39F
:100AD00007280CF0FF0C10F8088010F80CC051F833
:100AE000288051F82CC04FEA384888EA3C6C87EAE5
:100AF0000C0CC4F800C000EB136CC3F307479CF860
:100B000000C0C75D51F82CC051F827708CEA372C13
:100B1000C3F30727DBB2C75DC35C51F8277051F8F8
:100B200023304FEA374787EA33638CEA0303636075
:100B300000EB1263C2F3074C1B7810F80CC051F89D
:100B4000233051F82CC083EA3C23C2F3072CD2B2E5
:100B500010F80CC0825C51F82CC051F822204FEAEA
:100B60003C4C8CEA32625A40A26000EB1562C5F33D
:100B700007431278C35C05F0FF0C51F8222051F8AE
:100B8000233010F80CC082EA3322C5F3072351F852
:100B90002CC0C35C51F823304FEA334383EA3C63F3
:100BA0005A40E2600A2EFFF67FAFBDE8F0810000F8
:100BB000C05401082DE9F003D0E900C38268C06881
:100BC000184CC1E90220E1E804C30A26A4F5007527
:100BD00005EB1067C0F307483F7815F8088000F070
:100BE000FF0947EA0867C0F3072815F8099015F8C8
:100BF00008804FEA084848EA092847EA080787EAD0
:100C00000C0C54F8047B8CEA070C83EA0C035A4062
:100C10005040C1E90220E1E804C3761ED8D1BDE806
:100C2000F0037047C05601082DE9F80F02F1C00328
:100C3000BE4A4FF0010C4FF00608C2F808C0D2F8C7
:100C400008C0D2F800C0CDF800C01CF1010C7CD067
:100C50004268D3F804C0806882EA0C049A68A4460B
:100C600080EA02076246B2484FEA1C6507F0FF09B6
:100C700050F82560C4F3074550F8299050F82550E6
:100C8000203B86EA3525C2F3072602F0FF0A50F81A
:100C9000266050F82AA04FEA364686EA39666E404A
:100CA0001D69CCF307496E403D0E50F8299050F86D
:100CB000255004F0FF0B85EA3925C4F30729240EDB
:100CC00050F8299050F824404FEA394989EA3A69A6
:100CD00085EA09095D69C7F3074A89EA05054FEA0C
:100CE000126950F82AA050F82990C2F3074289EA05
:100CF0003A29CCF3072A50F822200CF0FF0C84EAA2
:100D00003222C7F3072450F82AA050F8244050F8A4
:100D10002BB050F82CC04FEA3A4A4FEA34448AEAE2
:100D20003B6A84EA3C6C89EA0A0982EA0C0CD3F833
:100D300018A0DA6989EA0A098CEA0204B8F1010804
:100D40007AD0320E50F8222000E062E0C4F3074C63
:100D500009F0FF0A50F82CC050F82AA082EA3C2281
:100D6000C9F3072C04F0FF0B50F82CC050F82BB03F
:100D70004FEA3C4705F0FF0C50F82CC087EA3C6C6A
:100D800082EA0C0C1A68C6F307478CEA020C2A0E9A
:100D900050F8277050F8222082EA3722C4F3072740
:100DA000240E50F8277050F824404FEA374787EA5E
:100DB0003A677A405F68C5F3074A57404FEA1962BD
:100DC00050F82AA050F82220C5F3072582EA3A22DB
:100DD000C6F3072AC9F30749F6B250F82AA050F81B
:100DE000255050F8299050F826604FEA3A4A4FEAC9
:100DF00035458AEA3B6A84EA392485EA366582EA1F
:100E00000A026C40D3F808A0DD6882EA0A026C404E
:100E10002AE7DDF800C0C2F800C01268009262B193
:100E20004268D3F804C080689C6882EA0C02944649
:100E300080EA0407644616E70FE00268D3F800C0B2
:100E40005C6882EA0C0C426882EA040782689C684B
:100E5000C0686240DC68444005E73648EAB200EB0F
:100E6000166C825C9CF800C0C9F3072742EA0C624A
:100E7000C4F3074CC75D10F80CC04FEA0C4C4CEAA9
:100E8000072C42EA0C02D3F800C0C4F3072782EA19
:100E90000C020A6009F0FF0200EB156C825C9CF802
:100EA00000C0C75D42EA0C62C6F3074C10F80CC0E4
:100EB0004FEA0C4C4CEA072C42EA0C02D3F804C06F
:100EC000C6F3072782EA0C024A60E2B200EB196C13
:100ED000825C9CF800C0C75D42EA0C6CC5F3074217
:100EE000825C120442EA07224CEA0202D3F808C0EC
:100EF00082EA0C028A60F2B200EB146C825C9CF80D
:100F000000C0C5F3072442EA0C62C9F3074C10F88D
:100F10000CC0005D4FEA0C4C4CEA00201043DA682C
:100F20005040C860BDE8F80F704700000030024034
:100F3000E85A0108C05501082DE9F0410C4600F0BF
:100F400087F84248012600F5C5621034761CD4E9C2
:100F5000005C00EB1567C5F307483F7810F8088080
:100F6000D4E9023152F8277052F8288087EA3827EE
:100F7000C5F30728EDB210F80880455D52F82880C7
:100F800052F825504FEA384888EA35657D4025609B
:100F900000EB1C65CCF307472D78C75D52F8255050
:100FA00052F8277085EA3725CCF307270CF0FF0CA1
:100FB000C75D10F80CC052F8277052F82CC04FEAE9
:100FC000374787EA3C6C85EA0C0CC4F804C000EB98
:100FD000136CC3F307459CF800C0455D52F82CC064
:100FE00052F825508CEA352CC3F30725DBB2455D5A
:100FF000C35C52F8255052F823304FEA354585EA54
:1010000033638CEA0303A36000EB1163C1F3074C65
:101010001B7810F80CC052F8233052F82CC083EA29
:101020003C23C1F3072CC9B210F80CC0415C52F844
:101030002CC052F821104FEA3C4C8CEA31615940E7
:10104000E1600C2E81DBBDE8F0810000C054010896
:101050002DE9F00F02680A60D0E900C24A60D0E9C9
:1010600001328A60D0E90225CD60D0E903560E61D5
:10107000D0E904674F611B4F4069002407F50079F0
:1010800007EB1068C0F3074A98F8008017F80AA029
:1010900000F0FF0B48EA0A68C0F3072A17F80BB004
:1010A00017F80AA04FEA0A4A4AEA0B2A48EA0A084D
:1010B00088EA0C0C59F82480641C8CEA080C83EA3A
:1010C0000C035A40554041F818CF082CCD60C1E9B7
:1010D0000132A4BFBDE8F00F70476E407040C1E917
:1010E0000460CDE7C05401082DE9F0410C4600F042
:1010F0001FFD4248012600F5C5621034761CD4E974
:10110000005C00EB1567C5F307483F7810F80880CE
:10111000D4E9023152F8277052F8288087EA38273C
:10112000C5F30728EDB210F80880455D52F8288015
:1011300052F825504FEA384888EA35657D402560E9
:1011400000EB1C65CCF307472D78C75D52F825509E
:1011500052F8277085EA3725CCF307270CF0FF0CEF
:10116000C75D10F80CC052F8277052F82CC04FEA37
:10117000374787EA3C6C85EA0C0CC4F804C000EBE6
:10118000136CC3F307459CF800C0455D52F82CC0B2
:1011900052F825508CEA352CC3F30725DBB2455DA8
:1011A000C35C52F8255052F823304FEA354585EAA2
:1011B00033638CEA0303A36000EB1163C1F3074CB4
:1011C0001B7810F80CC052F8233052F82CC083EA78
:1011D0003C23C1F3072CC9B210F80CC0415C52F893
:1011E0002CC052F821104FEA3C4C8CEA3161594036
:1011F000E1600E2E81DBBDE8F0810000C0540108E3
:101200003221133248516187299200002DE9F80FED
:10121000BF4B4FF0010C4FF00608C3F808C0D3F8DD
:1012200008C0D3F800C0CDF800C01CF1010C09D0F3
:101230004368D2F804C0006883EA0C07136843408F
:101240009C4610E0DDF800C0C3F800C01B680093A6
:101250005BB14368D2F804C0006883EA0C071368E6
:1012600080EA030C634664460FE00368D2F800C0CE
:10127000946883EA0C074368D2F804C083EA0C0C34
:101280008368C0686340D4684440A2483D0ECCF3F4
:10129000074650F8255050F8266004F0FF0985EA0B
:1012A0003625C3F3072650F8299050F8266007F03A
:1012B000FF0A4FEA364686EA39666E401569C3F37F
:1012C00007496E404FEA1C6550F8299050F82550A8
:1012D00050F82AA085EA3925C4F307290CF0FF0B42
:1012E00050F82990CCF3072C4FEA394989EA3A693A
:1012F00085EA0905D2F81490C4F3074A85EA09057E
:101300004FEA136950F82AA050F82990240E89EA70
:101310003A29C7F3072AC7F30747DBB250F82AA0D8
:1013200050F82CC050F82BB050F8244050F82770DB
:1013300050F823304FEA3A4A4FEA3C4C8AEA3B6A7B
:1013400084EA37248CEA336389EA0A0984EA030CC5
:10135000D2F818A0D3692032A8F1010889EA0A0955
:101360008CEA0304B8F1000F69DD330EC5F3074CB6
:1013700050F8233050F82CC0E7B283EA3C23C9F37D
:10138000072C50F8277050F82CC006F0FF0A4FEADF
:101390003C4C8CEA376C83EA0C03D2F800C050F85E
:1013A0002AA083EA0C072B0EC9F3074C50F8233010
:1013B00050F82CC005F0FF0B83EA3C23C4F3072C44
:1013C000C5F3072550F82CC050F825504FEA3C4C87
:1013D0008CEA3A6C83EA0C03D2F804C0C4F3074ADF
:1013E00083EA0C0C4FEA196350F82AA050F8233016
:1013F000240E83EA3A23C6F3072AC6F3074650F8B9
:10140000244050F8266050F82AA084EA36244FEA97
:10141000354609F0FF0550F82BB050F825504FEA3B
:101420003A4A8AEA3B6A86EA356583EA0A036C40EF
:10143000D2F808A0D56883EA0A036C4026E736484C
:10144000E3B200EB166CC35C9CF800C0C9F307273D
:1014500043EA0C63C5F3074CC75D10F80CC04FEAB4
:101460000C4C4CEA072C43EA0C03D2F800C0C4F33E
:10147000072783EA0C030B60F3B200EB156CC35C27
:101480009CF800C0C75D43EA0C63C9F3074C10F831
:101490000CC04FEA0C4C4CEA072C43EA0C03D2F880
:1014A00004C0C6F3072783EA0C034B60EBB200EBE2
:1014B000196CC35C9CF800C0C75D43EA0C6CC4F3B4
:1014C0000743C35C1B0443EA07234CEA0303D2F837
:1014D00008C083EA0C038B6009F0FF0300EB146C77
:1014E000C35C9CF800C0C5F3072443EA0C63C6F351
:1014F000074CD26810F80CC0005D4FEA0C4C4CEA67
:10150000002018435040C860BDE8F80F7047000045
:1015100000300240E8560108C05401082DE9F80FD8
:1015200002F1E003BF4A4FF0010C4FF00708C2F888
:1015300008C0D2F808C0D2F800C0CDF800C01CF135
:10154000010C7CD04268D3F804C0806882EA0C04A5
:101550009A68A44680EA02076246B3484FEA1C65CF
:1015600007F0FF0950F82560C4F3074550F82990AB
:1015700050F82550203B86EA3525C2F3072602F0B5
:10158000FF0A50F8266050F82AA04FEA364686EA4D
:1015900039666E401D69CCF307496E403D0E50F828
:1015A000299050F8255004F0FF0B85EA3925C4F343
:1015B0000729240E50F8299050F824404FEA394961
:1015C00089EA3A6985EA09095D69C7F3074A89EA40
:1015D00005054FEA126950F82AA050F82990C2F385
:1015E000074289EA3A29CCF3072A50F822200CF066
:1015F000FF0C84EA3222C7F3072450F82AA050F8DF
:10160000244050F82BB050F82CC04FEA3A4A4FEA29
:1016100034448AEA3B6A84EA3C6C89EA0A0982EA31
:101620000C0CD3F818A0DA69A8F1010889EA0A09B4
:101630008CEA0204B8F1000F7ADD320E00E064E0BB
:10164000C4F3074C50F8222050F82CC009F0FF0AD0
:1016500082EA3C22C9F3072C50F82AA050F82CC08B
:1016600004F0FF0B4FEA3C4705F0FF0C50F82BB09D
:1016700050F82CC087EA3C6C82EA0C0C1A68C6F35E
:1016800007478CEA020C2A0E50F8277050F82220E7
:1016900082EA3722C4F30727240E50F8277050F847
:1016A00024404FEA374787EA3A677A405F68C5F3D4
:1016B000074A57404FEA196250F82AA050F82220F2
:1016C000C5F3072582EA3A22C6F3072AC9F3074978
:1016D000F6B250F82AA050F8255050F8299050F84A
:1016E00026604FEA3A4A4FEA35458AEA3B6A84EA7D
:1016F000392485EA366582EA0A026C40D3F808A0EC
:10170000DD6882EA0A026C4028E7DDF800C0C2F812
:1017100000C01268009262B14268D3F804C08068C9
:101720009C6882EA0C02944680EA0407644614E747
:101730000FE00268D3F800C05C6882EA0C0C4268D3
:1017400082EA040782689C68C0686240DC684440A2
:1017500003E73648EAB200EB166C825C9CF800C0E6
:10176000C9F3072742EA0C62C4F3074CC75D10F8BF
:101770000CC04FEA0C4C4CEA072C42EA0C02D3F89E
:1017800000C0C4F3072782EA0C020A6009F0FF02D6
:1017900000EB156C825C9CF800C0C75D42EA0C62ED
:1017A000C6F3074C10F80CC04FEA0C4C4CEA072C5F
:1017B00042EA0C02D3F804C0C6F3072782EA0C02FF
:1017C0004A60E2B200EB196C825C9CF800C0C75D15
:1017D00042EA0C6CC5F30742825C120442EA07221B
:1017E0004CEA0202D3F808C082EA0C028A60F2B224
:1017F00000EB146C825C9CF800C0C5F3072442EA3D
:101800000C62C9F3074C10F80CC0005D4FEA0C4C99
:101810004CEA00201043DA685040C860BDE8F80F79
:101820007047000000300240E85A0108C055010826
:101830002DE9F80FBB4B4FF0010C4FF00708C3F830
:1018400008C0D3F808C0D3F800C0CDF800C01CF120
:10185000010C07D1DDF800C0C3F800C01B6800937D
:10186000002B7DD04368D2F804C08068946883EA76
:101870000C0C80EA040763466446AB484FEA1C65DB
:1018800004F0FF0950F82560C7F3074550F8299088
:1018900050F825500CF0FF0A86EA3525C3F30726D9
:1018A00050F82AA050F8266007F0FF0B4FEA3646A2
:1018B00086EA396675401669C3F307496E403D0EE6
:1018C00050F8299050F8255050F82BB085EA39256A
:1018D000C4F30729A8F1010850F829904FEA3949C3
:1018E00089EA3A6985EA0905D2F81490C4F3074AEF
:1018F00085EA09054FEA136950F82AA050F82990A3
:10190000240E89EA3A29CCF3072ACCF3074C50F885
:10191000244050F82CC0DBB284EA3C2CC7F30724E7
:1019200050F82AA050F8244050F823304FEA3A4AA1
:101930004FEA34448AEA3B6A84EA336389EA0A0953
:101940008CEA0303D2F818A0D2F81CC0203289EA2E
:101950000A0983EA0C04B8F1000F79DD330E00E0C8
:1019600065E0C5F3074C50F8233050F82CC0E7B2BF
:1019700083EA3C23C9F3072C50F8277050F82CC099
:1019800006F0FF0A4FEA3C4C8CEA376C83EA0C0302
:10199000D2F800C0C9F3074783EA0C0C2B0E50F8AD
:1019A000277050F8233050F82AA083EA3723C4F375
:1019B000072705F0FF0B50F82770C5F307254FEAFE
:1019C000374787EA3A677B405768C4F3074A5F4066
:1019D0004FEA196350F82AA050F82330240E83EA06
:1019E0003A23C6F3072AC6F3074650F8244050F8B6
:1019F000266050F82AA084EA362409F0FF0650F841
:101A0000255050F82BB050F826604FEA3A4A4FEA7A
:101A100035458AEA3B6A85EA366583EA0A036C4003
:101A2000D2F808A0D56883EA0A036C4026E7036869
:101A3000D2F800C0546883EA0C0C436883EA0407B8
:101A400083689468C0686340D468444015E7FFE742
:101A50003648E3B200EB166CC35C9CF800C0C9F3D7
:101A6000072743EA0C63C5F3074CC75D10F80CC0A9
:101A70004FEA0C4C4CEA072C43EA0C03D2F800C0A6
:101A8000C4F3072783EA0C030B60F3B200EB156C79
:101A9000C35C9CF800C0C75D43EA0C63C9F3074C04
:101AA00010F80CC04FEA0C4C4CEA072C43EA0C032C
:101AB000D2F804C0C6F3072783EA0C034B60EBB2ED
:101AC00000EB196CC35C9CF800C0C75D43EA0C6373
:101AD000C4F3074C10F80CC04FEA0C4C4CEA072C2E
:101AE00043EA0C03D2F808C083EA0C038B6009F0C8
:101AF000FF0300EB146CC35C9CF800C0C5F3072423
:101B000043EA0C63C6F3074CD26810F80CC0005DC2
:101B10004FEA0C4C4CEA002018435040C860BDE826
:101B2000F80F704700300240E8560108C054010821
:101B30002DE9F04FD0E902C2D0E90054C1E902C258
:101B4000C1E90054D0E90487C1E90487D0E90663FC
:101B5000C1E906632B484FF0000900BF00EB136A90
:101B6000C3F3074B9AF800A010F80BB003F0FF0E78
:101B70004AEA0B6AC3F3072B10F80EE010F80BB01B
:101B800020314FEA0B4B4BEA0E2B4AEA0B0A8AEA4A
:101B9000050A1D4D55F8295009F101098AEA050584
:101BA0006C408CEA040C82EA0C02C1E902C2C1E971
:101BB0000054B9F1070FA8BFBDE8F08F02F0FF0A8B
:101BC00000EB126B10F80AA09BF800B0C2F3072ECE
:101BD0004AEA0B6AC2F3074B10F80EE010F80BB09C
:101BE0004FEA0B4B4BEA0E2B4AEA0B0A8AEA08082B
:101BF00087EA08077E407340C1E90663C1E90487AC
:101C0000ACE70000C0540108C05601082DE9F047B8
:101C100084B01F46DDF830A091468846060018BF04
:101C2000B8F1000F0FD0002F18BFBAF1000F0AD083
:101C3000B9F1000F02DD19F00F0F09D004B040F622
:101C40001D40BDE8F08704B04FF44260BDE8F08766
:101C5000307910F0020F13BF40F61E4000246D468D
:101C600004B018BFBDE8F0875FF0000004EB80010E
:101C700058F8011009BA45F82010401C0428F5DB7B
:101C8000736A6846014606F12802182B04D0202BFF
:101C900005D0FEF7E5FB04E0FEF7C6FF01E0FFF725
:101CA0003DFC4FF0000C00BF55F82C0004EB8C01FC
:101CB00000BA0CF1010C7850BCF1040FF4DB1034C5
:101CC0004C45D1DBCAF8004004B00020BDE8F087E5
:101CD000032300F067B800002DE9F04784B01F46E9
:101CE000DDF830A091468846060018BFB8F1000F15
:101CF0000FD0002F18BFBAF1000F0AD0B9F1000FB2
:101D000002DD19F00F0F09D004B040F61D40BDE808
:101D1000F08704B04FF44260BDE8F087307910F0EE
:101D2000020F13BF40F61E4000246D4604B018BFDA
:101D3000BDE8F0875FF0000004EB800158F8011067
:101D400009BA45F82010401C0428F5DB736A684680
:101D5000014606F12802182B04D0202B05D0FEF7EF
:101D600009FD04E0FFF752FA01E0FFF761FD4FF0D3
:101D7000000C00BF55F82C0004EB8C0100BA0CF1EC
:101D8000010C7850BCF1040FF4DB10344C45D1DB6E
:101D9000CAF8004004B00020BDE8F087022300F03C
:101DA00001B80000002818BF002905D003F0060C78
:101DB0002AB9BCF1020F02D04FF4426070472DE9FE
:101DC000F043446A89B0102C1CBF182C202C06D17B
:101DD000BCF1020F08D00469641E102C04D309B0B2
:101DE00040F61F40BDE8F083C2600479BCF1020FE9
:101DF00024F00604047149D0002444618461C46164
:101E000004620569002DD8BF4FF0000C06DD15F007
:101E1000010C03D0167844EA066444616545C8BFE6
:101E2000182433DD4FEAEC750CEB957525F00306AD
:101E30003718ACEB060607F1140512F80C80764251
:101E40007F6904EBC60608FA06F63E432E600CF1E5
:101E50000107FE1707EB967525F0030606EB000851
:101E600002EB0C09BE1B08F1140599F801907642AB
:101E7000D8F8148004EBC60609FA06F648EA060606
:101E80002E6005690CF1020C6545CBDC027912F07D
:101E9000010F55D1816013F0010F0DD006229A4336
:101EA0000AD0426A0B4600F128014FEAE27C00208A
:101EB0006C4602EB9C7C2FE000F1280C426A00206B
:101EC000D3176C4602EB937306E000BF51F8205025
:101ED0002DBA44F82050401CB0EBA30FF6DB102ABB
:101EE00004D0182A07D0202A2AD109E061462046CA
:101EF000FEF760FE24E061462046FFF7A9F81FE0E8
:101F000061462046FFF714FE1AE000BF53F8205048
:101F10002DBA44F82050401CB0EBAC0FF6DB102A71
:101F200007D0182A09D0202A04BF2046FFF7DCF882
:101F300006E02046FEF7A6FD02E02046FEF7FCFF85
:101F400009B00020BDE8F08310B590B0FD48FE490F
:101F50000860FE48FE49086001211C200BF08AF849
:101F60000FA801F0F5FD0024AEE004EB840000EBC7
:101F7000C400F84901EB80008089ADF83C001020D6
:101F80008DF83F0001208DF83E0004EB840101EB49
:101F9000C401F04A02EB810188680FA901F040FDFD
:101FA00004EB840000EBC400EA4901EB8000808868
:101FB000ADF83C0004EB840101EBC401E54A52F8A2
:101FC00021000FA901F02CFD04EB840000EBC400FC
:101FD000E04901EB8000808AADF83C0018208DF8C4
:101FE0003F0004EB840101EBC401DA4A02EB8101FA
:101FF00008690FA901F014FD04EB840000EBC40094
:10200000D44901EB8000806950B304EB840000EBFD
:10201000C40001EB8000808BADF83C0000208DF8FF
:102020003F0001208DF83E0004EB840101EBC40168
:10203000C84A02EB810188690FA901F0F1FC04EBA9
:10204000840202EBC402C34B03EB8202918B04EBCC
:10205000840202EBC40203EB8202906901F074FD7A
:1020600004EB840202EBC402BA4B03EB82029189B7
:1020700004EB840202EBC40203EB8202906801F0DD
:1020800063FD04EB840202EBC402B24B03EB820259
:10209000918804EB840202EBC40253F8220001F0A1
:1020A00053FD04EB840202EBC402AA4B03EB820251
:1020B000918A04EB840202EBC40203EB82021069F2
:1020C00001F042FD601CC4B2032CFFF64EAF0024A9
:1020D00012E0A14830F81400ADF83C0028208DF83B
:1020E0003F0001208DF83E009C4951F824000FA9C3
:1020F00001F096FC601CC4B2032CEADB1D208DF8B5
:10210000140000208DF815008DF8160001208DF8C0
:10211000170005A80AF092FD012102200AF09AFF9B
:102120000BA80DF015FA40F2E7300D90EF20ADF856
:102130002C000020ADF838000C900BA988480DF059
:10214000D9F906A80DF0CCF97020ADF818000120DF
:10215000ADF81A004FF6FF7008900020ADF824008B
:1021600006A97F480DF0A7F808217D480DF0D4F8A6
:1021700006A97B480DF0D9F8082179480DF01AF925
:1021800006A977480DF023F9082175480DF062F98A
:1021900006A973480DF067F9082171480DF093F90D
:1021A00001216F480DF052F801216D480DF05DF8E6
:1021B000012211466A480DF075F8012104200AF049
:1021C00059FF0120ADF83C0018208DF83F00012098
:1021D0008DF83E000FA9634801F022FC0121082080
:1021E0000AF048FF4FF40070ADF83C0018208DF85D
:1021F0003F0001208DF83E000FA95B4801F010FC64
:10220000012105200AF026FF4FF47A700D9064201A
:102210008DF83A000020ADF838000C900BA94FF073
:1022200080400DF067F97020ADF818000120ADF87E
:102230001A00002008900220ADF8240006A94007EB
:102240000DF039F80821C8060DF066F8012188075D
:102250000CF0FCFF012188070DF007F84FF47A70AD
:102260000D9004208DF83A000020ADF838000C9055
:102270000BA93E480DF03EF97020ADF81800012082
:10228000ADF81A0000200890ADF8240006A93748E0
:102290000DF0E9F8082135480DF015F90121334812
:1022A0000CF0D4FF012131480CF0DFFF0121480779
:1022B0000AF0D0FE01A800F0CFFD002001900290AE
:1022C00003900220049001A9002000F099FD002055
:1022D000039001A9102000F093FD0121002000F0DF
:1022E0007BFD0121102000F077FD4FF41B72114699
:1022F000002000F09FFD1E4890F834001C49C96C76
:1023000001EB810202EBC101124A02EB810181F86B
:102310003100174890F868001549D1F8801001EB9A
:10232000810202EBC1010B4A02EB810181F831000D
:102330000F4890F89C000E49D1F8B41001EB8102CF
:1023400018E00000A4810120A4020020703D0220BA
:10235000AC020020F40100209C020020900200202A
:102360000004004000080140000C0140000800404B
:102370002014002002EBC101504A02EB810181F8D8
:1023800031004F4890F8D8004D49C96C01EB8102EB
:1023900002EBC101494A02EB810181F83200484851
:1023A00090F8DC004649D1F8801001EB810202EB85
:1023B000C101424A02EB810181F83200404890F8A5
:1023C000E0003F49D1F8B41001EB810202EBC101FA
:1023D0003A4A02EB810181F832003A48B0F85C00D9
:1023E00000B23749C96C01EB810202EBC101334AEB
:1023F00002EB810188853348B0F8600000B23049B3
:10240000D1F8801001EB810202EBC1012B4A02EBF3
:10241000810188852B48B0F8640000B22849D1F8C2
:10242000B41001EB810202EBC101244A02EB8101ED
:102430008885234890ED100AB8EEC00A9FED221A55
:10244000C0EE010A90ED0C0AB8EEC00A80EE201A28
:10245000BDEEC10A1D4880ED000A194890ED1D0A25
:10246000B8EEC00A9FED181AC0EE010A90ED190AE5
:10247000B8EEC00A80EE201ABDEEC10A144880ED05
:10248000000A0F4890ED2A0AB8EEC00A9FED0E1A16
:10249000C0EE010A90ED260AB8EEC00A80EE201ABE
:1024A000BDEEC10A0B4880ED000A00200A49087001
:1024B0000A4908700A49087010B010BDF4010020E4
:1024C000201400200815002000247449B8020020C0
:1024D000BC020020C0020020C4020020C50200206F
:1024E000C60200200020014908607047B4020020A5
:1024F0004FF47A700149086070470000B402002070
:1025000000EB800101EBC001144A02EB810191F85C
:10251000321081F0010179B100EB800101EBC001C3
:1025200002EB8101898800EB800202EBC0020B4BB9
:1025300053F8222011610FE000EB800101EBC00194
:10254000064A02EB8101898800EB800202EBC0029F
:10255000024B53F82220516170470000F401002023
:1025600000EB800101EBC001134A02EB810191F8FD
:10257000321079B100EB800101EBC00102EB810167
:10258000898800EB800202EBC0020B4B53F822203B
:1025900011610FE000EB800101EBC001064A02EB84
:1025A0008101898800EB800202EBC002024B53F8E4
:1025B0002220516170470000F40100202DE9F04114
:1025C00004460D4640F61F406043642190FBF1F63F
:1025D00040F61F40684390FBF1F7B2B2B9B2002059
:1025E00000F028FCBDE8F08108B5012104200AF0C4
:1025F00041FD684601F0ACFA4FF4C050ADF8000060
:1026000010208DF8030002208DF80200694604486E
:1026100001F006FA4FF48051014801F095FA08BD27
:10262000000801401FB50124019A91B2009801F001
:102630008DFA052010F012FC019A91B2009801F079
:1026400083FA04E0012010F009FC601CC4B2039A74
:1026500091B2029801F06FFA08B1642CF2DB052008
:1026600010F0FCFB019A91B2009801F06DFA1FBDC9
:102670002DE9FC41044604226946204601F054F944
:10268000BDF80000BDF8021000EB0145BDF80400E4
:10269000BDF8061000EB0148B4F1006F02D94FF00D
:1026A000006001E04FF000500646A71B3946304657
:1026B0000AF006FB00BF85F3088800BF72B6C0476A
:1026C000BDE8FC8100BFFEE70146CAB20B1243EA37
:1026D0000220704770B502460C4600200021144DC0
:1026E000B5F836582BB2124DB5F83C58032D1EDD07
:1026F0000F4DB5F83458A5B100BF04E00C4D6D5C2A
:1027000055544D1C29B20A4DB5F834588D42F5DCAC
:10271000074DB5F8345828B20025054EA6F83458B0
:1027200001E04FF0FF300025014EA6F83C5870BD87
:10273000520B002030B5034600221D48B0F8340883
:1027400040F63404A04203DB0020194CA4F83408FE
:10275000002219E0985C164CB4F83448144D285502
:102760002846B0F83408401C2C46A4F8340820460B
:10277000B0F8340840F63404A04203DB00202C46B5
:10278000A4F83408501C82B20948B0F8340840F666
:102790003404A04201DA8A42DCDB0120054C2070BF
:1027A00000BF044800780028FBD1084630BD000077
:1027B000140300200400002008B50020009022E14E
:1027C0009748008800F00F00964908700846007886
:1027D00000287CD194480068944908800846008805
:1027E00000F03000924908809048008800F4405082
:1027F0008E4908808C4909684BF6BF7201EA0200D5
:1028000080F4005080F0200040F4004141F080014D
:10281000854A11608248008800F0100090BB104685
:10282000006848F60F710840114608600AF09AF9EE
:102830007D4909684BF6BF7201EA02007B490988AD
:1028400001F4805109B180F480507849098801F47D
:10285000005109B180F400507549098801F0100158
:1028600009B180F010007249098801F0200109B116
:1028700080F0200081B241F4004141F080016A4AB9
:10288000116008BDFFE76848006880B20090BDF89D
:10289000000000F40060B0B363480068C0F30E00AD
:1028A00048F68F710840604908600AF01FFF5E49D2
:1028B00009684BF6BF7201EA02005C49098801F41D
:1028C000805109B180F480505849098800E056E0F1
:1028D00001F4005109B180F400505549098801F014
:1028E000100109B180F010005149098801F0200160
:1028F00009B180F0200081B241F4004141F0800133
:10290000494A1160BDE7FFE7BDF8000000F4004050
:10291000002878D044480068C0F30E0048F68F7154
:102920000840414908600AF071FA3F4909684BF6CE
:10293000BF7201EA02003D49098801F4805109B1E2
:1029400080F480503949098801F4005109B180F4BC
:1029500000503749098801F0100109B180F01000DA
:102960003349098801F0200109B180F0200081B2CB
:1029700041F4004141F080012B4A116081E7294870
:1029800000782C4901EB8000D0F8000C80B2009058
:10299000BDF8000000F40040C0B12248007801EB0F
:1029A0008000D0F8000CC0F30E0048F68F7108408C
:1029B0001C4909781F4A02EB8101C1F8000C194932
:1029C0000978491E1C4A52F821008047BDF80000D2
:1029D00000F08000B8B113480078164901EB800080
:1029E000D0F8000C48F60F7108400E490978114ADA
:1029F00002EB8101C1F8000C0A490978491E0F4A0F
:102A000052F82100804708484430006880B20449E9
:102A1000088000F4004000287FF4D2AE00BF30E709
:102A200034000020D0010020005C0040E4010020C0
:102A3000E601002000500040540000203800002033
:102A40000B4A02EB8001D1F8001C01F4804171B106
:102A500002EB8001D1F8001C48F68F7211404CF255
:102A600080021143024B03EB8002C2F8001C704746
:102A7000005000400B4A02EB8001D1F8001C01F02D
:102A8000400171B102EB8001D1F8001C48F68F7251
:102A9000114048F2C0021143024B03EB8002C2F81E
:102AA000001C704700500040084A02EB8001D1F83A
:102AB000001C48F68F62114048F280021143034B1C
:102AC00003EB8002C2F8001C704700000050004079
:102AD0002DE9F041CEB006460F46142102A8FDF7BD
:102AE000EDFBAE4805682D02FF3561208DF808002A
:102AF00062208DF8090063208DF80A0031208DF8DE
:102B00000B0032208DF80C0033208DF80D0034209E
:102B10008DF80E0035208DF80F0036208DF810004E
:102B200037208DF8110038208DF812006A208DF8BA
:102B3000130061208DF8140074208DF815006C20AE
:102B40008DF8160072208DF817008DF8180000F02F
:102B50003FF900208DF8200010200B9010900022EB
:102B600002A907A8FFF71AF92D028D48006805444D
:102B70002D028C4800680544A846D6E900010844A7
:102B8000B1684518002419E00F2000EA2570864935
:102B900008550846005D092804DC0846005D303011
:102BA000085508E08048005D0A387F490855084606
:102BB000005D413008552D01601CC4B2082CE3DBD8
:102BC000B068C513AD00307900F0030005442D0155
:102BD0000F21306801EA207005446D043088C0F38D
:102BE0000800054419E00F2000EA25706E490855D9
:102BF0000846005D092804DC0846005D30300855B1
:102C000008E06948005D0A38674908550846005DD4
:102C1000413008552D01601CC4B2102CE3DB4DA8D7
:102C2000624B10226049009007A8FFF755F85F48F3
:102C300005782D02407805442D025C4880780544D3
:102C40002D025A48C078054459480560574805790F
:102C50002D02407905442D025448807905442D0207
:102C60005248C0790544524845605048057A2D02C3
:102C7000407A05442D024D48807A05442D024B4888
:102C8000C07A05444A48856000683968884209D19D
:102C9000474840687968884204D145484068796867
:102CA000884204D043480088401C424908800024E0
:102CB00005E018F8040002A90855601CC4B20C2CE9
:102CC000F7DB00F045FE002406E03B4911F8240044
:102CD00036490855601CC4B2102CF6DB00F078F8B9
:102CE00000208DF8200010200B901090002202A9E7
:102CF00007A8FEF7EDFF4DA82B4B10222B490090A3
:102D000007A8FEF783FF002401E0601CC4B20A2C70
:102D100005DA2548005D2949095D8842F5D00A2C6D
:102D200036DA2548056C264885422CD03AF068FDF5
:102D3000214800F0B5FB002408E01C4A115D1E4A42
:102D400002EB840000F07EFD601CC4B2102CF4DBAA
:102D50001C48006838601B484068786019488068E3
:102D6000B86017491448803000F06CFD002407E07B
:102D7000154901EB8400002100F064FD601CC4B221
:102D8000102CF5DB04E011480088401C0F49088036
:102D900000F0AEFC4EB0BDE8F0810000040300205E
:102DA0001003002000030020E4FF0220F4FF0220B3
:102DB000040003200A03002000E0030800120008BA
:102DC000129446321000032000D8030808030020A4
:102DD000012140200AF02EB939B1084A12680123B6
:102DE00083401A43054B1A6006E0044A1268012327
:102DF00083409A43014B1A60704700000074004002
:102E000030B5002200230A4C226840F6FE7484404C
:102E1000A243D1E900452C438D682C43CD6844EA98
:102E2000050303FA00F42243014C226030BD000088
:102E30000074004030B500240023082802D142EA83
:102E4000012401E042EA0144024B00F120052B4439
:102E50001C6030BD00740040002101604160816051
:102E6000C16070472DE9F0472848006800F110055F
:102E70002E8826480068077ADEB9042F19D1244825
:102E80000078012810D100212248006880B2801CFF
:102E9000214A126842F8101030202049088000BFF3
:102EA00000201B49087003E0072710201B490880F9
:102EB00027E0AC88A64201D8042000E002200746A3
:102EC000B44200D93446A0B2A968884780460020A1
:102ED00009F010FE8146A2B2494640460CF03AFC89
:102EE000A1B200200AF0B2FA2888001B2880688866
:102EF0002044688030200949088000020849088081
:102F000000BF024909680F72BDE8F087D4010020B4
:102F1000CC010020505C0040E8010020E6010020C8
:102F2000E40100202DE9F0412548006800F110047B
:102F30002688A068C0B1BEB1A588B54200D9354683
:102F4000A8B2A168884707462088401B2080608877
:102F500028446080002009F0A9FD8046AAB24146BD
:102F6000384609F07BFF00BF208818B14FF440506D
:102F7000144908802088A188884204DB0320104976
:102F80000968087219E02088002804DD05200C4932
:102F90000968087211E0208878B906200849096894
:102FA000087200210848006880B2801C074A126835
:102FB00042F81010302006490880BDE8F08100007A
:102FC000D4010020E4010020505C0040E801002012
:102FD000E60100202DE9F84F9B480068457800275E
:102FE000BA46062D1BD198480068007800F07F0093
:102FF000002813D1944909688878012803D193499E
:103000000968CF690AE0022803D1904909680F6A6C
:1030100004E0032802D18D4909684F6A94E0002D2D
:1030200064D189480068408800285FD186480068DC
:10303000C08802285AD1844800680079002855D1F8
:1030400081480068007800F07F0028B97E48006859
:10305000808808B97E4F77E07B480068007800F0F0
:103060007F00012810D178490968487977490968B3
:103070008A6900219047002866D173480068807AE9
:10308000002861D0724F5FE06F480068007800F060
:103090007F00022858D16C480068407900F00F0684
:1030A00069480068407900F0700967480068407915
:1030B00000F0800038B1674901EB8600D0F8000CC1
:1030C00000F0300806E0634901EB8600D0F8000C00
:1030D00000F4405860480078B04235D9B9F1000F8B
:1030E00032D1B8F1000F2FD0594F2DE0082D07D164
:1030F00055480068007800F07F0028BB574F23E058
:103100000A2D21D150480068007800F07F00012886
:103110001AD14D480068807AB0B14B4800684088A9
:1031200090B949480068007970B947480068C0887C
:10313000012809D1444909684879444909688A69DC
:103140000021904700B9464F57B13F480068A0F8AA
:1031500012A03D48006887610020B84700240FE0B6
:10316000394A12685078394A12681169884704460A
:10317000032C05D10920344909680872BDE8F88F8D
:1031800031480068008A4FF6FF71884204D1092057
:103190002D4909680872F1E7022C03D02A4800681B
:1031A000008A20B90820284909680872E6E72648FD
:1031B0000068007800F08000E0B323480068C08811
:1031C000009021480068008A0099884204D91E496D
:1031D00000980968088223E01B480068008A1A49A1
:1031E0000968C98888421BDA17480068008A1749AD
:1031F000096891F82C10884203DA002019490870F8
:103200000EE011480068008A1049096891F82C10F6
:1032100090FBF1F201FB120010B901201149087076
:103220000A48006890F82C10074800688182FFF770
:1032300019FE07E0FFE7032003490968087200034D
:103240000949088000BF99E7D4010020D801002077
:1032500091D90008005000407C00002015D90008DA
:1032600065D90008CC010020E4010020704700006F
:1032700070B5002400252448B0F834082249B1F87C
:103280003618884200D170BD1F48B0F834081E4976
:10329000B1F83618884208DD1B48B0F834081A49DE
:1032A000B1F83618401A84B206E01748B0F836086C
:1032B00040F63401081A84B21348B0F83658402C4E
:1032C00000DD40241048B0F8360820440E49A1F82B
:1032D00036080846B0F8360840F63401884203DB69
:1032E00000200949A1F83608074948192246C0219B
:1032F0000CF030FA214601200AF0A8F801200AF06B
:10330000D5F800BFBFE700001403002010B500246B
:10331000032009F0DDFB0F4908800F49B1F834188C
:103320000D4A88180B490A884FF4887109F096FDF8
:103330000948B0F834080749098808440649A1F843
:10334000340803200AF056F800200349A1F83C088D
:1033500010BD000006000020520B0020014908604B
:103360007047000014040140002123498279002A9B
:103370003AD00A46126803689A430B461A600A1D3F
:10338000126803689A430B1D1A60027911440A6897
:1033900003681A430A60184A0832126803689A439D
:1033A000154B08331A601A1D126803689A43124BB2
:1033B0000C331A604279102A0ED11A1F1268036862
:1033C0001A430D4B08331A601A1D126803681A431A
:1033D000094B0C331A600DE00749427911440A6821
:1033E00003681A430A6005E0027911440A68036819
:1033F0009A430A607047000000040140032001491D
:10340000086070470401002010B516480088C0B25B
:10341000FE2825D000F09CFA00F0C0F8FE211148EB
:1034200000F0E4F900BF00BF00BF00BF00BFBFF362
:103430004F8F00BF00BF00BF0B48006800F4E06082
:103440000A490843001D0849086000BF00BF00BFCB
:10345000BFF34F8F00BF00BF00BF00BF00BFFDE73D
:1034600010BD000010F8FF1F0CED00E00000FA0591
:1034700070B504460D46042600F06AFA08E02046BE
:1034800000F00EF80646042E00D003E004F50064B8
:10349000AC42F4D900BF00F02BF9304670BD0000FB
:1034A00030B504460425B4F1046F24D3681F00F03E
:1034B00085FA0546042D1CD13648006840F002000C
:1034C00034499039C1F890000846C0F89440D0F8CB
:1034D000900040F040002F490860681F00F06EFA2D
:1034E00005462C489038D0F8900020F00200294979
:1034F0000860284630BD2848844221D84FF08050CB
:1035000000F036FA0546042D41D122489038006972
:1035100040F002001F499039086108464461006983
:1035200040F040000861C80300F022FA054619483F
:103530009038006920F0020016499039086126E0B1
:103540001548844223D9B4F1016F20D24FF0805046
:1035500000F021FA0546042D19D10E489038006D6F
:1035600040F002000B499039086508464465006D3B
:1035700040F040000865C80300F00DFA0546054814
:103580009038006D20F00200024990390865284605
:10359000B0E7000090200240FFFF070830B5A525E6
:1035A000042400F099F800B100254FF0805000F09D
:1035B00018FA0446042C37D11C481D4988601D4860
:1035C00088600846006940F02000086108460069EC
:1035D00040F040000861C80300F003FA0446042CE0
:1035E0001AD11348006920F02000114908610846EB
:1035F000006940F0100008610F4805804FF47040EA
:1036000000F0EFF90446052C0ED00948006920F0BF
:1036100010000749086107E0052C05D0044800693F
:1036200020F0100002490861204630BD23016745A3
:1036300000200240AB89EFCD00F8FF1F04200B49AA
:10364000C96801F0010109B101200EE00749C9680C
:1036500001F0040109B1022007E00449C96801F042
:10366000100109B1032000E004207047002002404F
:1036700004200B49C96C01F0010109B101200EE0E1
:103680000749C96C01F0040109B1022007E00449AF
:10369000C96C01F0100109B1032000E0042070475B
:1036A0000020024004200B49096801F0010109B122
:1036B00001200EE00749096801F0040109B1022068
:1036C00007E00449096801F0100109B1032000E096
:1036D000042070478C20024000200449C96901F091
:1036E000020109B1012000E00020704700200240E3
:1036F0000548006940F08000034908610846006DF4
:1037000040F08000086570470020024070B5044614
:103710000D460426B4F1046F1ED34FF4704000F040
:103720004DF90646042E15D12E48006840F00100E0
:103730002C49086025804FF4704000F03FF90646A0
:1037400028489038D0F8900020F0010025499039A1
:10375000C1F89000304670BD234884421DD84FF414
:10376000704000F005F90646042E39D11D48903806
:10377000006940F001001B499039086125804FF431
:10378000704000F0F5F8064616489038006920F0C1
:10379000010014499039086122E0134884421FD97E
:1037A000B4F1016F1CD24FF4704000F0F4F80646FB
:1037B000042E15D10B489038006D40F001000949E6
:1037C0009039086525804FF4704000F0E4F8064613
:1037D00004489038006D20F00100024990390865D6
:1037E0003046B8E790200240FFFF070870B5054655
:1037F0000E4604244FF4704000F0F3F80446042C05
:1038000017D10D480D4988600D4888600846006949
:1038100040F0100008612E804FF4704000F0E1F895
:103820000446052C05D00548006920F01000034926
:103830000861204670BD000023016745002002405A
:10384000AB89EFCD78B504460D46042600200090E4
:10385000B4F1046F1ED34FF4704000F0AFF8064689
:10386000042E15D12E48006840F001002C49086054
:1038700025604FF4704000F0A1F8064628489038C3
:10388000D0F8900020F0010025499039C1F890004F
:10389000304678BD234884421DD84FF4704000F074
:1038A00067F80646042E39D11D489038006940F06B
:1038B00001001B499039086125604FF4704000F009
:1038C00090F8064616489038006920F00100144927
:1038D0009039086122E0134884421FD9B4F1016F86
:1038E0001CD24FF4704000F056F80646042E15D155
:1038F0000B489038006D40F0010009499039086587
:1039000025604FF4704000F046F8064604489038B1
:10391000006D20F001000249903908653046B8E793
:1039200090200240FFFF070830B503460C461546BD
:10393000002207E003EB420000F007F824F8120031
:10394000501C82B2AA42F5DB30BD014608887047A0
:1039500004480549486005484860024848640348EF
:10396000486470472301674500200240AB89EFCDD2
:1039700000B502460423FFF761FE034603E0FFF7AC
:103980005DFE0346521E012B01D1002AF7D102B978
:103990000523184600BD00B502460423FFF768FE64
:1039A000034603E0FFF764FE0346521E012B01D1DC
:1039B000002AF7D102B90523184600BD00B502461A
:1039C0000423FFF76FFE034603E0FFF76BFE034699
:1039D000521E012B01D1002AF7D102B90523184646
:1039E00000BD00B502460423FFF728FE034603E0AE
:1039F000FFF724FE0346521E012B01D1002AF7D106
:103A000002B90523184600BD70B504460D46FFF700
:103A10009FFF29462046FFF779FEFFF769FE70BD3C
:103A20002DE9F04102460025002600200023002455
:103A3000002791F803C00CF00F0591F803C00CF0BB
:103A4000100CBCF1000F03D091F802C04CEA050540
:103A500091F800C0BCF1000F31D0146800202BE0B9
:103A60004FF0010C0CFA00F3B1F800C00CEA0306A9
:103A70009E4220D183004FF00F0C0CFA03F7BC4399
:103A800005FA03FC4CEA040491F803C0BCF1280FCA
:103A900006D14FF0010C0CFA00FCC2F814C00AE089
:103AA00091F803C0BCF1480F05D14FF0010C0CFA9E
:103AB00000FCC2F810C0401C0828D1D31460B1F833
:103AC00000C0BCF1FF0F34DD546800202EE000F18F
:103AD000080C4FF0010808FA0CF3B1F800C00CEA2A
:103AE00003069E4221D183004FF00F0C0CFA03F71E
:103AF000BC4305FA03FC4CEA040491F803C0BCF192
:103B0000280F05D100F1080C08FA0CF8C2F814804F
:103B100091F803C0BCF1480F07D100F1080C4FF039
:103B2000010808FA0CF8C2F81080401C0828CED30F
:103B30005460BDE8F0810246002093680B400BB151
:103B4000012000E00020704741617047016170472B
:103B50004FF6FF710180022181700421C17070470E
:103B600000200349088001200249088070470000B6
:103B7000A2010020A0010020014800887047000039
:103B8000A00100201020014908807047A0010020FA
:103B900000B5A1B000201C90FB480088022808F066
:103BA0009D8604DC50B1012848F05B8708E00328BB
:103BB00008F095861028F7D108F0C9BE08F051BF6B
:103BC000F248C06C10B101280CD105E0EF48B0F804
:103BD000500080B21F9005E0EC48B0F8500080B271
:103BE0001E9000BF00BFE948D0F8800010B1012846
:103BF0000CD105E0E548B0F8840080B21F9005E0E4
:103C0000E248B0F8840080B21E9000BF00BFDF48D9
:103C1000D0F8B40010B101280CD105E0DB48B0F8B1
:103C2000B80080B21F9005E0D848B0F8B80080B264
:103C30001E9000BF00BF1E98C1B20D911F98C1B267
:103C40000C91DDE90C01FEF7B9FCD148406806286B
:103C5000C8F24386CF4800880F2888F23E86CC48B9
:103C60004188A0F58030405CA038082888F0328672
:103C7000DFE810F00800A1087610A41F2637C04323
:103C8000EC45ED45C248406806287DDBC2481D90E2
:103C9000BF484088401CC149095CC148BD4A1288E0
:103CA00050F82200C164BE48BA49098850F8210082
:103CB000C06C0002BA49B74A128851F82210C86491
:103CC000B748B449098850F82100C16CB048408811
:103CD000801C80B2B14A105C0144B148AD4A1288E0
:103CE00050F82200C164AE49AA48008851F820006B
:103CF000C06C0002A74A128851F82210C864A84973
:103D0000A448008851F82000C16CA1484088C01C1C
:103D100080B2A24A105C0844A1499E4A128851F818
:103D20002210C8649E499B48008851F82000C06C4E
:103D30000002984A128851F82210C86498499548A0
:103D4000008851F82000C16C91484088001D80B265
:103D5000924A105C084492498E4A128851F8221007
:103D6000C8649FED900A8E488A49098850F821005E
:103D700080ED000A9FED8B0A89488649098850F832
:103D8000210080ED010A00E0FEE39FED860A8448F1
:103D90008049098850F8210080ED020A7C4840885B
:103DA000801D81B27A4841804068801F7849486010
:103DB0007D48806CA8B37548806C90B37348006BE5
:103DC000059010F080F89FED790B53EC102BCDE9A6
:103DD00006019DED060B51EC100B0FF0EDFECDE949
:103DE00008019DED080B51EC100B0FF0EBFD9FED62
:103DF000710B53EC102BCDE90A019DED0A0B51EC30
:103E0000100B10F0C7F8CDE90C019DED0C0B51EC37
:103E1000100B0FF0E3FD62495E4A128851F8221040
:103E200008606148C06CA8B35848C06F90B3574849
:103E3000406E059010F047F89FED5C0B53EC102B93
:103E4000CDE906019DED060B51EC100B0FF0B4FE11
:103E5000CDE908019DED080B51EC100B0FF0B2FD00
:103E60009FED540B53EC102BCDE90A019DED0A0B8D
:103E700051EC100B10F08EF8CDE90C019DED0C0B00
:103E800051EC100B0FF0AAFD4549424A128851F837
:103E9000221048604448006DB8B33C48D0F8B000E8
:103EA00098B33A48D0F89800059010F00CF89FEDC0
:103EB0003F0B53EC102BCDE906019DED060B51ECA9
:103EC000100B0FF079FECDE908019DED080B51ECC8
:103ED000100B0FF077FD9FED370B53EC102BCDE956
:103EE0000A019DED0A0B51EC100B10F053F8CDE9CF
:103EF0000C019DED0C0B51EC100B0FF06FFD284ADF
:103F00002449098852F8211088602048D0F8E4003C
:103F100030B1012805D0022814D003285ED14DE02D
:103F20005CE01F481B49098850F8210090ED010A08
:103F3000B1EE400A1A491748008851F8200080ED78
:103F4000010A4BE016491348008851F8200090ED13
:103F5000000AB1EE400A08460E49098850F82100CF
:103F600080ED000A0E490B48008851F8200090EDC2
:103F7000010AB1EE400A08460649098850F82100B6
:103F800080ED010A2AE00000A0010020201400209A
:103F9000C0230120F6020020B2010020C02300202F
:103FA00094FF02200000000008150020000000001F
:103FB00000408F40000000000000F83FFD49FE482F
:103FC000008851F8200090ED000AB1EE400AFA484E
:103FD000008851F8200080ED000A00BF00BFF748BC
:103FE00090ED100AB8EEC00A8DED100A9DED100A92
:103FF000DFEDF30A80EE201A8DED101AED48EE4940
:10400000098850F8210090ED000ADFEDEE0A20EE5D
:10401000201A9DED100AC1EE000ACDED090A09989B
:1040200010F008FBCDE90A019DED0A0B0CF084FBB2
:104030008DED0C0B9DED0C0B51EC100B0FF014FFE4
:10404000DC49DD4A128851F822100864DB4890ED03
:104050001D0AB8EEC00A8DED100A9DED100ADFEDC5
:10406000D80A80EE201A8DED101AD248D24909885C
:1040700050F8210090ED010ADFEDD20A20EE201A5F
:104080009DED100AC1EE000ACDED090A099810F065
:10409000D1FACDE90A019DED0A0B0CF04DFB8DED37
:1040A0000C0B9DED0C0B51EC100B0FF0DDFEC1491C
:1040B000C14A128851F822104864C04890ED2A0A7B
:1040C000B8EEC00A8DED100A9DED100ADFEDBC0AB6
:1040D00080EE201A8DED101AB648B749098850F8BD
:1040E000210090ED020ADFEDB70A20EE201A9DEDC7
:1040F000100AC1EE000ACDED090A099810F09AFAEB
:10410000CDE90A019DED0A0B0CF016FB8DED0C0BB1
:104110009DED0C0B51EC100B0FF0A6FEA549A64A25
:10412000128851F822108864A248A349098850F8DF
:10413000210090ED000A20EE000A9E489E49098861
:1041400050F82100D0ED010A9A489B49098850F89F
:10415000210090ED011A00EE810A964996480088E8
:1041600051F82000D0ED020A08469349098850F81A
:10417000210090ED021A00EE810A8DED090A0998DE
:1041800010F058FACDE90A019DED0A0B0CF044FB42
:104190008DED0C0B9DED0C0B51EC100B0FF01EFC7C
:1041A0008449854A128851F82210C860B1EE040A89
:1041B00080488149098850F8210080ED060A82482C
:1041C000406D4FF47A7190FBF1F000EE100AB8EEFA
:1041D000C00A78487849098850F8210080ED070A1C
:1041E000B1EE040A73487449098850F8210080ED43
:1041F000080A9FED760A6F496F48008851F8200041
:1042000080ED040A9FED710A6B48008851F8200088
:1042100080ED050A00216748674A128850F822009D
:1042200081626449644A128851F822101D984863DB
:1042300000206049604A128851F8221048876420A3
:104240005C495D4A128851F8221008875A48008854
:10425000401C594908801FEDAD0A5648098850F89E
:10426000210080ED000A1FEDB10A52495248008832
:1042700051F8200080ED010A1FEDB60A08464E49AC
:10428000098850F8210080ED020A4F48806C58B12F
:104290004A48806C40B1B2EE040A4649464800885C
:1042A00051F8200080ED000A4748C06C58B14348DF
:1042B000C06F40B1B2EE040A3E483F49098850F849
:1042C000210080ED010A4048006D60B13B48D0F804
:1042D000B00040B1B2EE040A36483749098850F8B8
:1042E000210080ED020A3548D0F8E40030B1012801
:1042F00005D0022814D0032844D132E042E02D49F1
:104300002D48008851F8200090ED010AB1EE400AD6
:1043100008462949098850F8210080ED010A31E05A
:1043200024482549098850F8210090ED000AB1EE93
:10433000400A20492048008851F8200080ED000AFA
:1043400008461D49098850F8210090ED010AB1EE98
:10435000400A18491848008851F8200080ED010AE9
:1043600010E014481449098850F8210090ED000A23
:10437000B1EE400A0F491048008851F8200080ED46
:10438000000A00BF00BF0D4890ED100AB8EEC00A49
:104390008DED100A9DED100ADFED090A80EE201A5E
:1043A0008DED101A03480449098850F8210090ED5A
:1043B000000A0DE094FF0220F602002020140020E5
:1043C0000024744900007A44081500200000964437
:1043D0005FED040A20EE201A9DED100AC1EE000ADE
:1043E000CDED090A099810F025F9CDE90A019DEDF6
:1043F0000A0B0CF0A1F98DED0C0B9DED0C0B51ECA3
:10440000100B0FF031FDFE49FE4A128851F82210C0
:104410000864FD4890ED1D0AB8EEC00A8DED100A43
:104420009DED100A5FED1A0A80EE201A8DED101A2C
:10443000F349F448008851F8200090ED010A5FED3F
:104440001F0A20EE201A9DED100AC1EE000ACDEDE4
:10445000090A099810F0EEF8CDE90A019DED0A0B62
:104460000CF06AF98DED0C0B9DED0C0B51EC100B63
:104470000FF0FAFCE249E34A128851F8221048642E
:10448000E14890ED2A0AB8EEC00A8DED100A9DEDC4
:10449000100A5FED350A80EE201A8DED101AD8480B
:1044A000D849098850F8210090ED020A5FED3B0AD7
:1044B00020EE201A9DED100AC1EE000ACDED090A8A
:1044C000099810F0B7F8CDE90A019DED0A0B0CF040
:1044D00033F98DED0C0B9DED0C0B51EC100B0FF027
:1044E000C3FCC749C74A128851F822108864C448DF
:1044F000C449098850F8210090ED000A20EE000A16
:10450000BF49C048008851F82000D0ED010A084694
:10451000BC49098850F8210090ED011A00EE810A8B
:10452000B748B849098850F82100D0ED020AB449CB
:10453000B448008851F8200090ED021A00EE810A7C
:104540008DED090A099810F075F8CDE90A019DED85
:104550000A0B0CF061F98DED0C0B9DED0C0B51EC81
:10456000100B0FF03BFAA649A64A128851F8221008
:10457000C860B1EE040AA249A248008851F82000A0
:1045800080ED060AA14800E0FEE3406D4FF47A7129
:1045900090FBF1F000EE100AB8EEC00A9848994975
:1045A000098850F8210080ED070AB1EE040A94480A
:1045B0009449098850F8210080ED080A1FED7D0A12
:1045C0008F499048008851F8200080ED040A1FEDC3
:1045D000810A08468B49098850F8210080ED050AB8
:1045E00000208749874A128851F82210886284493E
:1045F000844A128851F822101D984863002080498F
:10460000804A128851F82210488764207C497D4AEC
:10461000128851F8221008877A480088401C79498E
:1046200008809FED7B0A7648098850F8210080EDCC
:10463000000A9FED770A72497248008851F82000FD
:1046400080ED010A9FED720A6E48008851F8200043
:1046500080ED020A6D48806C50B16B48806C38B1B7
:104660009FED6C0A6748008851F8200080ED000A31
:104670006648C06C58B16448C06F40B19FED650A90
:104680005F486049098850F8210080ED010A5F48C1
:10469000006D60B15C48D0F8B00040B19FED5D0A9C
:1046A00057495848008851F8200080ED020A5648C2
:1046B000D0F8E40030B1012805D0022813D0032837
:1046C00041D12FE03FE04E494E48008851F820008C
:1046D00090ED010AB1EE400A4A48008851F82000E6
:1046E00080ED010A2FE046494648008851F8200035
:1046F00090ED000AB1EE400A4248008851F82000CF
:1047000080ED000A3F48008851F8200090ED010A32
:10471000B1EE400A08463B49098850F8210080ED77
:10472000010A10E036493748008851F8200090ED22
:10473000000AB1EE400A08463249098850F82100C3
:1047400080ED000A00BF00BF2F4890ED100AB8EEC0
:10475000C00A8DED100A9DED100A5FEDE70A80EEAC
:10476000201A8DED101A26492648008851F820009D
:1047700090ED000A5FEDED0A20EE201A9DED100A83
:10478000C1EE000ACDED090A09980FF053FFCDE9FB
:104790000A019DED0A0B0BF0CFFF8DED0C0B9DED8B
:1047A0000C0B51EC100B0FF05FFB1549154A1288EA
:1047B00051F822100864144890ED1D0AB8EEC00AA2
:1047C0008DED100A9DED100ADFED130A80EE201A20
:1047D0008DED101A0A480B49098850F8210090ED18
:1047E000010ADFED0E0A20EE201A9DED100AC1EE3F
:1047F000000ACDED090A09980FF01CFF10E0000037
:1048000094FF0220F602002020140020081500204A
:1048100000000000000048C30024744900007A44EE
:10482000CDE90A019DED0A0B0BF086FF8DED0C0B17
:104830009DED0C0B51EC100B0FF016FBFD49FE4AE1
:10484000128851F822104864FC4890ED2A0AB8EE0C
:10485000C00A8DED100A9DED100A5FED110A80EE81
:10486000201A8DED101AF348F349098850F82100F9
:1048700090ED020A5FED170A20EE201A9DED100A56
:10488000C1EE000ACDED090A09980FF0D3FECDE97B
:104890000A019DED0A0B0BF04FFF8DED0C0B9DED0A
:1048A0000C0B51EC100B0FF0DFFAE249E24A1288D0
:1048B00051F822108864DF48DF49098850F8210048
:1048C00090ED000A20EE000ADA49DB48008851F832
:1048D0002000D0ED010AD848008851F8200090ED62
:1048E000011A00EE810A0846D349098850F82100D0
:1048F000D0ED020ACF48D049098850F8210090ED48
:10490000021A00EE810A8DED090A09980FF092FE55
:10491000CDE90A019DED0A0B0BF07EFF8DED0C0B2E
:104920009DED0C0B51EC100B0FF058F8C149C24A29
:10493000128851F82210C860B1EE040ABD49BE4881
:10494000008851F8200080ED060AB1EE040ABA484A
:10495000008851F8200080ED070AB1EE040A0846ED
:10496000B549098850F8210080ED080A9FEDB40A86
:10497000B048B149098850F8210080ED040A9FED44
:10498000B00AAC49AC48008851F8200080ED050A17
:104990000020A94A128851F822108862A549A64A27
:1049A000128851F822101D9848630021A148A24A9C
:1049B000128850F82200418764219E489E4A12883E
:1049C00050F8220001879C480088401C9A490880C2
:1049D0009C48806C90B19948806C78B1974890ED74
:1049E0000F0AB8EEC00A5FED730A80EE201A9149F3
:1049F0009148008851F8200080ED001A9148C06C61
:104A000090B18E48C06F78B18C4890ED1C0AB8EE1A
:104A1000C00A5FED7E0A80EE201A8649864800882B
:104A200051F8200080ED011A8648006D98B1834846
:104A3000D0F8B00078B1814890ED290AB8EEC00AEC
:104A40005FED8A0A80EE201A7A487B49098850F87F
:104A5000210080ED021A7948D0F8E40030B1012835
:104A600005D0022814D0032843D132E041E0714838
:104A70007149098850F8210090ED010AB1EE400A11
:104A80006C496D48008851F8200080ED010A30E043
:104A900068496948008851F8200090ED000AB1EE9D
:104AA000400A08466449098850F8210080ED000A50
:104AB00060496148008851F8200090ED010AB1EE8C
:104AC000400A08465C49098850F8210080ED010A37
:104AD0000FE058495848008851F8200090ED000A2E
:104AE000B1EE400A5448008851F8200080ED000AD9
:104AF00000BF00BF514890ED100AB8EEC00A8DED1E
:104B0000100A9DED100A5FEDBC0A80EE201A8DEDB3
:104B1000101A48494848008851F82000D0ED000A92
:104B20001FEDC20A20EE801A9DED100AC1EE000AA8
:104B3000CDED090A09980FF07DFDCDE90A019DED43
:104B40000A0B0BF0F9FD8DED0C0B9DED0C0B51ECF0
:104B5000100B0FF089F93749374A128851F82210A3
:104B60000864364890ED1D0AB8EEC00A8DED100AB3
:104B70009DED100A5FEDD80A80EE201A8DED101A17
:104B80002C482D49098850F8210090ED010A5FED6D
:104B9000DD0A20EE201A9DED100AC1EE000ACDEDCF
:104BA000090A09980FF046FDCDE90A019DED0A0BAF
:104BB0000BF0C2FD8DED0C0B9DED0C0B51EC100BB1
:104BC0000FF052F91B491C4A128851F82210486410
:104BD0001A4890ED2A0AB8EEC00A8DED100A9DED34
:104BE000100A5FEDF30A80EE201A8DED101A1148BD
:104BF0001149098850F8210090ED020A5FEDF90A89
:104C000020EE201A9DED100AC1EE000ACDED090A32
:104C100009980FF00FFDCDE90A019DED0A0B0BF08D
:104C20008BFD8DED0C0B9DED0C0B51EC100B0FF073
:104C30001BF909E094FF0220F60200202014002056
:104C40000000964408150020FD49FE4A128851F8DC
:104C500022108864FA49FB48008851F8200090ED42
:104C6000000A20EE000AF748008851F82000D0ED35
:104C7000010AF448008851F8200090ED011A00EE76
:104C8000810A0846EF49098850F82100D0ED020A50
:104C9000EB48EC49098850F8210090ED021A00EE2B
:104CA000810A8DED090A09980FF0C4FCCDE90A01CB
:104CB0009DED0A0B0BF0B0FD8DED0C0B9DED0C0B7B
:104CC00051EC100B0EF08AFEDD49DE4A128851F8D5
:104CD0002210C860B1EE040AD948DA49098850F8B0
:104CE000210080ED060AD848416D4FF47A7091FB9F
:104CF000F0F000EE100AB8EEC00AD149D1480088A1
:104D000051F8200080ED070AB1EE040A0846CD49AB
:104D1000098850F8210080ED080A1FED370AC849BC
:104D2000C848008851F8200080ED040A1FED3C0AB5
:104D30000846C449098850F8210080ED050A002181
:104D4000BF48C04A128850F822008162BC49BD4A5F
:104D5000128851F822101D9848630021B848B94ABA
:104D6000128850F8220041876420B549B54A12885C
:104D700051F822100887B3480088401C81B2B1481E
:104D800001800021B14800E013E00160B0480160FB
:104D90000020B04908600021AF480160AF480160C1
:104DA0000020AF4908600321AE4801800120AE49D0
:104DB000088007F08FBD00200E90AC484088401C52
:104DC000AB490A5C9E499F48008851F82000C264A4
:104DD0009C48008851F82000C06C01029848994A0C
:104DE000128850F82200C16495499648008851F80D
:104DF0002000C16C9D484088801C80B29C4A105C99
:104E000008448F498F4A128851F82210C8648C498F
:104E10008C48008851F82000C06C01028848894AFB
:104E2000128850F82200C16485488649098850F8E4
:104E30002100C16C8D484088C01C80B28C4A105C37
:104E400001447F487F4A128850F82200C1647C499F
:104E50007C48008851F82000C06C01027848794AEB
:104E6000128850F82200C16475487649098850F8C4
:104E70002100C16C7D484088001D80B27C4A105CD6
:104E800001446F486F4A128850F82200C164774885
:104E90004088401D81B2754841804068401F734979
:104EA00048600E98411D0E9172491D919FED720A46
:104EB00063486449098850F8210080ED000A9FED9D
:104EC0006E0A5F485F49098850F8210080ED010AA9
:104ED0009FED690A5A495B48008851F8200080ED2F
:104EE000020A01201B9000BF60484088401C80B22D
:104EF0005F49095C1C911C9801021C915B48408829
:104F0000801C80B25A49095C1C9801441C911C9871
:104F100001021C9155484088C01C80B25449095C6C
:104F20001C9801441C911C9801021C914F48408818
:104F3000001D80B24E49095C1C9801441C914B48ED
:104F400041884B48405C572873D006DC0D2871D04F
:104F5000552870D056286FD12DE2582804D05928F2
:104F60006BD05A28F7D130E140484068052865DB0E
:104F7000424890ED100AB8EEC00A8DED100A9DED82
:104F8000100ADFED3F0A80EE201A8DED101A9DED1C
:104F90001C0AB8EEC01A9DED100AC1EE000ACDED54
:104FA000090A09980FF046FBCDE90A019DED0A0BAD
:104FB0000BF0C2FB8DED0C0B9DED0C0B51EC100BAF
:104FC0000EF052FF1E491F4A128851F82210086441
:104FD0001B481C49098850F82100006C1B490968CE
:104FE000401A1749174A128851F8221008641448C9
:104FF0001449098850F82100016C144800680844DD
:10500000124908600E490F48008851F8200090EDC1
:10501000100AF8EEC00A9DED100A20EE800A094839
:10502000008851F8200080ED000A084605490988EB
:1050300028E045E2B5E24AE1C8E241E03FE0000095
:1050400094FF0220F602002008150020A401002091
:10505000A8010020AC010020B4010020B80100200C
:10506000BC010020A0010020F8020020C023012084
:10507000C0230020B2010020000000002014002006
:105080000024744950F8210090ED000ADFEDFE0A7B
:1050900080EE201AFD49FE48008851F8200080ED7E
:1050A000001AFC484088401D81B2FA48418040689F
:1050B000401FF84948600E98401D81B20E9186E26B
:1050C000F448406805287FDBF34890ED1D0AB8EEF0
:1050D000C00A8DED100A9DED100A5FED170A80EEF3
:1050E000201A8DED101A9DED1C0AB8EEC01A9DED28
:1050F000100AC1EE000ACDED090A09980FF09AFADC
:10510000CDE90A019DED0A0B0BF016FB8DED0C0BA2
:105110009DED0C0B51EC100B0EF0A6FEDB49DC4AAA
:10512000128851F822104864D848D949098850F8A3
:105130002100406CD9490968401AD449D44A1288E0
:1051400051F822104864D149D148008851F8200014
:10515000406CD24909680844D0490860CB48CC4922
:10516000098850F8210090ED110AF8EEC00A9DED73
:10517000100A20EE800AC549C548008851F8200071
:1051800080ED010A0846C249098850F8210090EDD7
:10519000010ADFEDBD0A80EE201ABC48BC4909882F
:1051A00050F8210080ED011ABA484088401D81B2B4
:1051B000B84841804068401FB64948600E98401D7D
:1051C00081B200E000E00E9101E2B248406805289B
:1051D0007CDBB14890ED2A0AB8EEC00A8DED100ACA
:1051E0009DED100A5FED5A0A80EE201A8DED101A1F
:1051F0009DED1C0AB8EEC01A9DED100AC1EE000A22
:10520000CDED090A09980FF015FACDE90A019DEDD7
:105210000A0B0BF091FA8DED0C0B9DED0C0B51EC84
:10522000100B0EF021FE9949994A128851F822106C
:10523000886496489649098850F82100806C9849FE
:105240000968401A9149924A128851F822108864DC
:105250008E488F49098850F82100806C9049096870
:1052600008448F49086089488949098850F8210015
:1052700090ED120AF8EEC00A9DED100A20EE800AA9
:1052800082488349098850F8210080ED020A7F494D
:105290007F48008851F8200090ED020ADFED7A0A7D
:1052A00080EE201A7A48008851F8200080ED021A1A
:1052B00078484088401D81B2764841804068401F50
:1052C000744948600E98401D81B20E917FE171488B
:1052D000406805286EDB704890ED100AB8EEC00AF1
:1052E0008DED100A9DED100A5FED9B0A80EE201AED
:1052F0008DED101A9DED1C0AB8EEC01A9DED100A36
:10530000C1EE000ACDED090A09980FF093F9CDE935
:105310000A019DED0A0B0BF00FFA8DED0C0B9DEDC4
:105320000C0B51EC100B0EF09FFD5849584A128897
:1053300051F82210086455485549098850F8210051
:10534000016C584800680144564801604F48504974
:10535000098850F8210090ED100AF8EEC00A9DED82
:10536000100A20EE800A49494948008851F8200077
:1053700080ED000A08464649098850F8210090ED62
:10538000000ADFED410A80EE201A404840490988B2
:1053900050F8210080ED001A3E484088401D81B23F
:1053A0003C4841804068401F3A4948600E98401D83
:1053B00081B20E910BE13748406805287FDB364803
:1053C00090ED1D0AB8EEC00A8DED100A9DED100A91
:1053D0005FEDD50A80EE201A8DED101A9DED1C0AA6
:1053E000B8EEC01A9DED100AC1EE000ACDED090A13
:1053F00009980FF01FF9CDE90A019DED0A0B0BF09A
:105400009BF98DED0C0B9DED0C0B51EC100B0EF080
:105410002BFD1E491E4A128851F8221048641B4970
:105420001B48008851F82000416C1C48006801446A
:105430001A48016015491648008851F8200090ED7F
:10544000110AF8EEC00A9DED100A20EE800A1048FD
:10545000008851F8200080ED010A08460C490988AF
:1054600050F8210090ED010ADFED070A80EE201AC6
:1054700006480749098850F8210080ED011A0548BF
:105480004088401D81B210E000007A4494FF022061
:10549000F6020020C023012020140020A8010020D3
:1054A000AC010020A401002009E0FD4841804068D3
:1054B000401FFB4948600E98401D81B20E9186E066
:1054C000F748406805286BDBF64890ED2A0AB8EEED
:1054D000C00A8DED100A9DED100ADFEDF30A80EE93
:1054E000201A8DED101A9DED1C0AB8EEC01A9DED24
:1054F000100AC1EE000ACDED090A09980FF09AF8DA
:10550000CDE90A019DED0A0B0BF016F98DED0C0BA0
:105510009DED0C0B51EC100B0EF0A6FCE349E44A98
:10552000128851F822108864E048E149098850F84F
:105530002100816CDF4800680144DE480160DB49DE
:10554000DB48008851F8200090ED120AF8EEC00AFE
:105550009DED100A20EE800AD548008851F8200001
:1055600080ED020AD248008851F8200090ED020A2E
:105570005FED3B0A80EE201ACD48008851F82000EC
:1055800080ED021AC6484088401D81B2C44841805F
:105590004068401FC24948600E98401D81B20E917C
:1055A00015E0BF48406801280FDBBD484088401C1B
:1055B00081B2BB4841804068401EB94948600E989E
:1055C000401C81B20E9100211B9100E000BF00BF82
:1055D0001B9838B1B848008820B1B7480088102817
:1055E0007FF482AC1B9800287ED1B048B04909886E
:1055F00050F8210090ED000A20EE000AAB48AC49BB
:10560000098850F82100D0ED010AA849A84800886F
:1056100051F8200090ED011A00EE810AA44800889C
:1056200051F82000D0ED020AA148008851F820006E
:1056300090ED021A00EE810A8DED090A09980EF02C
:10564000F9FFCDE90A019DED0A0B0BF0E5F88DEDB0
:105650000C0B9DED0C0B51EC100B0EF0BFF99349A8
:10566000934A128851F82210C860904990480088E7
:1056700051F82000D0ED030AB0EE000AF4EEC00AA3
:10568000F1EE10FA20DD8D4801694FF47A7091FB3C
:10569000F0F000EE100AB8EEC00A84498448008891
:1056A00051F8200080ED060A844890ED020AB8EE19
:1056B000C00A5FED8B0A80EE201A7D48008851F801
:1056C000200080ED071A20E07C4800694FF47A71D1
:1056D00090FBF1F000EE100AB8EEC00A734974486E
:1056E000008851F8200000E038E380ED060A084603
:1056F0006F49098850F8210090ED060A6B496C4803
:10570000008851F8200080ED070A6C4890ED030AEC
:10571000B8EEC00A5FEDA40A80EE201A634964481F
:10572000008851F8200080ED041A644890ED030AC7
:10573000B8EEC00A5FEDAC0A80EE201A08465C495C
:10574000098850F8210080ED051A58485849098801
:1057500050F8210090ED000AB5EEC00AF1EE10FA03
:105760007DD052485249098850F8210090ED000A36
:105770005FEDBB0A20EE200ABDEEC00A8DED0D0ADA
:105780000D98002801DB0D9801E00D98404200EED5
:10579000100AB8EEC00A45494548008851F8200073
:1057A000D0ED030A80EE801A8DED101A08464049AC
:1057B000098850F82100D0ED060A3A4890ED150A04
:1057C000B8EEC01A9DED100A21EE000AF4EEC00AF0
:1057D000F1EE10FA07D235493548008851F820001B
:1057E00090ED060A08E02F4890ED150AF8EEC00A81
:1057F0009DED100A20EE800A2C482D49098850F8AA
:10580000210080ED060A29482949098850F821001D
:10581000D0ED070A234890ED160AB8EEC01A9DEDA8
:10582000100A21EE000AF4EEC00AF1EE10FA07D2D7
:105830001E481F49098850F8210090ED070A08E02A
:10584000184890ED160AF8EEC00A9DED100A20EEF9
:10585000800A16491648008851F8200000E06CE0E4
:1058600080ED070A08461249098850F82100D0ED5A
:10587000040A0C4890ED170AB8EEC01A9DED100A04
:1058800021EE000AF4EEC00AF1EE10FA18D2074831
:105890000749098850F8210090ED040A19E000003A
:1058A000C0230120201400200024744994FF02200A
:1058B000F6020020AC010020A00100200815002005
:1058C000FA4890ED170AF8EEC00A9DED100A20EE96
:1058D000800AF748F749098850F8210080ED040A4A
:1058E000F348F449098850F82100D0ED040AEF4844
:1058F00090ED170AB8EEC01A9DED100A21EE000ACD
:10590000F4EEC00AF1EE10FA07D2E948E949098835
:1059100050F8210090ED040A08E0E44890ED170AE1
:10592000F8EEC00A9DED100A20EE800AE048E14939
:10593000098850F8210080ED050ADD49DD4800881E
:1059400051F8200090ED010AB5EEC00AF1EE10FA10
:105950007ED00846D749098850F8210090ED010A09
:10596000DFEDD50A20EE200ABDEEC00A8DED0D0A4E
:105970000D98002801DB0D9801E00D98404200EEE3
:10598000100AB8EEC00ACA49CA48008851F8200077
:10599000D0ED030A80EE801A8DED101A0846C54935
:1059A000098850F82100D0ED060AC04890ED220A7F
:1059B000B8EEC01A9DED100A21EE000AF4EEC00AFE
:1059C000F1EE10FA07D2BA48BA49098850F8210016
:1059D00090ED060A08E0B54890ED220AF8EEC00AFC
:1059E0009DED100A20EE800AB148B249098850F8AE
:1059F000210080ED060AAE49AE48008851F820002B
:105A0000D0ED070AA94890ED230AB8EEC01A9DED23
:105A1000100A21EE000AF4EEC00AF1EE10FA06D2E6
:105A2000A448008851F8200090ED070A08E09F483C
:105A300090ED230AF8EEC00A9DED100A20EE800AD0
:105A40009B489C49098850F8210080ED070A00E036
:105A500057E097499748008851F82000D0ED040A94
:105A6000924890ED240AB8EEC01A9DED100A21EE7E
:105A7000000AF4EEC00AF1EE10FA07D208468D498A
:105A8000098850F8210090ED040A08E0874890ED5D
:105A9000240AF8EEC00A9DED100A20EE800A84491F
:105AA0008448008851F8200080ED040A814800886D
:105AB00051F82000D0ED040A7C4890ED240AB8EE9D
:105AC000C01A9DED100A21EE000AF4EEC00AF1EEB4
:105AD00010FA06D27748008851F8200090ED040AA9
